{
  "contractName": "MainVotingC",
  "abi": [
    {
      "constant": true,
      "inputs": [
        {
          "name": "",
          "type": "address"
        }
      ],
      "name": "isVoterEligible",
      "outputs": [
        {
          "name": "",
          "type": "bool"
        }
      ],
      "payable": false,
      "stateMutability": "view",
      "type": "function"
    },
    {
      "constant": true,
      "inputs": [
        {
          "name": "",
          "type": "uint256"
        },
        {
          "name": "",
          "type": "uint256"
        }
      ],
      "name": "groupsVoters",
      "outputs": [
        {
          "name": "",
          "type": "address"
        }
      ],
      "payable": false,
      "stateMutability": "view",
      "type": "function"
    },
    {
      "constant": true,
      "inputs": [
        {
          "name": "",
          "type": "address"
        }
      ],
      "name": "boothsInStageTally",
      "outputs": [
        {
          "name": "",
          "type": "bool"
        }
      ],
      "payable": false,
      "stateMutability": "view",
      "type": "function"
    },
    {
      "constant": true,
      "inputs": [
        {
          "name": "",
          "type": "uint256"
        }
      ],
      "name": "candidates",
      "outputs": [
        {
          "name": "",
          "type": "string"
        }
      ],
      "payable": false,
      "stateMutability": "view",
      "type": "function"
    },
    {
      "constant": true,
      "inputs": [
        {
          "name": "",
          "type": "address"
        }
      ],
      "name": "isAddrBooth",
      "outputs": [
        {
          "name": "",
          "type": "bool"
        }
      ],
      "payable": false,
      "stateMutability": "view",
      "type": "function"
    },
    {
      "constant": true,
      "inputs": [
        {
          "name": "",
          "type": "uint256"
        }
      ],
      "name": "eligibleVoters",
      "outputs": [
        {
          "name": "",
          "type": "address"
        }
      ],
      "payable": false,
      "stateMutability": "view",
      "type": "function"
    },
    {
      "constant": true,
      "inputs": [],
      "name": "authority",
      "outputs": [
        {
          "name": "",
          "type": "address"
        }
      ],
      "payable": false,
      "stateMutability": "view",
      "type": "function"
    },
    {
      "constant": true,
      "inputs": [
        {
          "name": "",
          "type": "uint256"
        }
      ],
      "name": "candidateGens_f",
      "outputs": [
        {
          "name": "",
          "type": "uint256"
        }
      ],
      "payable": false,
      "stateMutability": "view",
      "type": "function"
    },
    {
      "constant": true,
      "inputs": [],
      "name": "stage",
      "outputs": [
        {
          "name": "",
          "type": "uint8"
        }
      ],
      "payable": false,
      "stateMutability": "view",
      "type": "function"
    },
    {
      "constant": true,
      "inputs": [
        {
          "name": "",
          "type": "uint256"
        }
      ],
      "name": "groupBoothAddr",
      "outputs": [
        {
          "name": "",
          "type": "address"
        }
      ],
      "payable": false,
      "stateMutability": "view",
      "type": "function"
    },
    {
      "constant": true,
      "inputs": [
        {
          "name": "",
          "type": "address"
        }
      ],
      "name": "votersGroup",
      "outputs": [
        {
          "name": "",
          "type": "uint256"
        }
      ],
      "payable": false,
      "stateMutability": "view",
      "type": "function"
    },
    {
      "constant": true,
      "inputs": [
        {
          "name": "",
          "type": "uint256"
        },
        {
          "name": "",
          "type": "uint256"
        }
      ],
      "name": "candidateGens",
      "outputs": [
        {
          "name": "",
          "type": "uint256"
        }
      ],
      "payable": false,
      "stateMutability": "view",
      "type": "function"
    },
    {
      "constant": true,
      "inputs": [
        {
          "name": "",
          "type": "address"
        }
      ],
      "name": "boothTallyCollected",
      "outputs": [
        {
          "name": "",
          "type": "bool"
        }
      ],
      "payable": false,
      "stateMutability": "view",
      "type": "function"
    },
    {
      "constant": true,
      "inputs": [
        {
          "name": "",
          "type": "uint256"
        }
      ],
      "name": "booths",
      "outputs": [
        {
          "name": "",
          "type": "address"
        }
      ],
      "payable": false,
      "stateMutability": "view",
      "type": "function"
    },
    {
      "inputs": [
        {
          "name": "_candidates",
          "type": "string[]"
        },
        {
          "name": "_candidateGens",
          "type": "uint256[]"
        },
        {
          "name": "_mpcBatchSize",
          "type": "uint256"
        },
        {
          "name": "_mpcRmBatchSize",
          "type": "uint256"
        },
        {
          "name": "_boothDeployer",
          "type": "address"
        }
      ],
      "payable": false,
      "stateMutability": "nonpayable",
      "type": "constructor"
    },
    {
      "anonymous": false,
      "inputs": [
        {
          "indexed": false,
          "name": "boothAddr",
          "type": "address"
        },
        {
          "indexed": false,
          "name": "group",
          "type": "uint256"
        }
      ],
      "name": "BoothCreated",
      "type": "event"
    },
    {
      "anonymous": false,
      "inputs": [
        {
          "indexed": false,
          "name": "finalTally",
          "type": "int256[]"
        }
      ],
      "name": "FinalTally",
      "type": "event"
    },
    {
      "constant": false,
      "inputs": [
        {
          "name": "_voters",
          "type": "address[]"
        }
      ],
      "name": "enrollVoters",
      "outputs": [],
      "payable": false,
      "stateMutability": "nonpayable",
      "type": "function"
    },
    {
      "constant": false,
      "inputs": [
        {
          "name": "start_idx",
          "type": "uint256"
        },
        {
          "name": "batch_size",
          "type": "uint256"
        },
        {
          "name": "groups_cnt",
          "type": "uint256"
        }
      ],
      "name": "splitGroups",
      "outputs": [],
      "payable": false,
      "stateMutability": "nonpayable",
      "type": "function"
    },
    {
      "constant": false,
      "inputs": [
        {
          "name": "start_idx",
          "type": "uint256"
        },
        {
          "name": "batch_group_cnt",
          "type": "uint256"
        },
        {
          "name": "votingfunc",
          "type": "address"
        },
        {
          "name": "votingcalls",
          "type": "address"
        }
      ],
      "name": "deployBooths",
      "outputs": [],
      "payable": false,
      "stateMutability": "nonpayable",
      "type": "function"
    },
    {
      "constant": false,
      "inputs": [],
      "name": "changeStageToTally",
      "outputs": [],
      "payable": false,
      "stateMutability": "nonpayable",
      "type": "function"
    },
    {
      "constant": false,
      "inputs": [
        {
          "name": "_tally",
          "type": "int256[]"
        }
      ],
      "name": "provideBoothTally",
      "outputs": [],
      "payable": false,
      "stateMutability": "nonpayable",
      "type": "function"
    },
    {
      "constant": true,
      "inputs": [
        {
          "name": "voter",
          "type": "address"
        }
      ],
      "name": "isVoterEligibleInBooth",
      "outputs": [
        {
          "name": "",
          "type": "bool"
        }
      ],
      "payable": false,
      "stateMutability": "view",
      "type": "function"
    },
    {
      "constant": true,
      "inputs": [],
      "name": "getCntOfCandidates",
      "outputs": [
        {
          "name": "",
          "type": "uint256"
        }
      ],
      "payable": false,
      "stateMutability": "view",
      "type": "function"
    },
    {
      "constant": true,
      "inputs": [],
      "name": "getCntOfEligibleVoters",
      "outputs": [
        {
          "name": "",
          "type": "uint256"
        }
      ],
      "payable": false,
      "stateMutability": "view",
      "type": "function"
    },
    {
      "constant": true,
      "inputs": [],
      "name": "getFinalTally",
      "outputs": [
        {
          "name": "",
          "type": "int256[]"
        }
      ],
      "payable": false,
      "stateMutability": "view",
      "type": "function"
    }
  ],
  "bytecode": "0x6080604052600080556000600f5560006010553480156200001f57600080fd5b506040516200310c3803806200310c8339810180604052620000459190810190620005b3565b33600160006101000a81548173ffffffffffffffffffffffffffffffffffffffff021916908373ffffffffffffffffffffffffffffffffffffffff1602179055508351600286510214620000d0576040517f08c379a0000000000000000000000000000000000000000000000000000000008152600401620000c790620006cf565b60405180910390fd5b60008090505b8551811015620002ab576002868281518110620000ef57fe5b60200260200101519080600181540180825580915050906001820390600052602060002001600090919290919091509080519060200190620001339291906200032b565b505060048582600202815181106200014757fe5b6020026020010151908060018154018082558091505090600182039060005260206000200160009091929091909150555060048560018360020201815181106200018d57fe5b6020026020010151908060018154018082558091505090600182039060005260206000200160009091929091909150555060036040518060400160405280878460020281518110620001db57fe5b60200260200101518152602001876001856002020181518110620001fb57fe5b60200260200101518152509080600181540180825580915050906001820390600052602060002090600202016000909192909190915090600262000241929190620003b2565b50506013600090806001815401808255809150509060018203906000526020600020016000909192909190915055506013600090806001815401808255809150509060018203906000526020600020016000909192909190915055508080600101915050620000d6565b5080600d60006101000a81548173ffffffffffffffffffffffffffffffffffffffff021916908373ffffffffffffffffffffffffffffffffffffffff16021790555082601281905550816011819055506000601460006101000a81548160ff021916908360058111156200031b57fe5b0217905550505050505062000857565b828054600181600116156101000203166002900490600052602060002090601f016020900481019282601f106200036e57805160ff19168380011785556200039f565b828001600101855582156200039f579182015b828111156200039e57825182559160200191906001019062000381565b5b509050620003ae9190620003f7565b5090565b8260028101928215620003e4579160200282015b82811115620003e3578251825591602001919060010190620003c6565b5b509050620003f39190620003f7565b5090565b6200041c91905b8082111562000418576000816000905550600101620003fe565b5090565b90565b600081519050620004308162000823565b92915050565b600082601f8301126200044857600080fd5b81516200045f62000459826200071f565b620006f1565b9150818183526020840193506020810190508360005b83811015620004a957815186016200048e888262000540565b84526020840193506020830192505060018101905062000475565b5050505092915050565b600082601f830112620004c557600080fd5b8151620004dc620004d68262000748565b620006f1565b915081818352602084019350602081019050838560208402820111156200050257600080fd5b60005b838110156200053657816200051b88826200059c565b84526020840193506020830192505060018101905062000505565b5050505092915050565b600082601f8301126200055257600080fd5b815162000569620005638262000771565b620006f1565b915080825260208301602083018583830111156200058657600080fd5b62000593838284620007ed565b50505092915050565b600081519050620005ad816200083d565b92915050565b600080600080600060a08688031215620005cc57600080fd5b600086015167ffffffffffffffff811115620005e757600080fd5b620005f58882890162000436565b955050602086015167ffffffffffffffff8111156200061357600080fd5b6200062188828901620004b3565b945050604062000634888289016200059c565b935050606062000647888289016200059c565b92505060806200065a888289016200041f565b9150509295509295909350565b6000620006766025836200079e565b91507f5265717569726564206f6e652067656e657261746f72207065722063616e646960008301527f646174652e0000000000000000000000000000000000000000000000000000006020830152604082019050919050565b60006020820190508181036000830152620006ea8162000667565b9050919050565b6000604051905081810181811067ffffffffffffffff821117156200071557600080fd5b8060405250919050565b600067ffffffffffffffff8211156200073757600080fd5b602082029050602081019050919050565b600067ffffffffffffffff8211156200076057600080fd5b602082029050602081019050919050565b600067ffffffffffffffff8211156200078957600080fd5b601f19601f8301169050602081019050919050565b600082825260208201905092915050565b6000620007bc82620007c3565b9050919050565b600073ffffffffffffffffffffffffffffffffffffffff82169050919050565b6000819050919050565b60005b838110156200080d578082015181840152602081019050620007f0565b838111156200081d576000848401525b50505050565b6200082e81620007af565b81146200083a57600080fd5b50565b6200084881620007e3565b81146200085457600080fd5b50565b6128a580620008676000396000f3fe608060405234801561001057600080fd5b506004361061014d5760003560e01c8063bf7e214f116100c3578063d45d9cbb1161007c578063d45d9cbb146103ec578063da41ecf81461041c578063e556774814610426578063ea28b56314610442578063f283b79b14610472578063f314ea78146104a25761014d565b8063bf7e214f14610316578063bfb15b5f14610334578063c040e6b814610364578063c0ebcefb14610382578063ccfdd2611461039e578063ce7c2186146103ce5761014d565b806346e3a8a81161011557806346e3a8a814610242578063509301c21461025e578063809d2e551461027a57806390caf298146102aa5780639a0ecbcd146102da578063a2f52422146102f85761014d565b80631660ca461461015257806319650dd61461018257806319a66254146101b25780633477ee2e146101e257806334c1be3f14610212575b600080fd5b61016c600480360361016791908101906119d9565b6104d2565b604051610179919061229b565b60405180910390f35b61019c60048036036101979190810190611ad6565b6104f2565b6040516101a99190612213565b60405180910390f35b6101cc60048036036101c791908101906119d9565b61053d565b6040516101d9919061229b565b60405180910390f35b6101fc60048036036101f79190810190611aad565b61055d565b60405161020991906122ec565b60405180910390f35b61022c600480360361022791908101906119d9565b610616565b604051610239919061229b565b60405180910390f35b61025c60048036036102579190810190611b75565b6107bd565b005b61027860048036036102739190810190611a43565b610ad4565b005b610294600480360361028f91908101906119d9565b610db4565b6040516102a1919061229b565b60405180910390f35b6102c460048036036102bf9190810190611aad565b610dd4565b6040516102d19190612213565b60405180910390f35b6102e2610e10565b6040516102ef919061244e565b60405180910390f35b610300610e1d565b60405161030d9190612257565b60405180910390f35b61031e610ebe565b60405161032b9190612213565b60405180910390f35b61034e60048036036103499190810190611aad565b610ee4565b60405161035b919061244e565b60405180910390f35b61036c610f05565b60405161037991906122d1565b60405180910390f35b61039c60048036036103979190810190611b12565b610f18565b005b6103b860048036036103b39190810190611aad565b61133d565b6040516103c59190612213565b60405180910390f35b6103d6611370565b6040516103e3919061244e565b60405180910390f35b610406600480360361040191908101906119d9565b61137d565b604051610413919061244e565b60405180910390f35b610424611395565b005b610440600480360361043b9190810190611a02565b611553565b005b61045c60048036036104579190810190611ad6565b6117f1565b604051610469919061244e565b60405180910390f35b61048c600480360361048791908101906119d9565b611823565b604051610499919061229b565b60405180910390f35b6104bc60048036036104b79190810190611aad565b611843565b6040516104c991906122b6565b60405180910390f35b60066020528060005260406000206000915054906101000a900460ff1681565b6008602052816000526040600020818154811061050b57fe5b906000526020600020016000915091509054906101000a900473ffffffffffffffffffffffffffffffffffffffff1681565b600b6020528060005260406000206000915054906101000a900460ff1681565b6002818154811061056a57fe5b906000526020600020016000915090508054600181600116156101000203166002900480601f01602080910402602001604051908101604052809291908181526020018280546001816001161561010002031660029004801561060e5780601f106105e35761010080835404028352916020019161060e565b820191906000526020600020905b8154815290600101906020018083116105f157829003601f168201915b505050505081565b6000600a60003373ffffffffffffffffffffffffffffffffffffffff1673ffffffffffffffffffffffffffffffffffffffff16815260200190815260200160002060009054906101000a900460ff166106a4576040517f08c379a000000000000000000000000000000000000000000000000000000000815260040161069b906123ce565b60405180910390fd5b600660008373ffffffffffffffffffffffffffffffffffffffff1673ffffffffffffffffffffffffffffffffffffffff16815260200190815260200160002060009054906101000a900460ff166106fe57600090506107b8565b6000600760008473ffffffffffffffffffffffffffffffffffffffff1673ffffffffffffffffffffffffffffffffffffffff1681526020019081526020016000205490503373ffffffffffffffffffffffffffffffffffffffff166009600083815260200190815260200160002060009054906101000a900473ffffffffffffffffffffffffffffffffffffffff1673ffffffffffffffffffffffffffffffffffffffff16146107b25760009150506107b8565b60019150505b919050565b600160009054906101000a900473ffffffffffffffffffffffffffffffffffffffff1673ffffffffffffffffffffffffffffffffffffffff163373ffffffffffffffffffffffffffffffffffffffff161461084d576040517f08c379a00000000000000000000000000000000000000000000000000000000081526004016108449061240e565b60405180910390fd5b6000601460009054906101000a900460ff16600581111561086a57fe5b81600581111561087657fe5b146108b6576040517f08c379a00000000000000000000000000000000000000000000000000000000081526004016108ad906123ae565b60405180910390fd5b6000805414156109175760058054905060038302111561090b576040517f08c379a00000000000000000000000000000000000000000000000000000000081526004016109029061238e565b60405180910390fd5b8160008190555061095c565b816000541461095b576040517f08c379a00000000000000000000000000000000000000000000000000000000081526004016109529061232e565b60405180910390fd5b5b600083850190506005805490508111156109795760058054905090505b60008590505b81811015610acc57600084828161099257fe5b06905060086000828152602001908152602001600020600583815481106109b557fe5b9060005260206000200160009054906101000a900473ffffffffffffffffffffffffffffffffffffffff1690806001815401808255809150509060018203906000526020600020016000909192909190916101000a81548173ffffffffffffffffffffffffffffffffffffffff021916908373ffffffffffffffffffffffffffffffffffffffff16021790555050806007600060058581548110610a5557fe5b9060005260206000200160009054906101000a900473ffffffffffffffffffffffffffffffffffffffff1673ffffffffffffffffffffffffffffffffffffffff1673ffffffffffffffffffffffffffffffffffffffff1681526020019081526020016000208190555050808060010191505061097f565b505050505050565b6005601460009054906101000a900460ff166005811115610af157fe5b816005811115610afd57fe5b14610b3d576040517f08c379a0000000000000000000000000000000000000000000000000000000008152600401610b34906123ae565b60405180910390fd5b600a60003373ffffffffffffffffffffffffffffffffffffffff1673ffffffffffffffffffffffffffffffffffffffff16815260200190815260200160002060009054906101000a900460ff16610bc9576040517f08c379a0000000000000000000000000000000000000000000000000000000008152600401610bc0906123ce565b60405180910390fd5b60001515600c60003373ffffffffffffffffffffffffffffffffffffffff1673ffffffffffffffffffffffffffffffffffffffff16815260200190815260200160002060009054906101000a900460ff16151514610c5c576040517f08c379a0000000000000000000000000000000000000000000000000000000008152600401610c539061236e565b60405180910390fd5b60008090505b600280549050811015610cfe57828160020281518110610c7e57fe5b602002602001015160138260020281548110610c9657fe5b9060005260206000200160008282540192505081905550826001826002020181518110610cbf57fe5b602002602001015160136001836002020181548110610cda57fe5b90600052602060002001600082825401925050819055508080600101915050610c62565b506001600c60003373ffffffffffffffffffffffffffffffffffffffff1673ffffffffffffffffffffffffffffffffffffffff16815260200190815260200160002060006101000a81548160ff0219169083151502179055506001601060008282540192505081905550600e805490506010541415610db0577f8e2104f6add02a8b534b1113da5f9a7d67935f8de9e8e463da48152574126afa6013604051610da79190612279565b60405180910390a15b5050565b600a6020528060005260406000206000915054906101000a900460ff1681565b60058181548110610de157fe5b906000526020600020016000915054906101000a900473ffffffffffffffffffffffffffffffffffffffff1681565b6000600580549050905090565b6060600e8054905060105414610e68576040517f08c379a0000000000000000000000000000000000000000000000000000000008152600401610e5f9061234e565b60405180910390fd5b6013805480602002602001604051908101604052809291908181526020018280548015610eb457602002820191906000526020600020905b815481526020019060010190808311610ea0575b5050505050905090565b600160009054906101000a900473ffffffffffffffffffffffffffffffffffffffff1681565b60048181548110610ef157fe5b906000526020600020016000915090505481565b601460009054906101000a900460ff1681565b600160009054906101000a900473ffffffffffffffffffffffffffffffffffffffff1673ffffffffffffffffffffffffffffffffffffffff163373ffffffffffffffffffffffffffffffffffffffff1614610fa8576040517f08c379a0000000000000000000000000000000000000000000000000000000008152600401610f9f9061240e565b60405180910390fd5b6000601460009054906101000a900460ff166005811115610fc557fe5b816005811115610fd157fe5b14611011576040517f08c379a0000000000000000000000000000000000000000000000000000000008152600401611008906123ae565b60405180910390fd5b6000600d60009054906101000a900473ffffffffffffffffffffffffffffffffffffffff1690506000858701905060005481111561104f5760005490505b60008790505b8181101561133357600073ffffffffffffffffffffffffffffffffffffffff166009600083815260200190815260200160002060009054906101000a900473ffffffffffffffffffffffffffffffffffffffff1673ffffffffffffffffffffffffffffffffffffffff16146110ff576040517f08c379a00000000000000000000000000000000000000000000000000000000081526004016110f6906123ee565b60405180910390fd5b60008373ffffffffffffffffffffffffffffffffffffffff16630952b6df60086000858152602001908152602001600020805490506002600460125460115430600160009054906101000a900473ffffffffffffffffffffffffffffffffffffffff168f8f6040518a63ffffffff1660e01b815260040161118899989796959493929190612469565b602060405180830381600087803b1580156111a257600080fd5b505af11580156111b6573d6000803e3d6000fd5b505050506040513d601f19601f820116820180604052506111da9190810190611a84565b9050806009600084815260200190815260200160002060006101000a81548173ffffffffffffffffffffffffffffffffffffffff021916908373ffffffffffffffffffffffffffffffffffffffff160217905550600e8190806001815401808255809150509060018203906000526020600020016000909192909190916101000a81548173ffffffffffffffffffffffffffffffffffffffff021916908373ffffffffffffffffffffffffffffffffffffffff160217905550506001600a60008373ffffffffffffffffffffffffffffffffffffffff1673ffffffffffffffffffffffffffffffffffffffff16815260200190815260200160002060006101000a81548160ff0219169083151502179055507fe8d7cfc45631dacd1b0f8eb2f39b337cebd6e9f091427221082ff6fc40995dd3818360405161131d92919061222e565b60405180910390a1508080600101915050611055565b5050505050505050565b60096020528060005260406000206000915054906101000a900473ffffffffffffffffffffffffffffffffffffffff1681565b6000600280549050905090565b60076020528060005260406000206000915090505481565b600a60003373ffffffffffffffffffffffffffffffffffffffff1673ffffffffffffffffffffffffffffffffffffffff16815260200190815260200160002060009054906101000a900460ff16611421576040517f08c379a0000000000000000000000000000000000000000000000000000000008152600401611418906123ce565b60405180910390fd5b60001515600b60003373ffffffffffffffffffffffffffffffffffffffff1673ffffffffffffffffffffffffffffffffffffffff16815260200190815260200160002060009054906101000a900460ff161515146114b4576040517f08c379a00000000000000000000000000000000000000000000000000000000081526004016114ab9061230e565b60405180910390fd5b6001600b60003373ffffffffffffffffffffffffffffffffffffffff1673ffffffffffffffffffffffffffffffffffffffff16815260200190815260200160002060006101000a81548160ff0219169083151502179055506001600f60008282540192505081905550600e80549050600f541415611551576005601460006101000a81548160ff0219169083600581111561154b57fe5b02179055505b565b600160009054906101000a900473ffffffffffffffffffffffffffffffffffffffff1673ffffffffffffffffffffffffffffffffffffffff163373ffffffffffffffffffffffffffffffffffffffff16146115e3576040517f08c379a00000000000000000000000000000000000000000000000000000000081526004016115da9061240e565b60405180910390fd5b6000601460009054906101000a900460ff16600581111561160057fe5b81600581111561160c57fe5b1461164c576040517f08c379a0000000000000000000000000000000000000000000000000000000008152600401611643906123ae565b60405180910390fd5b60008090505b82518110156117ec576006600084838151811061166b57fe5b602002602001015173ffffffffffffffffffffffffffffffffffffffff1673ffffffffffffffffffffffffffffffffffffffff16815260200190815260200160002060009054906101000a900460ff16156116fb576040517f08c379a00000000000000000000000000000000000000000000000000000000081526004016116f29061242e565b60405180910390fd5b60016006600085848151811061170d57fe5b602002602001015173ffffffffffffffffffffffffffffffffffffffff1673ffffffffffffffffffffffffffffffffffffffff16815260200190815260200160002060006101000a81548160ff021916908315150217905550600583828151811061177457fe5b602002602001015190806001815401808255809150509060018203906000526020600020016000909192909190916101000a81548173ffffffffffffffffffffffffffffffffffffffff021916908373ffffffffffffffffffffffffffffffffffffffff160217905550508080600101915050611652565b505050565b600382815481106117fe57fe5b9060005260206000209060020201816002811061181757fe5b01600091509150505481565b600c6020528060005260406000206000915054906101000a900460ff1681565b600e818154811061185057fe5b906000526020600020016000915054906101000a900473ffffffffffffffffffffffffffffffffffffffff1681565b60008135905061188e8161280f565b92915050565b600082601f8301126118a557600080fd5b81356118b86118b382612531565b612504565b915081818352602084019350602081019050838560208402820111156118dd57600080fd5b60005b8381101561190d57816118f3888261187f565b8452602084019350602083019250506001810190506118e0565b5050505092915050565b600082601f83011261192857600080fd5b813561193b61193682612559565b612504565b9150818183526020840193506020810190508385602084028201111561196057600080fd5b60005b83811015611990578161197688826119af565b845260208401935060208301925050600181019050611963565b5050505092915050565b6000815190506119a981612826565b92915050565b6000813590506119be8161283d565b92915050565b6000813590506119d381612854565b92915050565b6000602082840312156119eb57600080fd5b60006119f98482850161187f565b91505092915050565b600060208284031215611a1457600080fd5b600082013567ffffffffffffffff811115611a2e57600080fd5b611a3a84828501611894565b91505092915050565b600060208284031215611a5557600080fd5b600082013567ffffffffffffffff811115611a6f57600080fd5b611a7b84828501611917565b91505092915050565b600060208284031215611a9657600080fd5b6000611aa48482850161199a565b91505092915050565b600060208284031215611abf57600080fd5b6000611acd848285016119c4565b91505092915050565b60008060408385031215611ae957600080fd5b6000611af7858286016119c4565b9250506020611b08858286016119c4565b9150509250929050565b60008060008060808587031215611b2857600080fd5b6000611b36878288016119c4565b9450506020611b47878288016119c4565b9350506040611b588782880161187f565b9250506060611b698782880161187f565b91505092959194509250565b600080600060608486031215611b8a57600080fd5b6000611b98868287016119c4565b9350506020611ba9868287016119c4565b9250506040611bba868287016119c4565b9150509250925092565b6000611bd08383611de0565b60208301905092915050565b6000611be88383611e28565b905092915050565b6000611bfc83836121f5565b60208301905092915050565b611c11816126aa565b82525050565b6000611c22826125d6565b611c2c8185612641565b9350611c3783612581565b8060005b83811015611c68578151611c4f8882611bc4565b9750611c5a8361260d565b925050600181019050611c3b565b5085935050505092915050565b6000611c80826125e1565b611c8a8185612641565b9350611c958361258e565b8060005b83811015611ccd57611caa826127be565b611cb48882611bc4565b9750611cbf8361261a565b925050600181019050611c99565b5085935050505092915050565b6000611ce5826125ec565b611cef8185612652565b935083602082028501611d01856125a0565b8060005b85811015611d3c57848403895281611d1d8582611bdc565b9450611d2883612627565b925060208a01995050600181019050611d05565b50829750879550505050505092915050565b6000611d59826125f7565b611d638185612663565b9350611d6e836125b2565b8060005b83811015611da657611d83826127d1565b611d8d8882611bf0565b9750611d9883612634565b925050600181019050611d72565b5085935050505092915050565b611dbc816126bc565b82525050565b611dcb81612721565b82525050565b611dda81612745565b82525050565b611de9816126ed565b82525050565b6000611dfa82612602565b611e048185612685565b9350611e14818560208601612757565b611e1d816127e4565b840191505092915050565b600081546001811660008114611e455760018114611e6b57611eaf565b607f6002830416611e568187612674565b955060ff198316865260208601935050611eaf565b60028204611e798187612674565b9550611e84856125c4565b60005b82811015611ea657815481890152600182019150602081019050611e87565b80880195505050505b505092915050565b6000611ec4601c83612685565b91507f426f6f746820616c7265616479206368616e6765642073746167652e000000006000830152602082019050919050565b6000611f04602b83612685565b91507f47726f75707320636f756e742064696666657273206265747765656e2073706c60008301527f697420626174636865732e0000000000000000000000000000000000000000006020830152604082019050919050565b6000611f6a602883612685565b91507f54616c6c79206e6f7420636f6c6c65637465642066726f6d20616c6c20626f6f60008301527f746873207965742e0000000000000000000000000000000000000000000000006020830152604082019050919050565b6000611fd0602083612685565b91507f426f6f746827732074616c6c7920616c726561647920636f6c6c65637465642e6000830152602082019050919050565b6000612010601a83612685565b91507f546f6f206d616e792067726f757073207265717565737465642e0000000000006000830152602082019050919050565b6000612050601583612685565b91507f57726f6e672073746167652064657465637465642e00000000000000000000006000830152602082019050919050565b6000612090602283612685565b91507f4f6e6c7920626f6f74682063616e2063616c6c20746869732066756e6374696f60008301527f6e2e0000000000000000000000000000000000000000000000000000000000006020830152604082019050919050565b60006120f6602683612685565b91507f426f6f746820666f7220746869732067726f757020616c72656164792064657060008301527f6c6f7965642e00000000000000000000000000000000000000000000000000006020830152604082019050919050565b600061215c602683612685565b91507f4f6e6c7920617574686f726974792063616e2063616c6c20746869732066756e60008301527f6374696f6e2e00000000000000000000000000000000000000000000000000006020830152604082019050919050565b60006121c2601b83612685565b91507f566f7465722077617320616c726561647920656e726f6c6c65642e00000000006000830152602082019050919050565b6121fe81612717565b82525050565b61220d81612717565b82525050565b60006020820190506122286000830184611c08565b92915050565b60006040820190506122436000830185611c08565b6122506020830184612204565b9392505050565b600060208201905081810360008301526122718184611c17565b905092915050565b600060208201905081810360008301526122938184611c75565b905092915050565b60006020820190506122b06000830184611db3565b92915050565b60006020820190506122cb6000830184611dc2565b92915050565b60006020820190506122e66000830184611dd1565b92915050565b600060208201905081810360008301526123068184611def565b905092915050565b6000602082019050818103600083015261232781611eb7565b9050919050565b6000602082019050818103600083015261234781611ef7565b9050919050565b6000602082019050818103600083015261236781611f5d565b9050919050565b6000602082019050818103600083015261238781611fc3565b9050919050565b600060208201905081810360008301526123a781612003565b9050919050565b600060208201905081810360008301526123c781612043565b9050919050565b600060208201905081810360008301526123e781612083565b9050919050565b60006020820190508181036000830152612407816120e9565b9050919050565b600060208201905081810360008301526124278161214f565b9050919050565b60006020820190508181036000830152612447816121b5565b9050919050565b60006020820190506124636000830184612204565b92915050565b60006101208201905061247f600083018c612204565b8181036020830152612491818b611cda565b905081810360408301526124a5818a611d4e565b90506124b46060830189612204565b6124c16080830188612204565b6124ce60a0830187611c08565b6124db60c0830186611c08565b6124e860e0830185611c08565b6124f6610100830184611c08565b9a9950505050505050505050565b6000604051905081810181811067ffffffffffffffff8211171561252757600080fd5b8060405250919050565b600067ffffffffffffffff82111561254857600080fd5b602082029050602081019050919050565b600067ffffffffffffffff82111561257057600080fd5b602082029050602081019050919050565b6000602082019050919050565b60008160005260206000209050919050565b60008160005260206000209050919050565b60008160005260206000209050919050565b60008160005260206000209050919050565b600081519050919050565b600081549050919050565b600081549050919050565b600081549050919050565b600081519050919050565b6000602082019050919050565b6000600182019050919050565b6000600182019050919050565b6000600182019050919050565b600082825260208201905092915050565b600082825260208201905092915050565b600082825260208201905092915050565b600082825260208201905092915050565b600082825260208201905092915050565b6000819050919050565b6000819050919050565b60006126b5826126f7565b9050919050565b60008115159050919050565b60006126d3826126aa565b9050919050565b60008190506126e882612802565b919050565b6000819050919050565b600073ffffffffffffffffffffffffffffffffffffffff82169050919050565b6000819050919050565b600061272c82612733565b9050919050565b600061273e826126f7565b9050919050565b6000612750826126da565b9050919050565b60005b8381101561277557808201518184015260208101905061275a565b83811115612784576000848401525b50505050565b600061279d612798836127f5565b612696565b9050919050565b60006127b76127b2836127f5565b6126a0565b9050919050565b60006127ca825461278a565b9050919050565b60006127dd82546127a4565b9050919050565b6000601f19601f8301169050919050565b60008160001c9050919050565b6006811061280c57fe5b50565b612818816126aa565b811461282357600080fd5b50565b61282f816126c8565b811461283a57600080fd5b50565b612846816126ed565b811461285157600080fd5b50565b61285d81612717565b811461286857600080fd5b5056fea265627a7a723058209caaccc843b33a0b3894d3346d9e049bda1086717af8acdb96659e0ca5d781746c6578706572696d656e74616cf50037",
  "source": "// SPDX-License-Identifier: MIT\npragma solidity >=0.4.22 <0.9.0;\n//pragma solidity ^0.8.17;\npragma experimental ABIEncoderV2;\n\nimport \"./VotingBoothDeployer.sol\";\n\n// Author: Ivana Stankov\n// Main voting contract\n// splits voters to groups, deploys booth contracts, collect final tally\ncontract MainVotingC {\n\n    uint constant MIN_GROUP_SIZE = 3;\n\n    uint votingGroupsCnt = 0;\n\n    address public authority;\n    string[] public candidates;\n    uint[2][] public candidateGens;\n    uint[] public candidateGens_f;\n    address[] public eligibleVoters; // all eligible voters\n\n    // Mappings\n    mapping(address => bool) public isVoterEligible;\n    mapping(address => uint) public votersGroup; // voter's address => voter's group\n    mapping(uint => address[]) public groupsVoters; // group => voters in group\n    mapping(uint => address) public groupBoothAddr; // group => booth contract address\n    mapping(address => bool) public isAddrBooth; // address => belongs to booth?\n    mapping(address => bool) public boothsInStageTally; // booth addr => is in stage Tally?\n    mapping(address => bool) public boothTallyCollected; // booth addr => booth's tally collected?\n\n    address boothDeployerAddr;\n    VotingBoothC[] public booths;\n\n    uint boothsInTallyCnt = 0; // num of booths in stage TALLY\n    uint talliesCollectedCnt = 0; // num of tallies from booths already collected\n\n    uint RM_batchSize; // batch size for MPC key precomputation\n    uint MPC_batchSize; // batch size for MPC key comp\n\n    int[] tally; // stored as pairs of decomposed scalars\n\n    enum StageEnum { SETUP, SIGNUP, PRE_VOTING, VOTING, FAULT_REPAIR, TALLY }\n    StageEnum public stage;\n\n    // Events\n    event BoothCreated(address boothAddr, uint group);\n    event FinalTally(int[] finalTally);\n\n    // Modifiers\n    modifier fromAuthority() {\n        require(msg.sender == authority, \"Only authority can call this function.\");\n        _;\n    }\n\n    modifier fromBooth() {\n        require(isAddrBooth[msg.sender], \"Only booth can call this function.\");\n        _;\n    }\n\n    modifier inStage(StageEnum _stage) {\n        require(_stage == stage, \"Wrong stage detected.\");\n        _;\n    }\n\n    modifier firstFromBooth() {\n        require(isAddrBooth[msg.sender], \"Only booth can call this function.\");\n        require(boothsInStageTally[msg.sender] == false, \"Booth already changed stage.\");\n        _;\n    }\n\n    constructor(\n        string[] memory _candidates,\n        uint[] memory _candidateGens,\n        uint _mpcBatchSize,\n        uint _mpcRmBatchSize,\n        address _boothDeployer\n    ) \n        public \n    {\n        authority = msg.sender;\n\n        require(_candidates.length * 2 == _candidateGens.length, \"Required one generator per candidate.\");\n    \n        for (uint i = 0; i < _candidates.length; i++) {\n            candidates.push(_candidates[i]);\n            candidateGens_f.push(_candidateGens[2*i]);\n            candidateGens_f.push(_candidateGens[2*i + 1]);\n            candidateGens.push([_candidateGens[2*i], _candidateGens[2*i + 1]]);\n            tally.push(0);\n            tally.push(0);\n        }\n\n        boothDeployerAddr = _boothDeployer;\n        MPC_batchSize = _mpcBatchSize;\n        RM_batchSize = _mpcRmBatchSize;\n        stage = StageEnum.SETUP;\n    }\n\n    // Registering voters' addresses,\n    // can be called repeatedly by authority\n    function enrollVoters(address[] memory _voters) public\n        fromAuthority()\n        inStage(StageEnum.SETUP)\n    {\n        for (uint i = 0; i < _voters.length; i++) {\n            require(!isVoterEligible[_voters[i]], \"Voter was already enrolled.\");\n            isVoterEligible[_voters[i]] = true;\n            eligibleVoters.push(_voters[i]);\n        }\n    }\n\n    // Split voters to groups\n    // called repeatedly for batches of voters\n    // start_idx - start batch with voter with this idx\n    // batch_size - how many voters to process in batch\n    // groups_cnt - how many groups to split voters to\n    function splitGroups(uint start_idx, uint batch_size, uint groups_cnt) public \n        fromAuthority()\n        inStage(StageEnum.SETUP)\n    {\n        if (votingGroupsCnt == 0) { // when processing the first batch\n            require((groups_cnt * MIN_GROUP_SIZE) <= eligibleVoters.length, \"Too many groups requested.\");\n            votingGroupsCnt = groups_cnt;\n        } else {\n            require(votingGroupsCnt == groups_cnt, \"Groups count differs between split batches.\");\n        }\n\n        uint end_idx = start_idx + batch_size;\n        if (end_idx > eligibleVoters.length) {\n            end_idx = eligibleVoters.length;\n        }\n    \n        for (uint i = start_idx; i < end_idx; i++) {\n            uint group = i % groups_cnt;\n            groupsVoters[group].push(eligibleVoters[i]);\n            votersGroup[eligibleVoters[i]] = group; \n        }\n    }\n\n    // Deploy voting booth for each group\n    // called repeatedly, done in batches\n    // start_idx - start batch with group with this idx\n    // batch_group_cnt - number of booths to deploy in batch\n    // votingfunc, votingcalls - addresses of contracts for delegatecalls\n    function deployBooths(uint start_idx, uint batch_group_cnt, address votingfunc, address votingcalls)\n        public \n        fromAuthority()\n        inStage(StageEnum.SETUP)\n    {\n        VotingBoothDeployer boothDeployer = VotingBoothDeployer(boothDeployerAddr);\n\n        uint end_idx = start_idx + batch_group_cnt;\n        if (end_idx > votingGroupsCnt) {\n            end_idx = votingGroupsCnt;\n        }\n\n        // create contract for each group\n        for (uint i = start_idx; i < end_idx; i++) {\n            require(groupBoothAddr[i] == address(0), \"Booth for this group already deployed.\");\n\n            VotingBoothC booth = boothDeployer.deployBooth(\n                groupsVoters[i].length,\n                candidates,\n                candidateGens_f,\n                MPC_batchSize,\n                RM_batchSize,\n                address(this),\n                authority,\n                votingfunc,\n                votingcalls\n            );\n\n            groupBoothAddr[i] = address(booth);\n            booths.push(booth);\n            isAddrBooth[address(booth)] = true;\n\n            emit BoothCreated(address(booth), i);\n        }\n    }\n\n    // Called by booth to announce change of stage\n    function changeStageToTally()\n        public \n        firstFromBooth()\n    {\n        boothsInStageTally[msg.sender] = true;\n        boothsInTallyCnt += 1;\n\n        if (boothsInTallyCnt == booths.length) {\n            stage = StageEnum.TALLY;\n        }\n    }\n\n    // Called by booth to provide its result to main contract\n    function provideBoothTally(int256[] memory _tally)\n        public\n        inStage(StageEnum.TALLY)\n        fromBooth()\n    {\n        require(boothTallyCollected[msg.sender] == false, \"Booth's tally already collected.\");\n\n        for (uint j = 0; j < candidates.length; j++) {\n            tally[2 * j] += _tally[2 * j];\n            tally[2 * j + 1] += _tally[2 * j + 1];\n        }\n\n        boothTallyCollected[msg.sender] = true;\n        talliesCollectedCnt += 1;\n\n        if (talliesCollectedCnt == booths.length) {\n            // emit when tally was collected from all booths\n            emit FinalTally(tally);\n        }\n    }\n\n    // // // Calls // // //\n    function isVoterEligibleInBooth(address voter)\n        public\n        view \n        fromBooth()\n        returns (bool)\n    {\n        if(!isVoterEligible[voter]) return false;\n\n        uint group = votersGroup[voter];\n        if (!(groupBoothAddr[group] == msg.sender)) return false;\n        else return true;\n    }\n\n    function getCntOfCandidates() public view returns (uint) {\n        return candidates.length;\n    }\n\n    function getCntOfEligibleVoters() public view returns (uint) {\n        return eligibleVoters.length;\n    }\n\n    function getFinalTally() public view returns (int256[] memory) {\n        require(talliesCollectedCnt == booths.length, \"Tally not collected from all booths yet.\");\n        return tally;\n    }\n}",
  "sourcePath": "C:\\Users\\tsvon\\Documents\\Projects\\Bakalarka\\smartcontracts\\contracts\\MainVotingC.sol",
  "compiler": {
    "name": "solc",
    "version": "0.5.8+commit.23d335f2.Emscripten.clang"
  },
  "schemaVersion": "3.4.16",
  "updatedAt": "2025-03-03T17:47:28.111Z",
  "networkType": "ethereum",
  "devdoc": {
    "methods": {}
  },
  "userdoc": {
    "methods": {}
  }
}