{
  "contractName": "VotingFunc",
  "abi": [
    {
      "constant": true,
      "inputs": [
        {
          "name": "",
          "type": "address"
        }
      ],
      "name": "votersPKidx",
      "outputs": [
        {
          "name": "",
          "type": "uint256"
        }
      ],
      "payable": false,
      "stateMutability": "view",
      "type": "function"
    },
    {
      "constant": true,
      "inputs": [
        {
          "name": "",
          "type": "uint256"
        },
        {
          "name": "",
          "type": "uint256"
        }
      ],
      "name": "MpcPKs",
      "outputs": [
        {
          "name": "",
          "type": "uint256"
        }
      ],
      "payable": false,
      "stateMutability": "view",
      "type": "function"
    },
    {
      "constant": true,
      "inputs": [
        {
          "name": "",
          "type": "uint256"
        }
      ],
      "name": "lastRepairedIdx",
      "outputs": [
        {
          "name": "",
          "type": "uint256"
        }
      ],
      "payable": false,
      "stateMutability": "view",
      "type": "function"
    },
    {
      "constant": true,
      "inputs": [],
      "name": "B",
      "outputs": [
        {
          "name": "",
          "type": "uint256"
        }
      ],
      "payable": false,
      "stateMutability": "view",
      "type": "function"
    },
    {
      "constant": true,
      "inputs": [
        {
          "name": "",
          "type": "uint256"
        }
      ],
      "name": "candidates",
      "outputs": [
        {
          "name": "",
          "type": "string"
        }
      ],
      "payable": false,
      "stateMutability": "view",
      "type": "function"
    },
    {
      "constant": true,
      "inputs": [],
      "name": "MPC_batch",
      "outputs": [
        {
          "name": "",
          "type": "uint256"
        }
      ],
      "payable": false,
      "stateMutability": "view",
      "type": "function"
    },
    {
      "constant": true,
      "inputs": [
        {
          "name": "",
          "type": "uint256"
        }
      ],
      "name": "submittedRepairKeys",
      "outputs": [
        {
          "name": "",
          "type": "bool"
        }
      ],
      "payable": false,
      "stateMutability": "view",
      "type": "function"
    },
    {
      "constant": true,
      "inputs": [],
      "name": "RM_start",
      "outputs": [
        {
          "name": "",
          "type": "uint256"
        }
      ],
      "payable": false,
      "stateMutability": "view",
      "type": "function"
    },
    {
      "constant": true,
      "inputs": [
        {
          "name": "",
          "type": "uint256"
        },
        {
          "name": "",
          "type": "uint256"
        }
      ],
      "name": "MPC_right_markers",
      "outputs": [
        {
          "name": "",
          "type": "uint256"
        }
      ],
      "payable": false,
      "stateMutability": "view",
      "type": "function"
    },
    {
      "constant": true,
      "inputs": [],
      "name": "MPC_start",
      "outputs": [
        {
          "name": "",
          "type": "uint256"
        }
      ],
      "payable": false,
      "stateMutability": "view",
      "type": "function"
    },
    {
      "constant": true,
      "inputs": [
        {
          "name": "",
          "type": "uint256"
        }
      ],
      "name": "G",
      "outputs": [
        {
          "name": "",
          "type": "uint256"
        }
      ],
      "payable": false,
      "stateMutability": "view",
      "type": "function"
    },
    {
      "constant": true,
      "inputs": [
        {
          "name": "",
          "type": "uint256"
        }
      ],
      "name": "MPC_act_left",
      "outputs": [
        {
          "name": "",
          "type": "uint256"
        }
      ],
      "payable": false,
      "stateMutability": "view",
      "type": "function"
    },
    {
      "constant": true,
      "inputs": [
        {
          "name": "",
          "type": "uint256"
        },
        {
          "name": "",
          "type": "uint256"
        }
      ],
      "name": "blindedVotes",
      "outputs": [
        {
          "name": "",
          "type": "uint256"
        }
      ],
      "payable": false,
      "stateMutability": "view",
      "type": "function"
    },
    {
      "constant": true,
      "inputs": [],
      "name": "NN",
      "outputs": [
        {
          "name": "",
          "type": "uint256"
        }
      ],
      "payable": false,
      "stateMutability": "view",
      "type": "function"
    },
    {
      "constant": true,
      "inputs": [],
      "name": "Beta",
      "outputs": [
        {
          "name": "",
          "type": "uint256"
        }
      ],
      "payable": false,
      "stateMutability": "view",
      "type": "function"
    },
    {
      "constant": true,
      "inputs": [
        {
          "name": "",
          "type": "address"
        }
      ],
      "name": "votersWithPK",
      "outputs": [
        {
          "name": "",
          "type": "bool"
        }
      ],
      "payable": false,
      "stateMutability": "view",
      "type": "function"
    },
    {
      "constant": true,
      "inputs": [
        {
          "name": "",
          "type": "uint256"
        }
      ],
      "name": "blindedVotesSum",
      "outputs": [
        {
          "name": "",
          "type": "uint256"
        }
      ],
      "payable": false,
      "stateMutability": "view",
      "type": "function"
    },
    {
      "constant": true,
      "inputs": [
        {
          "name": "",
          "type": "uint256"
        },
        {
          "name": "",
          "type": "uint256"
        }
      ],
      "name": "votersPKs",
      "outputs": [
        {
          "name": "",
          "type": "uint256"
        }
      ],
      "payable": false,
      "stateMutability": "view",
      "type": "function"
    },
    {
      "constant": true,
      "inputs": [],
      "name": "Lambda",
      "outputs": [
        {
          "name": "",
          "type": "uint256"
        }
      ],
      "payable": false,
      "stateMutability": "view",
      "type": "function"
    },
    {
      "constant": true,
      "inputs": [
        {
          "name": "",
          "type": "uint256"
        }
      ],
      "name": "RM_act",
      "outputs": [
        {
          "name": "",
          "type": "uint256"
        }
      ],
      "payable": false,
      "stateMutability": "view",
      "type": "function"
    },
    {
      "constant": true,
      "inputs": [],
      "name": "sizeHash",
      "outputs": [
        {
          "name": "",
          "type": "uint256"
        }
      ],
      "payable": false,
      "stateMutability": "view",
      "type": "function"
    },
    {
      "constant": true,
      "inputs": [
        {
          "name": "",
          "type": "uint256"
        }
      ],
      "name": "notVotedIdxs",
      "outputs": [
        {
          "name": "",
          "type": "uint256"
        }
      ],
      "payable": false,
      "stateMutability": "view",
      "type": "function"
    },
    {
      "constant": true,
      "inputs": [],
      "name": "RM_batch",
      "outputs": [
        {
          "name": "",
          "type": "uint256"
        }
      ],
      "payable": false,
      "stateMutability": "view",
      "type": "function"
    },
    {
      "constant": true,
      "inputs": [
        {
          "name": "",
          "type": "uint256"
        },
        {
          "name": "",
          "type": "uint256"
        }
      ],
      "name": "candidateGens",
      "outputs": [
        {
          "name": "",
          "type": "uint256"
        }
      ],
      "payable": false,
      "stateMutability": "view",
      "type": "function"
    },
    {
      "constant": true,
      "inputs": [],
      "name": "PP",
      "outputs": [
        {
          "name": "",
          "type": "uint256"
        }
      ],
      "payable": false,
      "stateMutability": "view",
      "type": "function"
    },
    {
      "constant": true,
      "inputs": [],
      "name": "A",
      "outputs": [
        {
          "name": "",
          "type": "uint256"
        }
      ],
      "payable": false,
      "stateMutability": "view",
      "type": "function"
    },
    {
      "constant": false,
      "inputs": [],
      "name": "buildRightMarkers4MPC",
      "outputs": [],
      "payable": false,
      "stateMutability": "nonpayable",
      "type": "function"
    },
    {
      "constant": false,
      "inputs": [
        {
          "name": "inv_mod_mpc2",
          "type": "uint256[]"
        },
        {
          "name": "inv_mod_mpc1",
          "type": "uint256[]"
        }
      ],
      "name": "computeMPCKeys",
      "outputs": [],
      "payable": false,
      "stateMutability": "nonpayable",
      "type": "function"
    },
    {
      "constant": false,
      "inputs": [
        {
          "name": "proof_A",
          "type": "uint256[]"
        },
        {
          "name": "proof_B",
          "type": "uint256[]"
        },
        {
          "name": "proof_r",
          "type": "int256[]"
        },
        {
          "name": "proof_d",
          "type": "int256[]"
        },
        {
          "name": "vote",
          "type": "uint256[2]"
        },
        {
          "name": "mod_invs",
          "type": "uint256[]"
        }
      ],
      "name": "submitVote",
      "outputs": [],
      "payable": false,
      "stateMutability": "nonpayable",
      "type": "function"
    },
    {
      "constant": false,
      "inputs": [
        {
          "name": "mod_invs",
          "type": "uint256[]"
        },
        {
          "name": "proof_r",
          "type": "int256[]"
        },
        {
          "name": "h_decomp",
          "type": "int256[]"
        },
        {
          "name": "proof_m1",
          "type": "uint256[]"
        },
        {
          "name": "proof_m2",
          "type": "uint256[]"
        },
        {
          "name": "blindedKeys",
          "type": "uint256[]"
        },
        {
          "name": "faultyIdx",
          "type": "uint256[]"
        },
        {
          "name": "myIdx",
          "type": "uint256"
        }
      ],
      "name": "repairBlindedVote",
      "outputs": [],
      "payable": false,
      "stateMutability": "nonpayable",
      "type": "function"
    },
    {
      "constant": false,
      "inputs": [],
      "name": "computeBlindedVotesSum",
      "outputs": [],
      "payable": false,
      "stateMutability": "nonpayable",
      "type": "function"
    },
    {
      "constant": false,
      "inputs": [
        {
          "name": "c_decom",
          "type": "int256[]"
        },
        {
          "name": "modinv",
          "type": "uint256[2]"
        }
      ],
      "name": "computeTally",
      "outputs": [],
      "payable": false,
      "stateMutability": "nonpayable",
      "type": "function"
    }
  ],
  "bytecode": "0x60806040526000600755600060085560006009556103e8600a5560405180604001604052807f79be667ef9dcbbac55a06295ce870b07029bfcdb2dce28d959f2815b16f8179881526020017f483ada7726a3c4655da4fbfc0e1108a8fd17b448a68554199c47d08ffb10d4b8815250600f90600262000080929190620001d7565b507ffffffffffffffffffffffffffffffffebaaedce6af48a03bbfd25e8cd03641416011557ffffffffffffffffffffffffffffffffffffffffffffffffffffffffefffffc2f601255600060135560076014557f5363ad4cc05c30e0a5261c028812645a122e22ea20816678df02967c1b23bd726015557f7ae96a2b657c07106e64479eac3434e99cf0497512f58995c1396c28719501ee60165560006017556040518060600160405280600f6000600281106200013a57fe5b01548152602001600f6001600281106200015057fe5b01548152602001600181525060199060036200016e9291906200021c565b506001601d556040518060600160405280600f6000600281106200018e57fe5b01548152602001600f600160028110620001a457fe5b015481526020016001815250601f906003620001c29291906200021c565b50348015620001d057600080fd5b5062000289565b826002810192821562000209579160200282015b8281111562000208578251825591602001919060010190620001eb565b5b50905062000218919062000261565b5090565b82600381019282156200024e579160200282015b828111156200024d57825182559160200191906001019062000230565b5b5090506200025d919062000261565b5090565b6200028691905b808211156200028257600081600090555060010162000268565b5090565b90565b615fe080620002996000396000f3fe608060405234801561001057600080fd5b50600436106101f05760003560e01c8063940ef6d31161010f578063ca7d2355116100a2578063ea28b56311610071578063ea28b56314611044578063eeeac01e14611090578063f446c1d0146110ae578063f97c5f98146110cc576101f0565b8063ca7d235514610f84578063ce60c90f14610fc6578063e424a7e814610fe4578063e9de37a014611026576101f0565b8063b954cd64116100de578063b954cd6414610d8c578063bb09c1b214610dce578063bb6df9bb14610f1a578063c8141dbd14610f66576101f0565b8063940ef6d314610cea5780639870e2a414610cf45780639bc428a414610d12578063aa34491314610d30576101f0565b80634d0eb1bd116101875780637cb63ec8116101565780637cb63ec814610c105780637ebb175914610c525780638323aba614610c945780638d72b33714610ce0576101f0565b80634d0eb1bd1461083f5780634f9da4211461085d57806360fb9548146108a95780636b42a65714610bf2576101f0565b80633477ee2e116101c35780633477ee2e146102f957806340a25e38146103a0578063422950fa146103be5780634650502914610404576101f0565b80630e1b80b8146101f55780630f5e14eb1461024d5780632fbc3b851461029957806332e7c5bf146102db575b600080fd5b6102376004803603602081101561020b57600080fd5b81019080803573ffffffffffffffffffffffffffffffffffffffff1690602001909291905050506111c5565b6040518082815260200191505060405180910390f35b6102836004803603604081101561026357600080fd5b8101908080359060200190929190803590602001909291905050506111dd565b6040518082815260200191505060405180910390f35b6102c5600480360360208110156102af57600080fd5b810190808035906020019092919050505061120f565b6040518082815260200191505060405180910390f35b6102e3611227565b6040518082815260200191505060405180910390f35b6103256004803603602081101561030f57600080fd5b810190808035906020019092919050505061122d565b6040518080602001828103825283818151815260200191508051906020019080838360005b8381101561036557808201518184015260208101905061034a565b50505050905090810190601f1680156103925780820380516001836020036101000a031916815260200191505b509250505060405180910390f35b6103a86112e6565b6040518082815260200191505060405180910390f35b6103ea600480360360208110156103d457600080fd5b81019080803590602001909291905050506112ec565b604051808215151515815260200191505060405180910390f35b61083d600480360361010081101561041b57600080fd5b810190808035906020019064010000000081111561043857600080fd5b82018360208201111561044a57600080fd5b8035906020019184602083028401116401000000008311171561046c57600080fd5b919080806020026020016040519081016040528093929190818152602001838360200280828437600081840152601f19601f820116905080830192505050505050509192919290803590602001906401000000008111156104cc57600080fd5b8201836020820111156104de57600080fd5b8035906020019184602083028401116401000000008311171561050057600080fd5b919080806020026020016040519081016040528093929190818152602001838360200280828437600081840152601f19601f8201169050808301925050505050505091929192908035906020019064010000000081111561056057600080fd5b82018360208201111561057257600080fd5b8035906020019184602083028401116401000000008311171561059457600080fd5b919080806020026020016040519081016040528093929190818152602001838360200280828437600081840152601f19601f820116905080830192505050505050509192919290803590602001906401000000008111156105f457600080fd5b82018360208201111561060657600080fd5b8035906020019184602083028401116401000000008311171561062857600080fd5b919080806020026020016040519081016040528093929190818152602001838360200280828437600081840152601f19601f8201169050808301925050505050505091929192908035906020019064010000000081111561068857600080fd5b82018360208201111561069a57600080fd5b803590602001918460208302840111640100000000831117156106bc57600080fd5b919080806020026020016040519081016040528093929190818152602001838360200280828437600081840152601f19601f8201169050808301925050505050505091929192908035906020019064010000000081111561071c57600080fd5b82018360208201111561072e57600080fd5b8035906020019184602083028401116401000000008311171561075057600080fd5b919080806020026020016040519081016040528093929190818152602001838360200280828437600081840152601f19601f820116905080830192505050505050509192919290803590602001906401000000008111156107b057600080fd5b8201836020820111156107c257600080fd5b803590602001918460208302840111640100000000831117156107e457600080fd5b919080806020026020016040519081016040528093929190818152602001838360200280828437600081840152601f19601f8201169050808301925050505050505091929192908035906020019092919050505061130c565b005b610847611bb7565b6040518082815260200191505060405180910390f35b6108936004803603604081101561087357600080fd5b810190808035906020019092919080359060200190929190505050611bbd565b6040518082815260200191505060405180910390f35b610bf0600480360360e08110156108bf57600080fd5b81019080803590602001906401000000008111156108dc57600080fd5b8201836020820111156108ee57600080fd5b8035906020019184602083028401116401000000008311171561091057600080fd5b919080806020026020016040519081016040528093929190818152602001838360200280828437600081840152601f19601f8201169050808301925050505050505091929192908035906020019064010000000081111561097057600080fd5b82018360208201111561098257600080fd5b803590602001918460208302840111640100000000831117156109a457600080fd5b919080806020026020016040519081016040528093929190818152602001838360200280828437600081840152601f19601f82011690508083019250505050505050919291929080359060200190640100000000811115610a0457600080fd5b820183602082011115610a1657600080fd5b80359060200191846020830284011164010000000083111715610a3857600080fd5b919080806020026020016040519081016040528093929190818152602001838360200280828437600081840152601f19601f82011690508083019250505050505050919291929080359060200190640100000000811115610a9857600080fd5b820183602082011115610aaa57600080fd5b80359060200191846020830284011164010000000083111715610acc57600080fd5b919080806020026020016040519081016040528093929190818152602001838360200280828437600081840152601f19601f82011690508083019250505050505050919291929080604001906002806020026040519081016040528092919082600260200280828437600081840152601f19601f820116905080830192505050505050919291929080359060200190640100000000811115610b6d57600080fd5b820183602082011115610b7f57600080fd5b80359060200191846020830284011164010000000083111715610ba157600080fd5b919080806020026020016040519081016040528093929190818152602001838360200280828437600081840152601f19601f820116905080830192505050505050509192919290505050611bef565b005b610bfa612d64565b6040518082815260200191505060405180910390f35b610c3c60048036036020811015610c2657600080fd5b8101908080359060200190929190505050612d6a565b6040518082815260200191505060405180910390f35b610c7e60048036036020811015610c6857600080fd5b8101908080359060200190929190505050612d82565b6040518082815260200191505060405180910390f35b610cca60048036036040811015610caa57600080fd5b810190808035906020019092919080359060200190929190505050612d9a565b6040518082815260200191505060405180910390f35b610ce8612dbf565b005b610cf26130bb565b005b610cfc6132ce565b6040518082815260200191505060405180910390f35b610d1a6132d4565b6040518082815260200191505060405180910390f35b610d7260048036036020811015610d4657600080fd5b81019080803573ffffffffffffffffffffffffffffffffffffffff1690602001909291905050506132da565b604051808215151515815260200191505060405180910390f35b610db860048036036020811015610da257600080fd5b81019080803590602001909291905050506132fa565b6040518082815260200191505060405180910390f35b610f1860048036036040811015610de457600080fd5b8101908080359060200190640100000000811115610e0157600080fd5b820183602082011115610e1357600080fd5b80359060200191846020830284011164010000000083111715610e3557600080fd5b919080806020026020016040519081016040528093929190818152602001838360200280828437600081840152601f19601f82011690508083019250505050505050919291929080359060200190640100000000811115610e9557600080fd5b820183602082011115610ea757600080fd5b80359060200191846020830284011164010000000083111715610ec957600080fd5b919080806020026020016040519081016040528093929190818152602001838360200280828437600081840152601f19601f820116905080830192505050505050509192919290505050613312565b005b610f5060048036036040811015610f3057600080fd5b810190808035906020019092919080359060200190929190505050613ba2565b6040518082815260200191505060405180910390f35b610f6e613bd4565b6040518082815260200191505060405180910390f35b610fb060048036036020811015610f9a57600080fd5b8101908080359060200190929190505050613bda565b6040518082815260200191505060405180910390f35b610fce613bf2565b6040518082815260200191505060405180910390f35b61101060048036036020811015610ffa57600080fd5b8101908080359060200190929190505050613bf8565b6040518082815260200191505060405180910390f35b61102e613c19565b6040518082815260200191505060405180910390f35b61107a6004803603604081101561105a57600080fd5b810190808035906020019092919080359060200190929190505050613c1f565b6040518082815260200191505060405180910390f35b611098613c51565b6040518082815260200191505060405180910390f35b6110b6613c57565b6040518082815260200191505060405180910390f35b6111c3600480360360608110156110e257600080fd5b81019080803590602001906401000000008111156110ff57600080fd5b82018360208201111561111157600080fd5b8035906020019184602083028401116401000000008311171561113357600080fd5b919080806020026020016040519081016040528093929190818152602001838360200280828437600081840152601f19601f82011690508083019250505050505050919291929080604001906002806020026040519081016040528092919082600260200280828437600081840152601f19601f8201169050808301925050505050509192919290505050613c5d565b005b60236020528060005260406000206000915090505481565b600482815481106111ea57fe5b9060005260206000209060020201816002811061120357fe5b01600091509150505481565b60246020528060005260406000206000915090505481565b60145481565b6000818154811061123a57fe5b906000526020600020016000915090508054600181600116156101000203166002900480601f0160208091040260200160405190810160405280929190818152602001828054600181600116156101000203166002900480156112de5780601f106112b3576101008083540402835291602001916112de565b820191906000526020600020905b8154815290600101906020018083116112c157829003601f168201915b505050505081565b60185481565b60256020528060005260406000206000915054906101000a900460ff1681565b80602360003373ffffffffffffffffffffffffffffffffffffffff1673ffffffffffffffffffffffffffffffffffffffff16815260200190815260200160002054146113c0576040517f08c379a00000000000000000000000000000000000000000000000000000000081526004018080602001828103825260108152602001807f496478206e6f74206120766f7465722e0000000000000000000000000000000081525060200191505060405180910390fd5b6000602660008381526020019081526020016000206000600281106113e157fe5b01541415611457576040517f08c379a00000000000000000000000000000000000000000000000000000000081526004018080602001828103825260138152602001807f566f74657220646964206e6f7420766f74652e0000000000000000000000000081525060200191505060405180910390fd5b825160028351021461146857600080fd5b60246000828152602001908152602001600020548260008151811061148957fe5b602002602001015111611504576040517f08c379a00000000000000000000000000000000000000000000000000000000081526004018080602001828103825260138152602001807f4661756c74792069647820696e76616c69642e0000000000000000000000000081525060200191505060405180910390fd5b60008090505b8251811015611b055760006026600085848151811061152557fe5b6020026020010151815260200190815260200160002060006002811061154757fe5b0154146115bc576040517f08c379a00000000000000000000000000000000000000000000000000000000081526004018080602001828103825260118152602001807f566f746572206e6f74206661756c74792e00000000000000000000000000000081525060200191505060405180910390fd5b6117a560405180604001604052808b60028502815181106115d957fe5b602002602001015181526020018b60016002860201815181106115f857fe5b60200260200101518152506003848154811061161057fe5b9060005260206000209060020201600386858151811061162c57fe5b60200260200101518154811061163e57fe5b906000526020600020906002020160405180604001604052808d876002028151811061166657fe5b602002602001015181526020018d600188600202018151811061168557fe5b602002602001015181525060405180604001604052808d88600202815181106116aa57fe5b602002602001015181526020018d60018960020201815181106116c957fe5b602002602001015181525060405180604001604052808d89600202815181106116ee57fe5b602002602001015181526020018d60018a600202018151811061170d57fe5b602002602001015181525060405180604001604052808d8a6002028151811061173257fe5b602002602001015181526020018d60018b600202018151811061175157fe5b602002602001015181525060405180604001604052808d8b6002028151811061177657fe5b602002602001015181526020018d60018c600202018151811061179557fe5b6020026020010151815250614735565b818382815181106117b257fe5b602002602001015110156118ce5773__EC____________________________________637559d5508583600202815181106117e957fe5b602002602001015186600185600202018151811061180357fe5b60200260200101516012546040518463ffffffff1660e01b8152600401808481526020018381526020018281526020019350505050604080518083038186803b15801561184f57600080fd5b505af4158015611863573d6000803e3d6000fd5b505050506040513d604081101561187957600080fd5b8101908080519060200190929190805190602001909291905050508583600202815181106118a357fe5b602002602001018660018560020201815181106118bc57fe5b60200260200101828152508281525050505b73__EC____________________________________63c5e45aa46026600085815260200190815260200160002060006002811061190757fe5b01546026600086815260200190815260200160002060016002811061192857fe5b015487856002028151811061193957fe5b602002602001015188600187600202018151811061195357fe5b60200260200101516013546012546040518763ffffffff1660e01b8152600401808781526020018681526020018581526020018481526020018381526020018281526020019650505050505050604080518083038186803b1580156119b757600080fd5b505af41580156119cb573d6000803e3d6000fd5b505050506040513d60408110156119e157600080fd5b81019080805190602001909291908051906020019092919050505060266000858152602001908152602001600020600060028110611a1b57fe5b01600060266000878152602001908152602001600020600160028110611a3d57fe5b016000849190505583919050555050600081118015611a855750828181518110611a6357fe5b6020026020010151836001830381518110611a7a57fe5b602002602001015110155b15611af8576040517f08c379a00000000000000000000000000000000000000000000000000000000081526004018080602001828103825260168152602001807f4f72646572206f662069647873206e6f74206173632e0000000000000000000081525060200191505060405180910390fd5b808060010191505061150a565b5081600183510381518110611b1657fe5b60200260200101516024600083815260200190815260200160002081905550600660016006805490500381548110611b4a57fe5b906000526020600020015460246000838152602001908152602001600020541415611bad57600160076000828254019250508190555060016025600083815260200190815260200160002060006101000a81548160ff0219169083151502179055505b5050505050505050565b601d5481565b601c8281548110611bca57fe5b90600052602060002090600302018160038110611be357fe5b01600091509150505481565b6000805490506002028651148015611c0f57506000805490506002028551145b8015611c2357506000805490506002028451145b8015611c3757506000805490506002028351145b611c8c576040517f08c379a0000000000000000000000000000000000000000000000000000000008152600401808060200182810382526024815260200180615f146024913960400191505060405180910390fd5b600080905060008090505b600080549050811015611db157600080866001846002020181518110611cb957fe5b60200260200101511215611cfd5760115480611cd157fe5b601554876001856002020181518110611ce657fe5b602002602001015160000309601154039050611d28565b60115480611d0757fe5b601554876001856002020181518110611d1c57fe5b60200260200101510990505b6000868360020281518110611d3957fe5b60200260200101511215611d785760115480611d5157fe5b81878460020281518110611d6157fe5b602002602001015160000360115401089050611d9e565b60115480611d8257fe5b81878460020281518110611d9257fe5b60200260200101510890505b8083189250508080600101915050611c97565b50611e7c611e68888860405160200180838051906020019060200280838360005b83811015611ded578082015181840152602081019050611dd2565b50505050905001828051906020019060200280838360005b83811015611e20578082015181840152602081019050611e05565b50505050905001925050506040516020818303038152906040528051906020012060405160200180828152602001915050604051602081830303815290604052600554614fb0565b611e778360001b600554615061565b6150aa565b611eee576040517f08c379a000000000000000000000000000000000000000000000000000000000815260040180806020018281038252601d8152602001807f4320646f6573206e6f74206d6174636820584f52206f6620276427732e00000081525060200191505060405180910390fd5b6000602360003373ffffffffffffffffffffffffffffffffffffffff1673ffffffffffffffffffffffffffffffffffffffff168152602001908152602001600020549050611f3a615d97565b611f42615db9565b60008090505b600080549050811015612ced5773__FastEcMul_____________________________63fcc8f07260405180608001604052808c8560020281518110611f8957fe5b602002602001015181526020018c6001866002020181518110611fa857fe5b602002602001015181526020018b8560020281518110611fc457fe5b602002602001015160000381526020018b6001866002020181518110611fe657fe5b60200260200101516000038152506040518060c00160405280600f60006002811061200d57fe5b01548152602001600f60016002811061202257fe5b01548152602001600181526020016003898154811061203d57fe5b906000526020600020906002020160006002811061205757fe5b015481526020016003898154811061206b57fe5b906000526020600020906002020160016002811061208557fe5b0154815260200160018152506013546016546012546040518663ffffffff1660e01b81526004018086600460200280838360005b838110156120d45780820151818401526020810190506120b9565b5050505090500185600660200280838360005b838110156121025780820151818401526020810190506120e7565b505050509050018481526020018381526020018281526020019550505050505060606040518083038186803b15801561213a57600080fd5b505af415801561214e573d6000803e3d6000fd5b505050506040513d606081101561216457600080fd5b810190808051906020019092919080519060200190929190805190602001909291905050508560006003811061219657fe5b60200201866001600381106121a757fe5b60200201876002600381106121b857fe5b6020020183815250838152508381525050505073__EC____________________________________63cc906d09846000600381106121f257fe5b60200201518560016003811061220457fe5b60200201518660026003811061221657fe5b60200201518a600387028151811061222a57fe5b60200260200101516012546040518663ffffffff1660e01b8152600401808681526020018581526020018481526020018381526020018281526020019550505050505060606040518083038186803b15801561228557600080fd5b505af4158015612299573d6000803e3d6000fd5b505050506040513d60608110156122af57600080fd5b81019080805190602001909291908051906020019092919080519060200190929190505050856000600381106122e157fe5b60200201866001600381106122f257fe5b602002018760026003811061230357fe5b602002018381525083815250838152505050508a816002028151811061232557fe5b60200260200101518360006003811061233a57fe5b602002015114801561237557508a600182600202018151811061235957fe5b60200260200101518360016003811061236e57fe5b6020020151145b6123e7576040517f08c379a00000000000000000000000000000000000000000000000000000000081526004018080602001828103825260208152602001807f566f74652076657269662e206661696c732031737420636f6e646974696f6e2e81525060200191505060405180910390fd5b73__FastEcMul_____________________________63fcc8f07260405180608001604052808c856002028151811061241b57fe5b602002602001015181526020018c600186600202018151811061243a57fe5b602002602001015181526020018b856002028151811061245657fe5b602002602001015181526020018b600186600202018151811061247557fe5b60200260200101518152506040518060c001604052806004898154811061249857fe5b90600052602060002090600202016000600281106124b257fe5b01548152602001600489815481106124c657fe5b90600052602060002090600202016001600281106124e057fe5b0154815260200160018152602001600186815481106124fb57fe5b906000526020600020906002020160006002811061251557fe5b015481526020016001868154811061252957fe5b906000526020600020906002020160016002811061254357fe5b0154815260200160018152506013546016546012546040518663ffffffff1660e01b81526004018086600460200280838360005b83811015612592578082015181840152602081019050612577565b5050505090500185600660200280838360005b838110156125c05780820151818401526020810190506125a5565b505050509050018481526020018381526020018281526020019550505050505060606040518083038186803b1580156125f857600080fd5b505af415801561260c573d6000803e3d6000fd5b505050506040513d606081101561262257600080fd5b810190808051906020019092919080519060200190929190805190602001909291905050508560006003811061265457fe5b602002018660016003811061266557fe5b602002018760026003811061267657fe5b6020020183815250838152508381525050505073__FastEcMul_____________________________63fcc8f07260405180608001604052808b85600202815181106126bd57fe5b602002602001015181526020018b60018660020201815181106126dc57fe5b602002602001015181526020016000815260200160008152506040518060c001604052808b60006002811061270d57fe5b602002015181526020018b60016002811061272457fe5b6020020151815260200160018152602001600f60006002811061274357fe5b01548152602001600f60016002811061275857fe5b0154815260200160018152506013546016546012546040518663ffffffff1660e01b81526004018086600460200280838360005b838110156127a757808201518184015260208101905061278c565b5050505090500185600660200280838360005b838110156127d55780820151818401526020810190506127ba565b505050509050018481526020018381526020018281526020019550505050505060606040518083038186803b15801561280d57600080fd5b505af4158015612821573d6000803e3d6000fd5b505050506040513d606081101561283757600080fd5b810190808051906020019092919080519060200190929190805190602001909291905050508460006006811061286957fe5b602002018560016006811061287a57fe5b602002018660026006811061288b57fe5b6020020183815250838152508381525050505061293e6040518060600160405280846000600681106128b957fe5b60200201518152602001846001600681106128d057fe5b60200201518152602001846002600681106128e757fe5b602002015181525060405180604001604052808d856002028151811061290957fe5b602002602001015181526020018d600186600202018151811061292857fe5b6020026020010151815250601354601254615167565b8460006006811061294b57fe5b602002018560016006811061295c57fe5b602002018660026006811061296d57fe5b6020020183815250838152508381525050505073__EC____________________________________63cc906d09846000600381106129a757fe5b6020020151856001600381106129b957fe5b6020020151866002600381106129cb57fe5b60200201518a60016003880201815181106129e257fe5b60200260200101516012546040518663ffffffff1660e01b8152600401808681526020018581526020018481526020018381526020018281526020019550505050505060606040518083038186803b158015612a3d57600080fd5b505af4158015612a51573d6000803e3d6000fd5b505050506040513d6060811015612a6757600080fd5b8101908080519060200190929190805190602001909291908051906020019092919050505085600060038110612a9957fe5b6020020186600160038110612aaa57fe5b6020020187600260038110612abb57fe5b6020020183815250838152508381525050505073__EC____________________________________63cc906d0983600060068110612af557fe5b602002015184600160068110612b0757fe5b602002015185600260068110612b1957fe5b60200201518a6002600388020181518110612b3057fe5b60200260200101516012546040518663ffffffff1660e01b8152600401808681526020018581526020018481526020018381526020018281526020019550505050505060606040518083038186803b158015612b8b57600080fd5b505af4158015612b9f573d6000803e3d6000fd5b505050506040513d6060811015612bb557600080fd5b8101908080519060200190929190805190602001909291908051906020019092919050505084600060068110612be757fe5b6020020185600160068110612bf857fe5b6020020186600260068110612c0957fe5b6020020183815250838152508381525050505081600060068110612c2957fe5b602002015183600060038110612c3b57fe5b6020020151148015612c6e575081600160068110612c5557fe5b602002015183600160038110612c6757fe5b6020020151145b612ce0576040517f08c379a00000000000000000000000000000000000000000000000000000000081526004018080602001828103825260208152602001807f566f74652076657269662e206661696c7320326e6420636f6e646974696f6e2e81525060200191505060405180910390fd5b8080600101915050611f48565b50604051806040016040528087600060028110612d0657fe5b6020020151815260200187600160028110612d1d57fe5b602002015181525060266000858152602001908152602001600020906002612d46929190615ddb565b50600160086000828254019250508190555050505050505050505050565b60175481565b600f8160028110612d7757fe5b016000915090505481565b60198160038110612d8f57fe5b016000915090505481565b60266020528160005260406000208160028110612db357fe5b01600091509150505481565b600380549050601d541415612e3c576040517f08c379a000000000000000000000000000000000000000000000000000000000815260040180806020018281038252601c8152602001807f524d73206861766520616c7265616479206265656e206275696c742e0000000081525060200191505060405180910390fd5b6018546003805490501015612e9c576040517f08c379a000000000000000000000000000000000000000000000000000000000815260040180806020018281038252602b815260200180615f5d602b913960400191505060405180910390fd5b612ea4615d97565b601f600380602002604051908101604052809291908260038015612edd576020028201915b815481526020019060010190808311612ec9575b505050505090506000601e54601d54019050600380549050811115612f055760038054905090505b6001601d54148015612f28575060185460038054905081612f2257fe5b06600014155b15612f6c57601c8290806001815401808255809150509060018203906000526020600020906003020160009091929091909150906003612f69929190615e1b565b50505b6000601d5490505b8181101561309d576018546001820381612f8a57fe5b0660185460038054905081612f9b57fe5b061415612fe157601c8390806001815401808255809150509060018203906000526020600020906003020160009091929091909150906003612fde929190615e1b565b50505b61304e836003836003805490500381548110612ff957fe5b906000526020600020906002020160028060200260405190810160405280929190826002801561303e576020028201915b81548152602001906001019080831161302a575b5050505050601354601254615167565b8560006003811061305b57fe5b602002018660016003811061306c57fe5b602002018760026003811061307d57fe5b602002018381525083815250838152505050508080600101915050612f74565b5081601f9060036130af929190615e1b565b5080601d819055505050565b6130c3615d97565b6000600954141561310f576040518060600160405280600f6000600281106130e757fe5b01548152602001600f6001600281106130fc57fe5b0154815260200160018152509050613150565b600b600380602002604051908101604052809291908260038015613148576020028201915b815481526020019060010190808311613134575b505050505090505b6000600a546009540190506003805490508111156131715760038054905090505b600060095490505b818110156132b0576000602660008381526020019081526020016000206000600281106131a257fe5b015414156131af576132a3565b6132606040518060600160405280856000600381106131ca57fe5b60200201518152602001856001600381106131e157fe5b60200201518152602001856002600381106131f857fe5b602002015181525060405180604001604052806026600086815260200190815260200160002060006002811061322a57fe5b015481526020016026600086815260200190815260200160002060016002811061325057fe5b0154815250601354601254615167565b8560006003811061326d57fe5b602002018660016003811061327e57fe5b602002018760026003811061328f57fe5b602002018381525083815250838152505050505b8080600101915050613179565b5081600b9060036132c2929190615e1b565b50806009819055505050565b60115481565b60165481565b60226020528060005260406000206000915054906101000a900460ff1681565b600b816003811061330757fe5b016000915090505481565b600380549050601d5414613371576040517f08c379a0000000000000000000000000000000000000000000000000000000008152600401808060200182810382526025815260200180615f386025913960400191505060405180910390fd5b80516018541480613392575080516018546003805490508161338f57fe5b06145b6133e7576040517f08c379a000000000000000000000000000000000000000000000000000000000815260040180806020018281038252602d815260200180615ee7602d913960400191505060405180910390fd5b81516018541480613408575081516018546003805490508161340557fe5b06145b61345d576040517f08c379a000000000000000000000000000000000000000000000000000000000815260040180806020018281038252602d815260200180615f88602d913960400191505060405180910390fd5b613465615d97565b601960038060200260405190810160405280929190826003801561349e576020028201915b81548152602001906001019080831161348a575b5050505050905060606018546040519080825280602002602001820160405280156134e357816020015b6134d0615e5b565b8152602001906001900390816134c85790505b5090506000809050600380549050601854601754011115613516576018546003805490508161350e57fe5b066018540390505b601c60016018546017548161352757fe5b04601c8054905003038154811061353a57fe5b906000526020600020906003020160038060200260405190810160405280929190826003801561357f576020028201915b81548152602001906001019080831161356b575b50505050508260018360185403038151811061359757fe5b602002602001018190525060008160010190505b6018548110156136cd5760008160185403905061363b8482815181106135cd57fe5b602002602001015160038360175401815481106135e657fe5b906000526020600020906002020160028060200260405190810160405280929190826002801561362b576020028201915b815481526020019060010190808311613617575b5050505050601354601254615167565b86600185038151811061364a57fe5b602002602001015160006003811061365e57fe5b6020020187600186038151811061367157fe5b602002602001015160016003811061368557fe5b6020020188600187038151811061369857fe5b60200260200101516002600381106136ac57fe5b602002018381525083815250838152505050505080806001019150506135ab565b5060006018546017540190506003805490508111156136ef5760038054905090505b6136f7615d97565b600060175490505b82811015613b7957806000146137bb57613778866003600184038154811061372357fe5b9060005260206000209060020201600280602002604051908101604052809291908260028015613768576020028201915b815481526020019060010190808311613754575b5050505050601354601254615167565b8860006003811061378557fe5b602002018960016003811061379657fe5b602002018a6002600381106137a757fe5b602002018381525083815250838152505050505b73__EC____________________________________63ea39f4cb876000600381106137e257fe5b6020020151886001600381106137f457fe5b60200201518960026003811061380657fe5b602002015189601854878161381757fe5b068151811061382257fe5b602002602001015160006003811061383657fe5b60200201518a601854888161384757fe5b068151811061385257fe5b602002602001015160016003811061386657fe5b60200201518b601854898161387757fe5b068151811061388257fe5b602002602001015160026003811061389657fe5b60200201518e6017548a03815181106138ab57fe5b60200260200101516012546040518963ffffffff1660e01b8152600401808981526020018881526020018781526020018681526020018581526020018481526020018381526020018281526020019850505050505050505060606040518083038186803b15801561391b57600080fd5b505af415801561392f573d6000803e3d6000fd5b505050506040513d606081101561394557600080fd5b810190808051906020019092919080519060200190929190805190602001909291905050508460006003811061397757fe5b602002018560016003811061398857fe5b602002018660026003811061399957fe5b6020020183815250838152508381525050505073__EC____________________________________63cc906d09836000600381106139d357fe5b6020020151846001600381106139e557fe5b6020020151856002600381106139f757fe5b60200201518c601754870381518110613a0c57fe5b60200260200101516012546040518663ffffffff1660e01b8152600401808681526020018581526020018481526020018381526020018281526020019550505050505060606040518083038186803b158015613a6757600080fd5b505af4158015613a7b573d6000803e3d6000fd5b505050506040513d6060811015613a9157600080fd5b8101908080519060200190929190805190602001909291908051906020019092919050505084600060038110613ac357fe5b6020020185600160038110613ad457fe5b6020020186600260038110613ae557fe5b602002018381525083815250838152505050506004604051806040016040528084600060038110613b1257fe5b6020020151815260200184600160038110613b2957fe5b602002015181525090806001815401808255809150509060018203906000526020600020906002020160009091929091909150906002613b6a929190615ddb565b505080806001019150506136ff565b50846019906003613b8b929190615e1b565b506018546017540160178190555050505050505050565b60038281548110613baf57fe5b90600052602060002090600202018160028110613bc857fe5b01600091509150505481565b60155481565b601f8160038110613be757fe5b016000915090505481565b60055481565b60068181548110613c0557fe5b906000526020600020016000915090505481565b601e5481565b60018281548110613c2c57fe5b90600052602060002090600202018160028110613c4557fe5b01600091509150505481565b60125481565b60135481565b815160026000805490500214613cdb576040517f08c379a00000000000000000000000000000000000000000000000000000000081526004018080602001828103825260148152602001807f496e636f727265637420635f617272206c656e2e00000000000000000000000081525060200191505060405180910390fd5b613ce3615d97565b6040518060600160405280600f600060028110613cfc57fe5b01548152602001600f600160028110613d1157fe5b0154815260200160018152509050613d27615d97565b60008090505b6001805490508110156143e5576001808054905003811415613f915773__FastEcMul_____________________________63fcc8f0726040518060800160405280888560020281518110613d7d57fe5b60200260200101518152602001886001866002020181518110613d9c57fe5b602002602001015181526020016000815260200160008152506040518060c0016040528060018681548110613dcd57fe5b9060005260206000209060020201600060028110613de757fe5b0154815260200160018681548110613dfb57fe5b9060005260206000209060020201600160028110613e1557fe5b0154815260200160018152602001600f600060028110613e3157fe5b01548152602001600f600160028110613e4657fe5b0154815260200160018152506013546016546012546040518663ffffffff1660e01b81526004018086600460200280838360005b83811015613e95578082015181840152602081019050613e7a565b5050505090500185600660200280838360005b83811015613ec3578082015181840152602081019050613ea8565b505050509050018481526020018381526020018281526020019550505050505060606040518083038186803b158015613efb57600080fd5b505af4158015613f0f573d6000803e3d6000fd5b505050506040513d6060811015613f2557600080fd5b8101908080519060200190929190805190602001909291908051906020019092919050505084600060038110613f5757fe5b6020020185600160038110613f6857fe5b6020020186600260038110613f7957fe5b602002018381525083815250838152505050506142b1565b73__FastEcMul_____________________________63fcc8f0726040518060800160405280888560020281518110613fc557fe5b60200260200101518152602001886001866002020181518110613fe457fe5b6020026020010151815260200188600286600202018151811061400357fe5b6020026020010151815260200188600386600202018151811061402257fe5b60200260200101518152506040518060c001604052806001868154811061404557fe5b906000526020600020906002020160006002811061405f57fe5b015481526020016001868154811061407357fe5b906000526020600020906002020160016002811061408d57fe5b01548152602001600181526020016001808701815481106140aa57fe5b90600052602060002090600202016000600281106140c457fe5b015481526020016001808701815481106140da57fe5b90600052602060002090600202016001600281106140f457fe5b0154815260200160018152506013546016546012546040518663ffffffff1660e01b81526004018086600460200280838360005b83811015614143578082015181840152602081019050614128565b5050505090500185600660200280838360005b83811015614171578082015181840152602081019050614156565b505050509050018481526020018381526020018281526020019550505050505060606040518083038186803b1580156141a957600080fd5b505af41580156141bd573d6000803e3d6000fd5b505050506040513d60608110156141d357600080fd5b810190808051906020019092919080519060200190929190805190602001909291905050508460006003811061420557fe5b602002018560016003811061421657fe5b602002018660026003811061422757fe5b6020020183815250838152508381525050505084600282600202018151811061424c57fe5b6020026020010151600e600283600202018154811061426757fe5b906000526020600020018190555084600382600202018151811061428757fe5b6020026020010151600e60038360020201815481106142a257fe5b90600052602060002001819055505b8481600202815181106142c057fe5b6020026020010151600e82600202815481106142d857fe5b90600052602060002001819055508460018260020201815181106142f857fe5b6020026020010151600e600183600202018154811061431357fe5b90600052602060002001819055506143988360006003811061433157fe5b60200201518460016003811061434357fe5b60200201518560026003811061435557fe5b60200201518560006003811061436757fe5b60200201518660016003811061437957fe5b60200201518760026003811061438b57fe5b602002015160125461567f565b856000600381106143a557fe5b60200201866001600381106143b657fe5b60200201876002600381106143c757fe5b60200201838152508381525083815250505050600281019050613d2d565b5073__EC____________________________________63cc906d09600b60006003811061440e57fe5b0154600b60016003811061441e57fe5b0154600b60026003811061442e57fe5b01548760006002811061443d57fe5b60200201516012546040518663ffffffff1660e01b8152600401808681526020018581526020018481526020018381526020018281526020019550505050505060606040518083038186803b15801561449557600080fd5b505af41580156144a9573d6000803e3d6000fd5b505050506040513d60608110156144bf57600080fd5b81019080805190602001909291908051906020019092919080519060200190929190505050600b6000600381106144f257fe5b016000600b60016003811061450357fe5b016000600b60026003811061451457fe5b01600086919050558591905055849190505550505073__EC____________________________________63cc906d098360006003811061455057fe5b60200201518460016003811061456257fe5b60200201518560026003811061457457fe5b60200201518760016002811061458657fe5b60200201516012546040518663ffffffff1660e01b8152600401808681526020018581526020018481526020018381526020018281526020019550505050505060606040518083038186803b1580156145de57600080fd5b505af41580156145f2573d6000803e3d6000fd5b505050506040513d606081101561460857600080fd5b810190808051906020019092919080519060200190929190805190602001909291905050508460006003811061463a57fe5b602002018560016003811061464b57fe5b602002018660026003811061465c57fe5b602002018381525083815250838152505050508160006003811061467c57fe5b6020020151600b60006003811061468f57fe5b01541480156146bd5750816001600381106146a657fe5b6020020151600b6001600381106146b957fe5b0154145b61472f576040517f08c379a00000000000000000000000000000000000000000000000000000000081526004018080602001828103825260208152602001807f496e636f72726563742074616c6c792076616c7565732070726f76696465642e81525060200191505060405180910390fd5b50505050565b61473d615d97565b73__FastEcMul_____________________________63fcc8f07260405180608001604052808960006002811061476f57fe5b602002015181526020018960016002811061478657fe5b602002015181526020018860006002811061479d57fe5b60200201516000038152602001886001600281106147b757fe5b60200201516000038152506040518060c00160405280600f6000600281106147db57fe5b01548152602001600f6001600281106147f057fe5b01548152602001600181526020018c60006002811061480b57fe5b015481526020018c60016002811061481f57fe5b0154815260200160018152506013546016546012546040518663ffffffff1660e01b81526004018086600460200280838360005b8381101561486e578082015181840152602081019050614853565b5050505090500185600660200280838360005b8381101561489c578082015181840152602081019050614881565b505050509050018481526020018381526020018281526020019550505050505060606040518083038186803b1580156148d457600080fd5b505af41580156148e8573d6000803e3d6000fd5b505050506040513d60608110156148fe57600080fd5b810190808051906020019092919080519060200190929190805190602001909291905050508360006003811061493057fe5b602002018460016003811061494157fe5b602002018560026003811061495257fe5b6020020183815250838152508381525050505073__EC____________________________________63cc906d098260006003811061498c57fe5b60200201518360016003811061499e57fe5b6020020151846002600381106149b057fe5b60200201518d6000600281106149c257fe5b60200201516012546040518663ffffffff1660e01b8152600401808681526020018581526020018481526020018381526020018281526020019550505050505060606040518083038186803b158015614a1a57600080fd5b505af4158015614a2e573d6000803e3d6000fd5b505050506040513d6060811015614a4457600080fd5b8101908080519060200190929190805190602001909291908051906020019092919050505083600060038110614a7657fe5b6020020184600160038110614a8757fe5b6020020185600260038110614a9857fe5b6020020183815250838152508381525050505083600060028110614ab857fe5b602002015181600060038110614aca57fe5b6020020151148015614afd575083600160028110614ae457fe5b602002015181600160038110614af657fe5b6020020151145b614b6f576040517f08c379a000000000000000000000000000000000000000000000000000000000815260040180806020018281038252601e8152602001807f46542076657269662e206661696c732031737420636f6e646974696f6e2e000081525060200191505060405180910390fd5b73__FastEcMul_____________________________63fcc8f072604051806080016040528089600060028110614ba157fe5b6020020151815260200189600160028110614bb857fe5b6020020151815260200188600060028110614bcf57fe5b6020020151600003815260200188600160028110614be957fe5b60200201516000038152506040518060c001604052808b600060028110614c0c57fe5b015481526020018b600160028110614c2057fe5b015481526020016001815260200186600060028110614c3b57fe5b6020020151815260200186600160028110614c5257fe5b6020020151815260200160018152506013546016546012546040518663ffffffff1660e01b81526004018086600460200280838360005b83811015614ca4578082015181840152602081019050614c89565b5050505090500185600660200280838360005b83811015614cd2578082015181840152602081019050614cb7565b505050509050018481526020018381526020018281526020019550505050505060606040518083038186803b158015614d0a57600080fd5b505af4158015614d1e573d6000803e3d6000fd5b505050506040513d6060811015614d3457600080fd5b8101908080519060200190929190805190602001909291908051906020019092919050505083600060038110614d6657fe5b6020020184600160038110614d7757fe5b6020020185600260038110614d8857fe5b6020020183815250838152508381525050505073__EC____________________________________63cc906d0982600060038110614dc257fe5b602002015183600160038110614dd457fe5b602002015184600260038110614de657fe5b60200201518d600160028110614df857fe5b60200201516012546040518663ffffffff1660e01b8152600401808681526020018581526020018481526020018381526020018281526020019550505050505060606040518083038186803b158015614e5057600080fd5b505af4158015614e64573d6000803e3d6000fd5b505050506040513d6060811015614e7a57600080fd5b8101908080519060200190929190805190602001909291908051906020019092919050505083600060038110614eac57fe5b6020020184600160038110614ebd57fe5b6020020185600260038110614ece57fe5b6020020183815250838152508381525050505082600060028110614eee57fe5b602002015181600060038110614f0057fe5b6020020151148015614f33575082600160028110614f1a57fe5b602002015181600160038110614f2c57fe5b6020020151145b614fa5576040517f08c379a000000000000000000000000000000000000000000000000000000000815260040180806020018281038252601e8152602001807f46542076657269662e206661696c7320326e6420636f6e646974696f6e2e000081525060200191505060405180910390fd5b505050505050505050565b606080826040519080825280601f01601f191660200182016040528015614fe65781602001600182028038833980820191505090505b50905060008090505b838110156150565784818151811061500357fe5b602001015160f81c60f81b82828151811061501a57fe5b60200101907effffffffffffffffffffffffffffffffffffffffffffffffffffffffffffff1916908160001a9053508080600101915050614fef565b508091505092915050565b60606000600883026101000384901b90506060816040516020018082815260200191505060405160208183030381529060405290506150a08185614fb0565b9250505092915050565b600081518351146150be5760009050615161565b60008090505b835181101561515b578281815181106150d957fe5b602001015160f81c60f81b7effffffffffffffffffffffffffffffffffffffffffffffffffffffffffffff191684828151811061511257fe5b602001015160f81c60f81b7effffffffffffffffffffffffffffffffffffffffffffffffffffffffffffff19161461514e576000915050615161565b80806001019150506150c4565b50600190505b92915050565b6000806000808760026003811061517a57fe5b602002015114156151b9578560006002811061519257fe5b6020020151866001600281106151a457fe5b60200201516001809050925092509250615675565b6000866001600281106151c857fe5b6020020151141561521457866000600381106151e057fe5b6020020151876001600381106151f257fe5b60200201518860026003811061520457fe5b6020020151925092509250615675565b61521c615d97565b615224615e7d565b858061522c57fe5b8960026003811061523957fe5b60200201518a60026003811061524b57fe5b6020020151098160006002811061525e57fe5b602002018181525050858061526f57fe5b8160006002811061527c57fe5b60200201518a60026003811061528e57fe5b602002015109816001600281106152a157fe5b6020020181815250506152b2615e9f565b60405180608001604052808b6000600381106152ca57fe5b602002015181526020018b6001600381106152e157fe5b6020020151815260200188806152f357fe5b8460006002811061530057fe5b60200201518c60006002811061531257fe5b6020020151098152602001888061532557fe5b8460016002811061533257fe5b60200201518c60016002811061534457fe5b60200201510981525090508060026004811061535c57fe5b60200201518160006004811061536e57fe5b6020020151141561547c578060036004811061538657fe5b60200201518160016004811061539857fe5b60200201511461542e576000836000600381106153b157fe5b6020020181815250506000836001600381106153c957fe5b6020020181815250506000836002600381106153e157fe5b602002018181525050826000600381106153f757fe5b60200201518360016003811061540957fe5b60200201518460026003811061541b57fe5b6020020151955095509550505050615675565b61546e8a60006003811061543e57fe5b60200201518b60016003811061545057fe5b60200201518c60026003811061546257fe5b60200201518b8b615bcd565b955095509550505050615675565b6000878061548657fe5b8260006004811061549357fe5b60200201518903836002600481106154a757fe5b6020020151089050600088806154b957fe5b836001600481106154c657fe5b60200201518a03846003600481106154da57fe5b6020020151089050600089806154ec57fe5b838409905060008a806154fb57fe5b848309905060008b8061550a57fe5b828d038d8061551557fe5b8687090890508b8061552357fe5b8c8061552b57fe5b8d8061553357fe5b858960006004811061554157fe5b6020020151096002098d0382089050808860006003811061555e57fe5b6020020181815250508b8061556f57fe5b8c8061557757fe5b828e038e8061558257fe5b868a60006004811061559057fe5b602002015109088509886001600381106155a657fe5b6020020181815250508b806155b757fe5b8c806155bf57fe5b83886001600481106155cd57fe5b6020020151098d03896001600381106155e257fe5b602002015108886001600381106155f557fe5b6020020181815250508b8061560657fe5b8f60026003811061561357fe5b602002015186098860026003811061562757fe5b6020020181815250508760006003811061563d57fe5b60200201518860016003811061564f57fe5b60200201518960026003811061566157fe5b60200201519a509a509a5050505050505050505b9450945094915050565b6000806000808a1480156156935750600089145b156156a657868686925092509250615bc0565b6000871480156156b65750600086145b156156c957898989925092509250615bc0565b6156d1615e9f565b84806156d957fe5b898a09816000600481106156e957fe5b60200201818152505084806156fa57fe5b8160006004811061570757fe5b60200201518a098160016004811061571b57fe5b602002018181525050848061572c57fe5b8687098160026004811061573c57fe5b602002018181525050848061574d57fe5b8160026004811061575a57fe5b602002015187098160036004811061576e57fe5b6020020181815250506040518060800160405280868061578a57fe5b8360026004811061579757fe5b60200201518e09815260200186806157ab57fe5b836003600481106157b857fe5b60200201518d09815260200186806157cc57fe5b836000600481106157d957fe5b60200201518b09815260200186806157ed57fe5b836001600481106157fa57fe5b60200201518a0981525090508060026004811061581357fe5b60200201518160006004811061582557fe5b60200201511415615948578060036004811061583d57fe5b60200201518160016004811061584f57fe5b6020020151146158d25760006158cd576040517f08c379a000000000000000000000000000000000000000000000000000000000815260040180806020018281038252600a8152602001807f57726f6e6720646174610000000000000000000000000000000000000000000081525060200191505060405180910390fd5b615947565b6000615946576040517f08c379a00000000000000000000000000000000000000000000000000000000081526004018080602001828103825260128152602001807f55736520646f75626c6520696e7374656164000000000000000000000000000081525060200191505060405180910390fd5b5b5b615950615e9f565b858061595857fe5b8260006004811061596557fe5b602002015187038360026004811061597957fe5b6020020151088160006004811061598c57fe5b602002018181525050858061599d57fe5b826001600481106159aa57fe5b60200201518703836003600481106159be57fe5b602002015108816001600481106159d157fe5b60200201818152505085806159e257fe5b816000600481106159ef57fe5b602002015182600060048110615a0157fe5b60200201510981600260048110615a1457fe5b6020020181815250508580615a2557fe5b81600060048110615a3257fe5b602002015182600260048110615a4457fe5b60200201510981600360048110615a5757fe5b60200201818152505060008680615a6a57fe5b82600360048110615a7757fe5b602002015188038880615a8657fe5b84600160048110615a9357fe5b602002015185600160048110615aa557fe5b6020020151090890508680615ab657fe5b8780615abe57fe5b8880615ac657fe5b84600260048110615ad357fe5b602002015186600060048110615ae557fe5b60200201510960020988038208905060008780615afe57fe5b8880615b0657fe5b838a038a80615b1157fe5b86600260048110615b1e57fe5b602002015188600060048110615b3057fe5b6020020151090884600160048110615b4457fe5b60200201510990508780615b5457fe5b8880615b5c57fe5b84600360048110615b6957fe5b602002015186600160048110615b7b57fe5b60200201510989038208905060008880615b9157fe5b8980615b9957fe5b8b8f0985600060048110615ba957fe5b602002015109905082828297509750975050505050505b9750975097945050505050565b600080600080861415615be857878787925092509250615d8c565b615bf0615d97565b8480615bf857fe5b898a0981600060038110615c0857fe5b6020020181815250508480615c1957fe5b88890981600160038110615c2957fe5b6020020181815250508480615c3a57fe5b87880981600260038110615c4a57fe5b60200201818152505060008580615c5d57fe5b8680615c6557fe5b83600160038110615c7257fe5b60200201518c09600409905060008680615c8857fe5b8780615c9057fe5b8880615c9857fe5b85600260038110615ca557fe5b602002015186600260038110615cb757fe5b6020020151098a098880615cc757fe5b85600060038110615cd457fe5b602002015160030908905060008780615ce957fe5b8880615cf157fe5b84850889038980615cfe57fe5b84850908905060008880615d0e57fe5b8980615d1657fe5b8a80615d1e57fe5b87600160038110615d2b57fe5b602002015188600160038110615d3d57fe5b6020020151096008098a038a80615d5057fe5b8b80615d5857fe5b858d038808860908905060008980615d6c57fe5b8a80615d7457fe5b8d8f0960020990508282829850985098505050505050505b955095509592505050565b6040518060600160405280600390602082028038833980820191505090505090565b6040518060c00160405280600690602082028038833980820191505090505090565b8260028101928215615e0a579160200282015b82811115615e09578251825591602001919060010190615dee565b5b509050615e179190615ec1565b5090565b8260038101928215615e4a579160200282015b82811115615e49578251825591602001919060010190615e2e565b5b509050615e579190615ec1565b5090565b6040518060600160405280600390602082028038833980820191505090505090565b6040518060400160405280600290602082028038833980820191505090505090565b6040518060800160405280600490602082028038833980820191505090505090565b615ee391905b80821115615edf576000816000905550600101615ec7565b5090565b9056fe4c656e677468206f66206d6f6420696e766572736520636163686520617272617920312069732077726f6e672e53697a65206f662070726f6f6620213d206e756d62206f662063616e646964617465732e52696768206d61726b6572732068617665206e6f74206265656e206275696c74207965742e4d5043206261746368206c6172676572207468616e20746865206e756d626572206f6620766f746572732e4c656e677468206f66206d6f6420696e766572736520636163686520617272617920322069732077726f6e672ea165627a7a7230582030eaf991eca64e41014ab31fde68509fbe5decca3826f49d1a279dc8d79f59970029",
  "source": "// SPDX-License-Identifier: MIT\npragma solidity >=0.4.22 <0.9.0;\n//pragma solidity ^0.8.17;\nimport { EC } from \"./lib/EC.sol\";\nimport { FastEcMul } from \"./lib/FastEcMul.sol\";\n\n// Authors: authors of BBB-voting (https://arxiv.org/pdf/2010.09112.pdf), Ivana Stankov\n// VotingFunc - booth functions (on-chain)\n// definitions of functions delegatecalled from booths\ncontract VotingFunc {\n\n    string[] public candidates;\n    uint[2][] public candidateGens;\n\n    uint votersCnt;\n    uint[2][] public votersPKs;\n    uint[2][] public MpcPKs;\n\n    uint public sizeHash;\n\n    uint[] public notVotedIdxs;\n    uint submittedVotersRepair = 0;\n\n    // compute blinded votes sum batching\n    uint blindedVotesCnt = 0;\n    uint VS_start = 0;\n    uint VS_batch = 1000;\n    uint[3] public blindedVotesSum;\n\n    int[] tally; // stored as pairs of decomposed scalars\n\n    // Secp256k1 curve parameters\n    uint[2] public G = [0x79BE667EF9DCBBAC55A06295CE870B07029BFCDB2DCE28D959F2815B16F81798, 0x483ADA7726A3C4655DA4FBFC0E1108A8FD17B448A68554199C47D08FFB10D4B8]; // common generator for voters - base points\n    uint public NN = 0xFFFFFFFFFFFFFFFFFFFFFFFFFFFFFFFEBAAEDCE6AF48A03BBFD25E8CD0364141; // modulus for private keys (i.e., order of G)\n    uint public PP = 0xFFFFFFFFFFFFFFFFFFFFFFFFFFFFFFFFFFFFFFFFFFFFFFFFFFFFFFFEFFFFFC2F; // modulus for public keys (i.e., field size)\n    uint public A = 0;\n    uint public B = 7;\n    uint public Lambda = 0x5363ad4cc05c30e0a5261c028812645a122e22ea20816678df02967c1b23bd72; // a root of the characteristic polynomial of the endomorphism of the curve\n    uint public Beta = 0x7ae96a2b657c07106e64479eac3434e99cf0497512f58995c1396c28719501ee; // constant on the curve (endomorphism)\n\n    // State preservation for batching of MPC key computation\n    uint public MPC_start = 0; // idx of the voter that is at the begining of batching sliding window\n    uint public MPC_batch; // the size of the batch\n    uint[3] public MPC_act_left = [G[0], G[1], 1];\n    uint[3][] public MPC_right_markers;\n\n    // Batching right side for MPC computation\n    uint public RM_start = 1;\n    uint public RM_batch;\n    uint[3] public RM_act = [G[0], G[1], 1];\n\n    // Mappings\n    mapping(address => bool) public votersWithPK; // mapping of voters that submitted eph. keys\n    mapping(address => uint) public votersPKidx; // mapping of addresses of voters to index in votersPKs array\n    mapping(uint => uint) public lastRepairedIdx; // last faulty index repaired by voter\n    mapping(uint => bool) public submittedRepairKeys;\n    mapping(uint => uint[2]) public blindedVotes;\n\n\n    // Called repeatedly,\n    // precomputes right-side values for MPC keys computation\n    function buildRightMarkers4MPC() public {\n    \n        require(RM_start != votersPKs.length, \"RMs have already been built.\");\n        require(votersPKs.length >= MPC_batch, \"MPC batch larger than the number of voters.\");\n\n        // build the markers in the right table only at the beginning, \n        // while right table would be built always for relevant voters only (using the markers)\n        uint[3] memory right_tmp = RM_act;\n\n        uint RM_end = RM_start + RM_batch;\n        if (RM_end > votersPKs.length) {\n            RM_end = votersPKs.length;\n        }\n\n        // deal with a special case where votersPKs.length is not divisible by the batch size\n        if(RM_start == 1 && 0 != votersPKs.length % MPC_batch) {\n            MPC_right_markers.push(right_tmp);\n        }\n\n        // continue with additions to compute the values of penultimate voter and so on, \n        // until the 1st voter is reached\n        for (uint j = RM_start; j < RM_end; j++) {\n\n            // store marker since it marks the begining of the batch\n            if((votersPKs.length % MPC_batch) == (j - 1) % MPC_batch) {\n                MPC_right_markers.push(right_tmp);\n            }\n\n            // continue in additions to the right item in MPC expression\n            (right_tmp[0], right_tmp[1], right_tmp[2]) = EC.OVN_addMixed(\n                right_tmp,\n                votersPKs[votersPKs.length - j], A, PP\n            );\n        }\n\n        RM_act = right_tmp;\n        RM_start = RM_end;\n    }\n\n    // Called in batches,\n    // computes MPC keys for all voters,\n    // requires precomputed modular inverses\n    // inv_mod_mpc1 - inv mod for right side of substraction\n    // inv_mod_mpc2 - inv mod for result (mpc key)\n    function computeMPCKeys(uint[] memory inv_mod_mpc2, uint[] memory inv_mod_mpc1) public {\n        require(\n            RM_start == votersPKs.length, \n            \"Righ markers have not been built yet.\"\n        );\n        require(\n            MPC_batch == inv_mod_mpc1.length || votersPKs.length % MPC_batch == inv_mod_mpc1.length,\n            \"Length of mod inverse cache array 1 is wrong.\"\n        );\n        require(\n            MPC_batch == inv_mod_mpc2.length || votersPKs.length % MPC_batch == inv_mod_mpc2.length, \n            \"Length of mod inverse cache array 2 is wrong.\"\n        );\n\n        uint[3] memory act_left_m = MPC_act_left;\n        uint[3][] memory right_table = new uint[3][](MPC_batch);\n\n        // build the right table using markers created before\n        uint skipOffset = 0;\n        // skipoffset only applies in the last batch of the case where MPC_batch does not divide ephemeralPKs.length\n        if(MPC_start + MPC_batch > votersPKs.length){\n            skipOffset = (MPC_batch - votersPKs.length % MPC_batch);\n        }\n        right_table[MPC_batch - skipOffset - 1] = MPC_right_markers[MPC_right_markers.length - MPC_start / MPC_batch - 1];\n\n        for (uint j = 1 + skipOffset; j < MPC_batch; j++) {\n            uint idx = MPC_batch - j;\n\n            (right_table[idx - 1][0],\n            right_table[idx - 1][1],\n            right_table[idx - 1][2]\n            ) = EC.OVN_addMixed(\n                right_table[idx],\n                votersPKs[MPC_start + idx], A, PP\n            );\n        }\n\n        // handle the end bound for the main cycle\n        uint end_bound = MPC_start + MPC_batch;\n        if(end_bound > votersPKs.length){\n            end_bound = votersPKs.length;\n        }\n\n        uint[3] memory res;\n        // the main cycle processing the actual batch of voters\n        for (uint i = MPC_start; i < end_bound; i++) {\n\n            if(0 != i){ // accumulate sum of x_j * G, starting by the first voter\n                (act_left_m[0], act_left_m[1], act_left_m[2]) = EC.OVN_addMixed(act_left_m, votersPKs[i - 1], A, PP);\n            }\n\n            // Finally, we do substraction (left - right)\n            (res[0], res[1], res[2]) = EC.ecSub_J_optim(\n                act_left_m[0], act_left_m[1], act_left_m[2],\n                right_table[i % MPC_batch][0],\n                right_table[i % MPC_batch][1],\n                right_table[i % MPC_batch][2],\n                inv_mod_mpc1[i - MPC_start],\n                PP\n            );\n            (res[0], res[1], res[2]) = EC.toAffine3_optim(res[0], res[1], res[2], inv_mod_mpc2[i - MPC_start], PP);\n\n            MpcPKs.push([res[0], res[1]]);\n\n        }\n        MPC_act_left = act_left_m; // update state of MPC batch sliding window at storage\n        MPC_start = MPC_start + MPC_batch;\n    }\n\n    // Called by voter to submit her vote,\n    // requires elements of 1-of-k zero-knowledge proof\n    // requires modular inverses for values comapred in proof validation\n    function submitVote(\n        uint[] memory proof_A,\n        uint[] memory proof_B,\n        int[] memory proof_r,\n        int[] memory proof_d,\n        uint[2] memory vote,\n        uint[] memory mod_invs\n    ) \n        public\n    {\n        require(\n            proof_A.length == 2 * candidates.length &&\n            proof_B.length == 2 * candidates.length &&\n            proof_r.length == 2 * candidates.length &&\n            proof_d.length == 2 * candidates.length,\n            \"Size of proof != numb of candidates.\"\n        );\n  \n        uint dxor = 0; // xor of d_l paramteres\n        for (uint i = 0; i < candidates.length; i++) {\n            uint proof_d_full;\n            // compute d = d1+d2*LAMBDA (mod n) to ensure consistency as part of later hash verification\n            if(proof_d[2 * i + 1] < 0){\n                proof_d_full = NN - mulmod(uint(-proof_d[2 * i + 1]), Lambda, NN);\n            } else {\n                proof_d_full = mulmod(uint(proof_d[2 * i + 1]), Lambda, NN);\n            }\n\n            if(proof_d[2 * i] < 0){\n                proof_d_full = addmod(NN + uint(-proof_d[2 * i]), proof_d_full, NN);\n            } else {\n                proof_d_full = addmod(uint(proof_d[2 * i]), proof_d_full, NN);\n            }\n\n            dxor = dxor ^ proof_d_full;\n        }\n\n        require(areArraysEqual(\n            truncate(abi.encodePacked(keccak256(abi.encodePacked(proof_A, proof_B))), sizeHash),\n            truncateLeadingZeros(bytes32(dxor), sizeHash)),\n            \"C does not match XOR of 'd's.\"\n        );\n    \n        uint idxVoter = votersPKidx[msg.sender];\n        uint[3] memory left;\n        uint[6] memory right;\n\n        for (uint l = 0; l < candidates.length; l++) {\n\n            ///////////////////////////////////\n            // 1) g * {r_l} - X * {d_l} == a_l\n            //    where X := g * x_i    (ephemeral PK)\n            (left[0], left[1], left[2]) = FastEcMul.ecSimMul(\n                [proof_r[2 * l], proof_r[2 * l + 1], -proof_d[2 * l], -proof_d[2 * l + 1]],\n                [G[0], G[1], 1, votersPKs[idxVoter][0], votersPKs[idxVoter][1], 1],\n                A, Beta, PP\n            );\n            (left[0], left[1], left[2]) = EC.toAffine3_optim(left[0], left[1], left[2], mod_invs[l * 3], PP);\n\n            require(left[0] == proof_A[2 * l] && left[1] == proof_A[2 * l + 1], \"Vote verif. fails 1st condition.\");\n\n            ///////////////////////////////////\n            // 2) h * {r_l} + d_l * f_l == b_l + d_l * B_l            // (h = g * Y)\n            (left[0], left[1], left[2]) = FastEcMul.ecSimMul(\n                [proof_r[2 * l], proof_r[2 * l + 1], proof_d[2 * l], proof_d[2 * l + 1]],\n                [MpcPKs[idxVoter][0], MpcPKs[idxVoter][1], 1, candidateGens[l][0], candidateGens[l][1], 1],\n                A, Beta, PP\n            );\n            (right[0], right[1], right[2]) = FastEcMul.ecSimMul(\n                [proof_d[2 * l], proof_d[2 * l + 1], 0, 0],\n                [vote[0], vote[1], 1, G[0], G[1], 1],\n                A, Beta, PP\n            );\n            (right[0], right[1], right[2]) = EC.OVN_addMixed(\n                [right[0], right[1], right[2]],\n                [proof_B[2 * l], proof_B[2 * l + 1]],\n                A, PP\n            );\n\n            (left[0], left[1], left[2]) = EC.toAffine3_optim(left[0], left[1], left[2], mod_invs[l * 3 + 1], PP);\n            (right[0], right[1], right[2]) = EC.toAffine3_optim(right[0], right[1], right[2], mod_invs[l * 3 + 2], PP);\n            require(left[0] == right[0] && left[1] == right[1], \"Vote verif. fails 2nd condition.\");\n        }\n    \n        // store vote\n        blindedVotes[idxVoter] = [vote[0], vote[1]];\n        blindedVotesCnt += 1;\n    }\n\n    // Called by voter to repair her vote,\n    // requires modular inverses for values comapred in proof validation,\n    // requires elements of zero-knowledge proof for each key\n    function repairBlindedVote(\n        uint[] memory mod_invs,\n        int[] memory proof_r,\n        int[] memory h_decomp,\n        uint[] memory proof_m1, \n        uint[] memory proof_m2,  \n        uint[] memory blindedKeys, \n        uint[] memory faultyIdx, \n        uint myIdx\n    )\n        public\n    {\n        require(votersPKidx[msg.sender] == myIdx, \"Idx not a voter.\");\n        require(blindedVotes[myIdx][0] != 0, \"Voter did not vote.\");\n        require(faultyIdx.length * 2 == blindedKeys.length);\n        require (faultyIdx[0] > lastRepairedIdx[myIdx], \"Faulty idx invalid.\");\n\n        for (uint f = 0; f < faultyIdx.length; f++) {\n            require(blindedVotes[faultyIdx[f]][0] == 0, \"Voter not faulty.\");\n\n            FT_verifyZKP(\n                [mod_invs[f * 2], mod_invs[f * 2 + 1]],\n                votersPKs[myIdx], votersPKs[faultyIdx[f]],\n                [proof_r[2 * f], proof_r[2 * f + 1]],\n                [h_decomp[2 * f], h_decomp[2 * f + 1]],\n                [proof_m1[2 * f], proof_m1[2 * f + 1]],\n                [proof_m2[2 * f], proof_m2[2 * f + 1]],\n                [blindedKeys[2 * f], blindedKeys[2 * f + 1]]\n            );\n\n            // blinded key has positive sign (it is on the left from my index)\n            // => we need to subtract it from blinded vote\n            if(faultyIdx[f] < myIdx) {\n                (blindedKeys[2 * f], blindedKeys[2 * f + 1]) = EC.ecInv(\n                    blindedKeys[2 * f], blindedKeys[2 * f + 1], PP\n                );\n            }\n            // else{} blinded key has negative sign (it is on the right from my index)\n            // => we need to add it to blinded vote\n            (blindedVotes[myIdx][0], blindedVotes[myIdx][1]) = EC.ecAdd(\n                blindedVotes[myIdx][0], blindedVotes[myIdx][1],\n                blindedKeys[2 * f], blindedKeys[2 * f + 1],\n                A, PP\n            );\n\n            if(f > 0 && faultyIdx[f - 1] >= faultyIdx[f]){ // ascended ordering must be preserved\n                revert(\"Order of idxs not asc.\");\n            }\n        }\n\n        lastRepairedIdx[myIdx] = faultyIdx[faultyIdx.length - 1];\n\n        if(lastRepairedIdx[myIdx] == notVotedIdxs[notVotedIdxs.length - 1]) {\n            submittedVotersRepair += 1;\n            submittedRepairKeys[myIdx] = true;\n        }\n    }\n\n    function FT_verifyZKP(\n        uint[2] memory mod_invs, \n        uint[2] storage I, \n        uint[2] storage J,\n        int[2] memory proof_r,\n        int[2] memory h_decomp, // decomposed scalars\n        uint[2] memory proof_m1, \n        uint[2] memory proof_m2,\n        uint[2] memory blindedKey\n    ) \n        private\n        view\n    {\n        uint[3] memory left;\n\n        ///////////////////////////////////\n        // 1)   G * r - I * h == m1     // original is G * r == m1 + I * h\n        (left[0], left[1], left[2]) = FastEcMul.ecSimMul(\n            [proof_r[0], proof_r[1], -h_decomp[0], -h_decomp[1]],\n            [G[0], G[1], 1, I[0], I[1], 1],\n            A, Beta, PP\n        );\n        (left[0], left[1], left[2]) = EC.toAffine3_optim(left[0], left[1], left[2], mod_invs[0], PP);\n        require(left[0] == proof_m1[0] && left[1] == proof_m1[1], \"FT verif. fails 1st condition.\");\n\n        ///////////////////////////////////\n        // 2)  J * r - C * h = m2       // original is J * r = m2 + C * h     (C = blinding key = G * x_i * x_j)\n        (left[0], left[1], left[2]) = FastEcMul.ecSimMul(\n            [proof_r[0], proof_r[1], -h_decomp[0], -h_decomp[1]],\n            [J[0], J[1], 1, blindedKey[0], blindedKey[1], 1],\n            A, Beta, PP\n        );\n        (left[0], left[1], left[2]) = EC.toAffine3_optim(left[0], left[1], left[2],  mod_invs[1], PP);\n        require(left[0] == proof_m2[0] && left[1] == proof_m2[1], \"FT verif. fails 2nd condition.\");\n    }\n\n    // Called repeatedly to compute sum of all blinded votes\n    function computeBlindedVotesSum() public {\n        uint[3] memory left;\n        if (VS_start == 0) {\n            left = [G[0], G[1], 1];\n        } else {\n            left = blindedVotesSum;\n        }\n\n        uint VS_end = VS_start + VS_batch;\n        if (VS_end > votersPKs.length) VS_end = votersPKs.length;\n\n        for (uint i = VS_start; i < VS_end; i++) {\n            if(blindedVotes[i][0] == 0) continue;\n\n            (left[0], left[1], left[2]) = EC.OVN_addMixed(\n                [left[0], left[1], left[2]],\n                [blindedVotes[i][0], blindedVotes[i][1]],\n                A, PP\n            );\n        }\n\n        blindedVotesSum = left;\n        VS_start = VS_end;\n    }\n\n    // Verifies tally provided by authority,\n    // requires tally (as decomposed scalars) and modular inverses\n    function computeTally(int[] memory c_decom, uint[2] memory modinv) public {\n        require(candidates.length * 2 == c_decom.length, \"Incorrect c_arr len.\");\n\n        // Verify that sum of B_i == f_1 * c_1 + f_2 * c_2 * ... * f_k * c_k\n\n        // Compute sum of counts * gens (right side)\n        uint[3] memory sum = [G[0], G[1], 1];\n        uint[3] memory right;\n        for (uint l = 0; l < candidateGens.length; l += 2) { // pairwise iteration\n            // in the case of the odd number of candidates, \n            // use neutral feature as the second item for multiplication when processing the last candidate\n            if(l == candidateGens.length - 1) {\n                (right[0], right[1], right[2]) = FastEcMul.ecSimMul(\n                    // take two consecutive decomposed scalars (consisting of 4 items)\n                    [c_decom[2 * l], c_decom[2 * l + 1], 0, 0], \n                    // take 2 consecutive candidate gens\n                    [candidateGens[l][0], candidateGens[l][1], 1, G[0], G[1], 1], \n                    A, Beta, PP\n                );\n            } else { // all other iterations\n                (right[0], right[1], right[2]) = FastEcMul.ecSimMul(\n                    // take two consecutive decomposed scalars (consisting of 4 items)\n                    [c_decom[2 * l], c_decom[2 * l + 1], c_decom[2 * l + 2], c_decom[2 * l + 3]], \n                    // take 2 consecutive candidate gens\n                    [candidateGens[l][0], candidateGens[l][1], 1, candidateGens[l + 1][0], candidateGens[l + 1][1], 1], \n                    A, Beta, PP\n                );\n\n                // 2nd cand in the pair\n                tally[2 * l + 2] = c_decom[2 * l + 2];\n                tally[2 * l + 3] = c_decom[2 * l + 3];\n            }\n\n            // 1st cand in the pair\n            tally[2 * l] = c_decom[2 * l];\n            tally[2 * l + 1] = c_decom[2 * l + 1];\n\n            (sum[0], sum[1], sum[2]) = EC.jacAdd(\n                sum[0], sum[1], sum[2],\n                right[0], right[1], right[2],\n                PP\n            );\n        }\n\n        (blindedVotesSum[0], blindedVotesSum[1], blindedVotesSum[2]) = EC.toAffine3_optim(\n            blindedVotesSum[0], blindedVotesSum[1], blindedVotesSum[2], modinv[0], PP\n        );\n\n        (sum[0], sum[1], sum[2]) = EC.toAffine3_optim(sum[0], sum[1], sum[2], modinv[1], PP);\n\n        require(blindedVotesSum[0] == sum[0] && blindedVotesSum[1] == sum[1], \"Incorrect tally values provided.\");\n    }\n\n    // Helper functions\n    function truncate(bytes memory hash, uint size) internal pure returns (bytes memory) {\n        bytes memory ret = new bytes(size);\n        for(uint i = 0; i < size; i++) {\n            ret[i] = hash[i];\n        }\n        return ret;\n    }\n\n    function truncateLeadingZeros(bytes32 arg, uint size) internal pure returns (bytes memory) {\n        bytes32 shiftedArg = arg << (256 - (size * 8));\n        bytes memory tmp = abi.encodePacked(shiftedArg);\n        return truncate(tmp, size);\n    }\n\n    function areArraysEqual(bytes memory a, bytes memory b) internal pure returns (bool) {\n\n        if(a.length != b.length) return false;\n\n        for(uint i = 0; i < a.length; i++) {\n            if(a[i] != b[i]) return false;\n        }\n        return true;\n    }\n}",
  "sourcePath": "C:\\Users\\tsvon\\Documents\\Projects\\Bakalarka\\smartcontracts\\contracts\\VotingFunc.sol",
  "compiler": {
    "name": "solc",
    "version": "0.5.8+commit.23d335f2.Emscripten.clang"
  },
  "schemaVersion": "3.4.16",
  "updatedAt": "2025-03-03T17:47:28.138Z",
  "networkType": "ethereum",
  "devdoc": {
    "methods": {}
  },
  "userdoc": {
    "methods": {}
  }
}