{
  "contractName": "EC",
  "abi": [
    {
      "constant": true,
      "inputs": [
        {
          "name": "_x",
          "type": "uint256"
        },
        {
          "name": "_pp",
          "type": "uint256"
        }
      ],
      "name": "invMod",
      "outputs": [
        {
          "name": "",
          "type": "uint256"
        }
      ],
      "payable": false,
      "stateMutability": "pure",
      "type": "function"
    },
    {
      "constant": true,
      "inputs": [
        {
          "name": "base",
          "type": "uint256"
        },
        {
          "name": "modulus",
          "type": "uint256"
        },
        {
          "name": "user_result",
          "type": "uint256"
        }
      ],
      "name": "invMod_optim",
      "outputs": [
        {
          "name": "",
          "type": "uint256"
        }
      ],
      "payable": false,
      "stateMutability": "pure",
      "type": "function"
    },
    {
      "constant": true,
      "inputs": [
        {
          "name": "_base",
          "type": "uint256"
        },
        {
          "name": "_exp",
          "type": "uint256"
        },
        {
          "name": "_pp",
          "type": "uint256"
        }
      ],
      "name": "expMod",
      "outputs": [
        {
          "name": "",
          "type": "uint256"
        }
      ],
      "payable": false,
      "stateMutability": "pure",
      "type": "function"
    },
    {
      "constant": true,
      "inputs": [
        {
          "name": "_x",
          "type": "uint256"
        },
        {
          "name": "_y",
          "type": "uint256"
        },
        {
          "name": "_z",
          "type": "uint256"
        },
        {
          "name": "_pp",
          "type": "uint256"
        }
      ],
      "name": "toAffine",
      "outputs": [
        {
          "name": "",
          "type": "uint256"
        },
        {
          "name": "",
          "type": "uint256"
        }
      ],
      "payable": false,
      "stateMutability": "pure",
      "type": "function"
    },
    {
      "constant": true,
      "inputs": [
        {
          "name": "_x",
          "type": "uint256"
        },
        {
          "name": "_y",
          "type": "uint256"
        },
        {
          "name": "_z",
          "type": "uint256"
        },
        {
          "name": "_pp",
          "type": "uint256"
        }
      ],
      "name": "toAffine3",
      "outputs": [
        {
          "name": "",
          "type": "uint256"
        },
        {
          "name": "",
          "type": "uint256"
        },
        {
          "name": "",
          "type": "uint256"
        }
      ],
      "payable": false,
      "stateMutability": "pure",
      "type": "function"
    },
    {
      "constant": true,
      "inputs": [
        {
          "name": "_x",
          "type": "uint256"
        },
        {
          "name": "_y",
          "type": "uint256"
        },
        {
          "name": "_z",
          "type": "uint256"
        },
        {
          "name": "res_of_inv",
          "type": "uint256"
        },
        {
          "name": "_pp",
          "type": "uint256"
        }
      ],
      "name": "toAffine3_optim",
      "outputs": [
        {
          "name": "",
          "type": "uint256"
        },
        {
          "name": "",
          "type": "uint256"
        },
        {
          "name": "",
          "type": "uint256"
        }
      ],
      "payable": false,
      "stateMutability": "pure",
      "type": "function"
    },
    {
      "constant": true,
      "inputs": [
        {
          "name": "_prefix",
          "type": "uint8"
        },
        {
          "name": "_x",
          "type": "uint256"
        },
        {
          "name": "_aa",
          "type": "uint256"
        },
        {
          "name": "_bb",
          "type": "uint256"
        },
        {
          "name": "_pp",
          "type": "uint256"
        }
      ],
      "name": "deriveY",
      "outputs": [
        {
          "name": "",
          "type": "uint256"
        }
      ],
      "payable": false,
      "stateMutability": "pure",
      "type": "function"
    },
    {
      "constant": true,
      "inputs": [
        {
          "name": "_x",
          "type": "uint256"
        },
        {
          "name": "_y",
          "type": "uint256"
        },
        {
          "name": "_aa",
          "type": "uint256"
        },
        {
          "name": "_bb",
          "type": "uint256"
        },
        {
          "name": "_pp",
          "type": "uint256"
        }
      ],
      "name": "isOnCurve",
      "outputs": [
        {
          "name": "",
          "type": "bool"
        }
      ],
      "payable": false,
      "stateMutability": "pure",
      "type": "function"
    },
    {
      "constant": true,
      "inputs": [
        {
          "name": "_x",
          "type": "uint256"
        },
        {
          "name": "_y",
          "type": "uint256"
        },
        {
          "name": "_pp",
          "type": "uint256"
        }
      ],
      "name": "ecInv",
      "outputs": [
        {
          "name": "",
          "type": "uint256"
        },
        {
          "name": "",
          "type": "uint256"
        }
      ],
      "payable": false,
      "stateMutability": "pure",
      "type": "function"
    },
    {
      "constant": true,
      "inputs": [
        {
          "name": "_x1",
          "type": "uint256"
        },
        {
          "name": "_y1",
          "type": "uint256"
        },
        {
          "name": "_x2",
          "type": "uint256"
        },
        {
          "name": "_y2",
          "type": "uint256"
        },
        {
          "name": "_aa",
          "type": "uint256"
        },
        {
          "name": "_pp",
          "type": "uint256"
        }
      ],
      "name": "ecAdd",
      "outputs": [
        {
          "name": "",
          "type": "uint256"
        },
        {
          "name": "",
          "type": "uint256"
        }
      ],
      "payable": false,
      "stateMutability": "pure",
      "type": "function"
    },
    {
      "constant": true,
      "inputs": [
        {
          "name": "_x1",
          "type": "uint256"
        },
        {
          "name": "_y1",
          "type": "uint256"
        },
        {
          "name": "_x2",
          "type": "uint256"
        },
        {
          "name": "_y2",
          "type": "uint256"
        },
        {
          "name": "_aa",
          "type": "uint256"
        },
        {
          "name": "_pp",
          "type": "uint256"
        }
      ],
      "name": "ecSub",
      "outputs": [
        {
          "name": "",
          "type": "uint256"
        },
        {
          "name": "",
          "type": "uint256"
        }
      ],
      "payable": false,
      "stateMutability": "pure",
      "type": "function"
    },
    {
      "constant": true,
      "inputs": [
        {
          "name": "_k",
          "type": "uint256"
        },
        {
          "name": "_x",
          "type": "uint256"
        },
        {
          "name": "_y",
          "type": "uint256"
        },
        {
          "name": "_aa",
          "type": "uint256"
        },
        {
          "name": "_pp",
          "type": "uint256"
        }
      ],
      "name": "ecMul",
      "outputs": [
        {
          "name": "",
          "type": "uint256"
        },
        {
          "name": "",
          "type": "uint256"
        }
      ],
      "payable": false,
      "stateMutability": "pure",
      "type": "function"
    },
    {
      "constant": true,
      "inputs": [
        {
          "name": "_x1",
          "type": "uint256"
        },
        {
          "name": "_y1",
          "type": "uint256"
        },
        {
          "name": "_z1",
          "type": "uint256"
        },
        {
          "name": "_x2",
          "type": "uint256"
        },
        {
          "name": "_y2",
          "type": "uint256"
        },
        {
          "name": "_aa",
          "type": "uint256"
        },
        {
          "name": "_pp",
          "type": "uint256"
        }
      ],
      "name": "ecAdd_J_Mixed",
      "outputs": [
        {
          "name": "x",
          "type": "uint256"
        },
        {
          "name": "y",
          "type": "uint256"
        },
        {
          "name": "z",
          "type": "uint256"
        }
      ],
      "payable": false,
      "stateMutability": "pure",
      "type": "function"
    },
    {
      "constant": true,
      "inputs": [
        {
          "name": "_x1",
          "type": "uint256"
        },
        {
          "name": "_y1",
          "type": "uint256"
        },
        {
          "name": "_z1",
          "type": "uint256"
        },
        {
          "name": "_x2",
          "type": "uint256"
        },
        {
          "name": "_y2",
          "type": "uint256"
        },
        {
          "name": "_z2",
          "type": "uint256"
        },
        {
          "name": "_pp",
          "type": "uint256"
        }
      ],
      "name": "ecSub_J",
      "outputs": [
        {
          "name": "",
          "type": "uint256"
        },
        {
          "name": "",
          "type": "uint256"
        },
        {
          "name": "",
          "type": "uint256"
        }
      ],
      "payable": false,
      "stateMutability": "pure",
      "type": "function"
    },
    {
      "constant": true,
      "inputs": [
        {
          "name": "_x1",
          "type": "uint256"
        },
        {
          "name": "_y1",
          "type": "uint256"
        },
        {
          "name": "_z1",
          "type": "uint256"
        },
        {
          "name": "_x2",
          "type": "uint256"
        },
        {
          "name": "_y2",
          "type": "uint256"
        },
        {
          "name": "_z2",
          "type": "uint256"
        },
        {
          "name": "invmod_result",
          "type": "uint256"
        },
        {
          "name": "_pp",
          "type": "uint256"
        }
      ],
      "name": "ecSub_J_optim",
      "outputs": [
        {
          "name": "",
          "type": "uint256"
        },
        {
          "name": "",
          "type": "uint256"
        },
        {
          "name": "",
          "type": "uint256"
        }
      ],
      "payable": false,
      "stateMutability": "pure",
      "type": "function"
    }
  ],
  "bytecode": "0x6117c7610026600b82828239805160001a60731461001957fe5b30600052607381538281f3fe73000000000000000000000000000000000000000030146080604052600436106100ff5760003560e01c8063ad69caa5116100a1578063cc906d0911610070578063cc906d091461058e578063e0dd01dc14610606578063ea39f4cb14610674578063ff55ab5b1461070b576100ff565b8063ad69caa5146103ca578063ba8ad03114610420578063c4371a1c146104ac578063c5e45aa414610513576100ff565b80634f736305116100dd5780634f7363051461022f5780635bf11ed3146102855780637559d550146103005780638ba5ceeb1461035d576100ff565b80631b54f82414610104578063364b62d51461015057806337103a67146101c1575b600080fd5b61013a6004803603604081101561011a57600080fd5b810190808035906020019092919080359060200190929190505050610797565b6040518082815260200191505060405180910390f35b6101a4600480360360a081101561016657600080fd5b810190808035906020019092919080359060200190929190803590602001909291908035906020019092919080359060200190929190505050610898565b604051808381526020018281526020019250505060405180910390f35b610215600480360360a08110156101d757600080fd5b8101908080359060200190929190803590602001909291908035906020019092919080359060200190929190803590602001909291905050506108d2565b604051808215151515815260200191505060405180910390f35b61026f6004803603606081101561024557600080fd5b81019080803590602001909291908035906020019092919080359060200190929190505050610974565b6040518082815260200191505060405180910390f35b6102e3600480360360c081101561029b57600080fd5b810190808035906020019092919080359060200190929190803590602001909291908035906020019092919080359060200190929190803590602001909291905050506109e3565b604051808381526020018281526020019250505060405180910390f35b6103406004803603606081101561031657600080fd5b81019080803590602001909291908035906020019092919080359060200190929190505050610a17565b604051808381526020018281526020019250505060405180910390f35b6103b4600480360360a081101561037357600080fd5b81019080803560ff16906020019092919080359060200190929190803590602001909291908035906020019092919080359060200190929190505050610a33565b6040518082815260200191505060405180910390f35b61040a600480360360608110156103e057600080fd5b81019080803590602001909291908035906020019092919080359060200190929190505050610ab7565b6040518082815260200191505060405180910390f35b610488600480360360e081101561043657600080fd5b8101908080359060200190929190803590602001909291908035906020019092919080359060200190929190803590602001909291908035906020019092919080359060200190929190505050610bec565b60405180848152602001838152602001828152602001935050505060405180910390f35b6104f6600480360360808110156104c257600080fd5b8101908080359060200190929190803590602001909291908035906020019092919080359060200190929190505050610c41565b604051808381526020018281526020019250505060405180910390f35b610571600480360360c081101561052957600080fd5b81019080803590602001909291908035906020019092919080359060200190929190803590602001909291908035906020019092919080359060200190929190505050610c9c565b604051808381526020018281526020019250505060405180910390f35b6105e2600480360360a08110156105a457600080fd5b810190808035906020019092919080359060200190929190803590602001909291908035906020019092919080359060200190929190505050610d11565b60405180848152602001838152602001828152602001935050505060405180910390f35b6106506004803603608081101561061c57600080fd5b8101908080359060200190929190803590602001909291908035906020019092919080359060200190929190505050610d77565b60405180848152602001838152602001828152602001935050505060405180910390f35b6106e7600480360361010081101561068b57600080fd5b810190808035906020019092919080359060200190929190803590602001909291908035906020019092919080359060200190929190803590602001909291908035906020019092919080359060200190929190505050610ddb565b60405180848152602001838152602001828152602001935050505060405180910390f35b610773600480360360e081101561072157600080fd5b8101908080359060200190929190803590602001909291908035906020019092919080359060200190929190803590602001909291908035906020019092919080359060200190929190505050610e21565b60405180848152602001838152602001828152602001935050505060405180910390f35b6000808314806107a657508183145b806107b15750600082145b1561082b57600061082a576040517f08c379a000000000000000000000000000000000000000000000000000000000815260040180806020018281038252600e8152602001807f496e76616c6964206e756d62657200000000000000000000000000000000000081525060200191505060405180910390fd5b5b60008090506000600190506000849050600086905060005b6000821461088a5781838161085457fe5b04905083878061086057fe5b888061086857fe5b8684098903870880955081965050508182820284038093508194505050610843565b849550505050505092915050565b60008060008060006108af8a8a8a60018b8b610e65565b9250925092506108c183838389610c41565b945094505050509550959350505050565b600085600014806108e257508186145b806108ed5750846000145b806108f757508185145b15610905576000905061096b565b6000828061090f57fe5b86870990506000838061091e57fe5b88858061092757fe5b8a8b090990506000861461094d57838061093d57fe5b848061094557fe5b878a09820890505b6000851461096357838061095d57fe5b85820890505b808214925050505b95945050505050565b60006001838061098057fe5b838609146109d9576040517f08c379a00000000000000000000000000000000000000000000000000000000081526004018080602001828103825260468152602001806117566046913960600191505060405180910390fd5b8190509392505050565b6000806000806109f4888887610a17565b91509150610a068a8a84848a8a610c9c565b935093505050965096945050505050565b600080848385850381610a2657fe5b0691509150935093915050565b6000808280610a3e57fe5b8380610a4657fe5b858580610a4f57fe5b888a09088480610a5b57fe5b8580610a6357fe5b898a098909089050610a838160046001860181610a7c57fe5b0485610ab7565b905060008060028960ff16840181610a9757fe5b0614610aa557818403610aa7565b815b9050809250505095945050505050565b600080841415610aca5760009050610be5565b6000831415610adc5760019050610be5565b6000821415610b5a576000610b59576040517f08c379a000000000000000000000000000000000000000000000000000000000815260040180806020018281038252600f8152602001807f4d6f64756c7573206973207a65726f000000000000000000000000000000000081525060200191505060405180910390fd5b5b60006001905060007f800000000000000000000000000000000000000000000000000000000000000090505b6000811115610bdf57838186161515870a85848509099150836002820486161515870a85848509099150836004820486161515870a85848509099150836008820486161515870a85848509099150601081049050610b86565b81925050505b9392505050565b6000806000868a1415610c1757610c068a8a8a8888610ff9565b809350819450829550505050610c34565b610c278a8a8a8a8a60018a6111c3565b8093508194508295505050505b9750975097945050505050565b6000806000610c508585610797565b905060008480610c5c57fe5b828309905060008580610c6b57fe5b828a09905060008680610c7a57fe5b8780610c8257fe5b8486098a0990508181955095505050505094509492505050565b600080600080905060008090506000809050888b1415610cd557610cc48b8b60018a8a610ff9565b809350819450829550505050610cf3565b610ce68b8b60018c8c60018c6111c3565b8093508194508295505050505b610cff83838389610c41565b94509450505050965096945050505050565b600080600080610d22878688610974565b905060008580610d2e57fe5b828309905060008680610d3d57fe5b828c09905060008780610d4c57fe5b8880610d5457fe5b8486098c0990508181600180905096509650965050505050955095509592505050565b600080600080610d878686610797565b905060008580610d9357fe5b828309905060008680610da257fe5b828b09905060008780610db157fe5b8880610db957fe5b8486098b09905081816001809050965096509650505050509450945094915050565b6000806000610ded8888888888610d11565b809850819950829a505050508684039650610e0d8b8b8b8b8b8b8a6111c3565b925092509250985098509895505050505050565b6000806000610e3287878787610d77565b8097508198508299505050508584039550610e528a8a8a8a8a8a8a6111c3565b9250925092509750975097945050505050565b600080600080899050610e76611711565b8981600060038110610e8457fe5b6020020181815250508881600160038110610e9b57fe5b6020020181815250508781600260038110610eb257fe5b6020020181815250506000809050600080905060006001905060008e1415610ee7578282829750975097505050505050610fed565b5b60008514610fde5760006001861614610f4a57610f3d83838387600060038110610f0e57fe5b602002015188600160038110610f2057fe5b602002015189600260038110610f3257fe5b60200201518f6111c3565b8093508194508295505050505b60028581610f5457fe5b049450610f9784600060038110610f6757fe5b602002015185600160038110610f7957fe5b602002015186600260038110610f8b57fe5b60200201518d8d610ff9565b86600060038110610fa457fe5b6020020187600160038110610fb557fe5b6020020188600260038110610fc657fe5b60200201838152508381525083815250505050610ee8565b82828297509750975050505050505b96509650969350505050565b600080600080861415611014578787879250925092506111b8565b61101c611711565b848061102457fe5b898a098160006003811061103457fe5b602002018181525050848061104557fe5b8889098160016003811061105557fe5b602002018181525050848061106657fe5b8788098160026003811061107657fe5b6020020181815250506000858061108957fe5b868061109157fe5b8360016003811061109e57fe5b60200201518c096004099050600086806110b457fe5b87806110bc57fe5b88806110c457fe5b856002600381106110d157fe5b6020020151866002600381106110e357fe5b6020020151098a0988806110f357fe5b8560006003811061110057fe5b60200201516003090890506000878061111557fe5b888061111d57fe5b8485088903898061112a57fe5b8485090890506000888061113a57fe5b898061114257fe5b8a8061114a57fe5b8760016003811061115757fe5b60200201518860016003811061116957fe5b6020020151096008098a038a8061117c57fe5b8b8061118457fe5b858d03880886090890506000898061119857fe5b8a806111a057fe5b8d8f0960020990508282829850985098505050505050505b955095509592505050565b6000806000808a1480156111d75750600089145b156111ea57868686925092509250611704565b6000871480156111fa5750600086145b1561120d57898989925092509250611704565b611215611733565b848061121d57fe5b898a098160006004811061122d57fe5b602002018181525050848061123e57fe5b8160006004811061124b57fe5b60200201518a098160016004811061125f57fe5b602002018181525050848061127057fe5b8687098160026004811061128057fe5b602002018181525050848061129157fe5b8160026004811061129e57fe5b60200201518709816003600481106112b257fe5b602002018181525050604051806080016040528086806112ce57fe5b836002600481106112db57fe5b60200201518e09815260200186806112ef57fe5b836003600481106112fc57fe5b60200201518d098152602001868061131057fe5b8360006004811061131d57fe5b60200201518b098152602001868061133157fe5b8360016004811061133e57fe5b60200201518a0981525090508060026004811061135757fe5b60200201518160006004811061136957fe5b6020020151141561148c578060036004811061138157fe5b60200201518160016004811061139357fe5b602002015114611416576000611411576040517f08c379a000000000000000000000000000000000000000000000000000000000815260040180806020018281038252600a8152602001807f57726f6e6720646174610000000000000000000000000000000000000000000081525060200191505060405180910390fd5b61148b565b600061148a576040517f08c379a00000000000000000000000000000000000000000000000000000000081526004018080602001828103825260128152602001807f55736520646f75626c6520696e7374656164000000000000000000000000000081525060200191505060405180910390fd5b5b5b611494611733565b858061149c57fe5b826000600481106114a957fe5b60200201518703836002600481106114bd57fe5b602002015108816000600481106114d057fe5b60200201818152505085806114e157fe5b826001600481106114ee57fe5b602002015187038360036004811061150257fe5b6020020151088160016004811061151557fe5b602002018181525050858061152657fe5b8160006004811061153357fe5b60200201518260006004811061154557fe5b6020020151098160026004811061155857fe5b602002018181525050858061156957fe5b8160006004811061157657fe5b60200201518260026004811061158857fe5b6020020151098160036004811061159b57fe5b602002018181525050600086806115ae57fe5b826003600481106115bb57fe5b6020020151880388806115ca57fe5b846001600481106115d757fe5b6020020151856001600481106115e957fe5b60200201510908905086806115fa57fe5b878061160257fe5b888061160a57fe5b8460026004811061161757fe5b60200201518660006004811061162957fe5b6020020151096002098803820890506000878061164257fe5b888061164a57fe5b838a038a8061165557fe5b8660026004811061166257fe5b60200201518860006004811061167457fe5b602002015109088460016004811061168857fe5b6020020151099050878061169857fe5b88806116a057fe5b846003600481106116ad57fe5b6020020151866001600481106116bf57fe5b602002015109890382089050600088806116d557fe5b89806116dd57fe5b8b8f09856000600481106116ed57fe5b602002015109905082828297509750975050505050505b9750975097945050505050565b6040518060600160405280600390602082028038833980820191505090505090565b604051806080016040528060049060208202803883398082019150509050509056fe4d6f64756c617220696e766572736520726573756c742070726f766964656420627920746865207573657220646f6573206e6f74206d617463682074686520706172616d732ea165627a7a72305820a1aee43f253ffaf354350139aa915dfd160488e98d199ddf2b403810b8d6fdca0029",
  "source": "pragma solidity >=0.4.22 <0.9.0;\n//pragma solidity ^0.8.17;\n\n/**\n * @title Elliptic Curve Library\n * @dev Library providing arithmetic operations over elliptic curves.\n * @author Witnet Foundation\n * SPDX-License-Identifier: MIT\n */\nlibrary EC {\n\n  /// @dev Modular euclidean inverse of a number (mod p).\n  /// @param _x The number\n  /// @param _pp The modulus\n  /// @return q such that x*q = 1 (mod _pp)\n  function invMod(uint256 _x, uint256 _pp) public pure returns (uint256) {\n    if (_x == 0 || _x == _pp || _pp == 0) {\n      require(false,  \"Invalid number\");\n    }\n    uint256 q = 0;\n    uint256 newT = 1;\n    uint256 r = _pp;\n    uint256 newR = _x;\n    uint256 t;\n    while (newR != 0) {\n      t = r / newR;\n      (q, newT) = (newT, addmod(q, (_pp - mulmod(t, newT, _pp)), _pp));\n      (r, newR) = (newR, r - t * newR );\n    }\n\n    return q;\n  }\n\n    /** @dev invMod_optim: Takes base, modulus, and result, verifies (base*user_result) % modulus==1, and returns result.\n      *                   It's far cheaper to verify an inverse operation on-chain than calculate it, so we allow the user to pass their own result.\n      *\n      * The idea was find in BigNumber library for solidity (https://github.com/zcoinofficial/solidity-BigNumber)\n      *\n      * parameter: instance base\n      * parameter: instance modulus\n      * parameter: instance user_result\n      * returns: user_result.\n      */\n    function invMod_optim(uint base, uint modulus, uint user_result) public pure returns(uint){\n        require(mulmod(base, user_result, modulus) == 1, \"Modular inverse result provided by the user does not match the params.\");\n        return user_result;\n     }\n\n\n  /// @dev Modular exponentiation, b^e % _pp.\n  /// Source: https://github.com/androlo/standard-contracts/blob/master/contracts/src/crypto/ECCMath.sol\n  /// @param _base base\n  /// @param _exp exponent\n  /// @param _pp modulus\n  /// @return r such that r = b**e (mod _pp)\n  function expMod(uint256 _base, uint256 _exp, uint256 _pp) public pure returns (uint256) {\n    if (_base == 0)\n      return 0;\n    if (_exp == 0)\n      return 1;\n    if (_pp == 0)\n      require(false,  \"Modulus is zero\");\n    uint256 r = 1;\n    uint256 bit = 2 ** 255;\n\n    assembly {\n      for { } gt(bit, 0) { }{\n        r := mulmod(mulmod(r, r, _pp), exp(_base, iszero(iszero(and(_exp, bit)))), _pp)\n        r := mulmod(mulmod(r, r, _pp), exp(_base, iszero(iszero(and(_exp, div(bit, 2))))), _pp)\n        r := mulmod(mulmod(r, r, _pp), exp(_base, iszero(iszero(and(_exp, div(bit, 4))))), _pp)\n        r := mulmod(mulmod(r, r, _pp), exp(_base, iszero(iszero(and(_exp, div(bit, 8))))), _pp)\n        bit := div(bit, 16)\n      }\n    }\n\n    return r;\n  }\n\n  /// @dev Converts a point (x, y, z) expressed in Jacobian coordinates to affine coordinates (x', y', 1).\n  /// @param _x coordinate x\n  /// @param _y coordinate y\n  /// @param _z coordinate z\n  /// @param _pp the modulus\n  /// @return (x', y') affine coordinates\n  function toAffine(\n    uint256 _x,\n    uint256 _y,\n    uint256 _z,\n    uint256 _pp)\n  public pure returns (uint256, uint256)\n  {\n    uint256 zInv = invMod(_z, _pp);\n    uint256 zInv2 = mulmod(zInv, zInv, _pp);\n    uint256 x2 = mulmod(_x, zInv2, _pp);\n    uint256 y2 = mulmod(_y, mulmod(zInv, zInv2, _pp), _pp);\n\n    return (x2, y2);\n  }\n\n  function toAffine3(\n    uint256 _x,\n    uint256 _y,\n    uint256 _z,\n    uint256 _pp)\n  public pure returns (uint256, uint256, uint256)\n  {\n    uint256 zInv = invMod(_z, _pp);\n    // uint256 zInv = mulmod(_z, _y, _pp);\n    uint256 zInv2 = mulmod(zInv, zInv, _pp);\n    uint256 x2 = mulmod(_x, zInv2, _pp);\n    uint256 y2 = mulmod(_y, mulmod(zInv, zInv2, _pp), _pp);\n\n    return (x2, y2, 1);\n  }\n\n  function toAffine3_optim(\n    uint256 _x,\n    uint256 _y,\n    uint256 _z,\n    uint256 res_of_inv,\n    uint256 _pp)\n  public pure returns (uint256, uint256, uint256)\n  {\n    uint256 zInv = invMod_optim(_z, _pp, res_of_inv);\n    uint256 zInv2 = mulmod(zInv, zInv, _pp);\n    uint256 x2 = mulmod(_x, zInv2, _pp);\n    uint256 y2 = mulmod(_y, mulmod(zInv, zInv2, _pp), _pp);\n\n    return (x2, y2, 1);\n  }\n\n  /// @dev Derives the y coordinate from a compressed-format point x.\n  /// @param _prefix parity byte (0x02 even, 0x03 odd)\n  /// @param _x coordinate x\n  /// @param _aa constant of curve\n  /// @param _bb constant of curve\n  /// @param _pp the modulus\n  /// @return y coordinate y\n  function deriveY(\n    uint8 _prefix,\n    uint256 _x,\n    uint256 _aa,\n    uint256 _bb,\n    uint256 _pp)\n  public pure returns (uint256)\n  {\n    // x^3 + ax + b\n    uint256 y2 = addmod(mulmod(_x, mulmod(_x, _x, _pp), _pp), addmod(mulmod(_x, _aa, _pp), _bb, _pp), _pp);\n    y2 = expMod(y2, (_pp + 1) / 4, _pp);\n    // uint256 cmp = yBit ^ y_ & 1;\n    uint256 y = (y2 + _prefix) % 2 == 0 ? y2 : _pp - y2;\n\n    return y;\n  }\n\n  /// @dev Check whether point (x,y) is on curve defined by a, b, and _pp.\n  /// @param _x coordinate x of P1\n  /// @param _y coordinate y of P1\n  /// @param _aa constant of curve\n  /// @param _bb constant of curve\n  /// @param _pp the modulus\n  /// @return true if x,y in the curve, false else\n  function isOnCurve(\n    uint _x,\n    uint _y,\n    uint _aa,\n    uint _bb,\n    uint _pp)\n  public pure returns (bool)\n  {\n    if (0 == _x || _x == _pp || 0 == _y || _y == _pp) {\n      return false;\n    }\n    // y^2\n    uint lhs = mulmod(_y, _y, _pp);\n    // x^3\n    uint rhs = mulmod(mulmod(_x, _x, _pp), _x, _pp);\n    if (_aa != 0) {\n      // x^3 + a*x\n      rhs = addmod(rhs, mulmod(_x, _aa, _pp), _pp);\n    }\n    if (_bb != 0) {\n      // x^3 + a*x + b\n      rhs = addmod(rhs, _bb, _pp);\n    }\n\n    return lhs == rhs;\n  }\n\n  /// @dev Calculate inverse (x, -y) of point (x, y).\n  /// @param _x coordinate x of P1\n  /// @param _y coordinate y of P1\n  /// @param _pp the modulus\n  /// @return (x, -y)\n  function ecInv(\n    uint256 _x,\n    uint256 _y,\n    uint256 _pp)\n  public pure returns (uint256, uint256)\n  {\n    return (_x, (_pp - _y) % _pp);\n  }\n\n  /// @dev Add two points (x1, y1) and (x2, y2) in affine coordinates.\n  /// @param _x1 coordinate x of P1\n  /// @param _y1 coordinate y of P1\n  /// @param _x2 coordinate x of P2\n  /// @param _y2 coordinate y of P2\n  /// @param _aa constant of the curve\n  /// @param _pp the modulus\n  /// @return (qx, qy) = P1+P2 in affine coordinates\n  function ecAdd(\n    uint256 _x1,\n    uint256 _y1,\n    uint256 _x2,\n    uint256 _y2,\n    uint256 _aa,\n    uint256 _pp)\n    public pure returns(uint256, uint256)\n  {\n    uint x = 0;\n    uint y = 0;\n    uint z = 0;\n    // Double if x1==x2 else add\n    if (_x1==_x2) {\n      (x, y, z) = jacDouble(\n        _x1,\n        _y1,\n        1,\n        _aa,\n        _pp);\n    } else {\n      (x, y, z) = jacAdd(\n        _x1,\n        _y1,\n        1,\n        _x2,\n        _y2,\n        1,\n        _pp);\n    }\n    // Get back to affine\n    return toAffine(\n      x,\n      y,\n      z,\n      _pp);\n  }\n\n  /// @dev Substract two points (x1, y1) and (x2, y2) in affine coordinates.\n  /// @param _x1 coordinate x of P1\n  /// @param _y1 coordinate y of P1\n  /// @param _x2 coordinate x of P2\n  /// @param _y2 coordinate y of P2\n  /// @param _aa constant of the curve\n  /// @param _pp the modulus\n  /// @return (qx, qy) = P1-P2 in affine coordinates\n  function ecSub(\n    uint256 _x1,\n    uint256 _y1,\n    uint256 _x2,\n    uint256 _y2,\n    uint256 _aa,\n    uint256 _pp)\n  public pure returns(uint256, uint256)\n  {\n    // invert square\n    (uint256 x, uint256 y) = ecInv(_x2, _y2, _pp);\n    // P1-square\n    return ecAdd(\n      _x1,\n      _y1,\n      x,\n      y,\n      _aa,\n      _pp);\n  }\n\n  /// @dev Multiply point (x1, y1, z1) times d in affine coordinates.\n  /// @param _k scalar to multiply\n  /// @param _x coordinate x of P1\n  /// @param _y coordinate y of P1\n  /// @param _aa constant of the curve\n  /// @param _pp the modulus\n  /// @return (qx, qy) = d*P in affine coordinates\n  function ecMul(\n    uint256 _k,\n    uint256 _x,\n    uint256 _y,\n    uint256 _aa,\n    uint256 _pp)\n  public pure returns(uint256, uint256)\n  {\n    // Jacobian multiplication\n    (uint256 x1, uint256 y1, uint256 z1) = jacMul(\n      _k,\n      _x,\n      _y,\n      1,\n      _aa,\n      _pp);\n    // Get back to affine\n    return toAffine(\n      x1,\n      y1,\n      z1,\n      _pp);\n  }\n\n  /// @dev Adds two points (x1, y1, z1) and (x2 y2, z2).\n  /// @param _x1 coordinate x of P1\n  /// @param _y1 coordinate y of P1\n  /// @param _z1 coordinate z of P1\n  /// @param _x2 coordinate x of square\n  /// @param _y2 coordinate y of square\n  /// @param _z2 coordinate z of square\n  /// @param _pp the modulus\n  /// @return (qx, qy, qz) P1+square in Jacobian\n  function jacAdd(\n    uint256 _x1,\n    uint256 _y1,\n    uint256 _z1,\n    uint256 _x2,\n    uint256 _y2,\n    uint256 _z2,\n    uint256 _pp)\n  internal pure returns (uint256, uint256, uint256)\n  {\n    if ((_x1==0)&&(_y1==0))\n      return (_x2, _y2, _z2);\n    if ((_x2==0)&&(_y2==0))\n      return (_x1, _y1, _z1);\n    // We follow the equations described in https://pdfs.semanticscholar.org/5c64/29952e08025a9649c2b0ba32518e9a7fb5c2.pdf Section 5\n\n    uint[4] memory zs; // z1^2, z1^3, z2^2, z2^3\n    zs[0] = mulmod(_z1, _z1, _pp);\n    zs[1] = mulmod(_z1, zs[0], _pp);\n    zs[2] = mulmod(_z2, _z2, _pp);\n    zs[3] = mulmod(_z2, zs[2], _pp);\n\n    // u1, s1, u2, s2\n    zs = [\n      mulmod(_x1, zs[2], _pp),\n      mulmod(_y1, zs[3], _pp),\n      mulmod(_x2, zs[0], _pp),\n      mulmod(_y2, zs[1], _pp)\n    ];\n    if (zs[0] == zs[2]) {\n      if (zs[1] != zs[3])\n        require(false,  \"Wrong data\");\n      else {\n        require(false,  \"Use double instead\");\n      }\n    }\n    uint[4] memory hr;\n    //h\n    hr[0] = addmod(zs[2], _pp - zs[0], _pp);\n    //r\n    hr[1] = addmod(zs[3], _pp - zs[1], _pp);\n    //h^2\n    hr[2] = mulmod(hr[0], hr[0], _pp);\n    // h^3\n    hr[3] = mulmod(hr[2], hr[0], _pp);\n    // qx = -h^3  -2u1h^2+r^2\n    uint256 qx = addmod(mulmod(hr[1], hr[1], _pp), _pp - hr[3], _pp);\n    qx = addmod(qx, _pp - mulmod(2, mulmod(zs[0], hr[2], _pp), _pp), _pp);\n    // qy = -s1*z1*h^3+r(u1*h^2 -x^3)\n    uint256 qy = mulmod(hr[1], addmod(mulmod(zs[0], hr[2], _pp), _pp - qx, _pp), _pp);\n    qy = addmod(qy, _pp - mulmod(zs[1], hr[3], _pp), _pp);\n    // qz = h*z1*z2\n    uint256 qz = mulmod(hr[0], mulmod(_z1, _z2, _pp), _pp);\n    return(qx, qy, qz);\n  }\n\n  /// @dev Doubles a points (x, y, z).\n  /// @param _x coordinate x of P1\n  /// @param _y coordinate y of P1\n  /// @param _z coordinate z of P1\n  /// @param _pp the modulus\n  /// @param _aa the a scalar in the curve equation\n  /// @return (qx, qy, qz) 2P in Jacobian\n  function jacDouble(\n    uint256 _x,\n    uint256 _y,\n    uint256 _z,\n    uint256 _aa,\n    uint256 _pp)\n  internal pure returns (uint256, uint256, uint256)\n  {\n    if (_z == 0)\n      return (_x, _y, _z);\n    uint256[3] memory square;\n    // We follow the equations described in https://pdfs.semanticscholar.org/5c64/29952e08025a9649c2b0ba32518e9a7fb5c2.pdf Section 5\n    // Note: there is a bug in the paper regarding the m parameter, M=3*(x1^2)+a*(z1^4)\n    square[0] = mulmod(_x, _x, _pp); //x1^2\n    square[1] = mulmod(_y, _y, _pp); //y1^2\n    square[2] = mulmod(_z, _z, _pp); //z1^2\n\n    // s\n    uint s = mulmod(4, mulmod(_x, square[1], _pp), _pp);\n    // m\n    uint m = addmod(mulmod(3, square[0], _pp), mulmod(_aa, mulmod(square[2], square[2], _pp), _pp), _pp);\n    // qx\n    uint256 qx = addmod(mulmod(m, m, _pp), _pp - addmod(s, s, _pp), _pp);\n    // qy = -8*y1^4 + M(S-T)\n    uint256 qy = addmod(mulmod(m, addmod(s, _pp - qx, _pp), _pp), _pp - mulmod(8, mulmod(square[1], square[1], _pp), _pp), _pp);\n    // qz = 2*y1*z1\n    uint256 qz = mulmod(2, mulmod(_y, _z, _pp), _pp);\n\n    return (qx, qy, qz);\n  }\n\n  /// @dev Multiply point (x, y, z) times d.\n  /// @param _d scalar to multiply\n  /// @param _x coordinate x of P1\n  /// @param _y coordinate y of P1\n  /// @param _z coordinate z of P1\n  /// @param _aa constant of curve\n  /// @param _pp the modulus\n  /// @return (qx, qy, qz) d*P1 in Jacobian\n  function jacMul(\n    uint256 _d,\n    uint256 _x,\n    uint256 _y,\n    uint256 _z,\n    uint256 _aa,\n    uint256 _pp)\n  internal pure returns (uint256, uint256, uint256)\n  {\n    uint256 remaining = _d;\n    uint256[3] memory point;\n    point[0] = _x;\n    point[1] = _y;\n    point[2] = _z;\n    uint256 qx = 0;\n    uint256 qy = 0;\n    uint256 qz = 1;\n\n    if (_d == 0) {\n      return (qx, qy, qz);\n    }\n    // Double and add algorithm\n    while (remaining != 0) {\n      if ((remaining & 1) != 0) {\n        (qx, qy, qz) = jacAdd(\n          qx,\n          qy,\n          qz,\n          point[0],\n          point[1],\n          point[2],\n          _pp);\n      }\n      remaining = remaining / 2;\n      (point[0], point[1], point[2]) = jacDouble(\n        point[0],\n        point[1],\n        point[2],\n        _aa,\n        _pp);\n    }\n    return (qx, qy, qz);\n  }\n\n  /// some optimized functions working with Jacobi coordinates\n\n  function ecAdd_J_Mixed(\n    uint256 _x1,\n    uint256 _y1,\n    uint256 _z1,\n    uint256 _x2,\n    uint256 _y2,\n    uint256 _aa,\n    uint256 _pp)\n    public pure returns(uint256 x, uint256 y, uint256 z)\n  {\n    // Double if x1==x2 else add\n    if (_x1==_x2) {\n      (x, y, z) = jacDouble(\n        _x1,\n        _y1,\n        _z1,\n        _aa,\n        _pp);\n    } else {\n      (x, y, z) = jacAdd(\n        _x1,\n        _y1,\n        _z1,\n        _x2,\n        _y2,\n        1,\n        _pp);\n    }\n  }\n\n  function ecSub_J(\n    uint256 _x1,\n    uint256 _y1,\n    uint256 _z1,\n    uint256 _x2,\n    uint256 _y2,\n    uint256 _z2,\n    uint256 _pp)\n  public pure returns(uint256, uint256, uint256)\n  {\n    // invert square\n    (_x2, _y2, _z2) =  toAffine3(_x2, _y2, _z2, _pp);\n    _y2 = _pp - _y2;\n\n    // P1-square\n    return jacAdd(\n        _x1,\n        _y1,\n        _z1,\n        _x2,\n        _y2,\n        _z2,\n        _pp);\n  }\n\n function ecSub_J_optim(\n    uint256 _x1,\n    uint256 _y1,\n    uint256 _z1,\n    uint256 _x2,\n    uint256 _y2,\n    uint256 _z2,\n    uint256 invmod_result,\n    uint256 _pp)\n  public pure returns(uint256, uint256, uint256)\n  {\n    // invert square\n    (_x2, _y2, _z2) =  toAffine3_optim(_x2, _y2, _z2, invmod_result, _pp);\n    _y2 = _pp - _y2;\n\n    // P1-square\n    return jacAdd(\n        _x1,\n        _y1,\n        _z1,\n        _x2,\n        _y2,\n        _z2,\n        _pp);\n  }\n\n  function OVN_add(uint aa, uint[3] memory P, uint[3] memory Q, uint p) internal pure returns (uint, uint, uint) { // a moved to beginning due to stack deep error; a is not used in the later parts of func\n        if(P[2] == 0)\n            return (Q[0], Q[1], Q[2]);\n        if(Q[2] == 0)\n            return (P[0], P[1], P[2]);\n\n        uint[3] memory R;\n        uint[4] memory zs; // Pz^2, Pz^3, Qz^2, Qz^3\n        zs[0] = mulmod(P[2], P[2], p);\n        zs[1] = mulmod(P[2], zs[0], p);\n        zs[2] = mulmod(Q[2], Q[2], p);\n        zs[3] = mulmod(Q[2], zs[2], p);\n        uint[4] memory us = [\n            mulmod(P[0], zs[2], p),\n            mulmod(P[1], zs[3], p),\n            mulmod(Q[0], zs[0], p),\n            mulmod(Q[1], zs[1], p)\n        ]; // Pu, Ps, Qu, Qs\n        if (us[0] == us[2]) {\n            if (us[1] != us[3]){\n                uint[3] memory rt;\n                return (rt[0], rt[1], rt[2]);\n\n            } else {\n                return jacDouble(P[0], P[1], P[2], aa, p);\n            }\n        }\n\n        uint[3] memory h123; // h values were merged together to avoid stack too deep error.\n        h123[0] = addmod(us[2], p - us[0], p);\n        h123[1] = mulmod(h123[0], h123[0], p);\n        h123[2] = mulmod(h123[1], h123[0], p);\n\n        uint r = addmod(us[3], p - us[1], p);\n        uint Rx = addmod(mulmod(r, r, p), p - h123[2], p);\n        Rx = addmod(Rx, p - mulmod(2, mulmod(us[0], h123[1], p), p), p);\n        R[0] = Rx;\n        R[1] = mulmod(r, addmod(mulmod(us[0], h123[1], p), p - Rx, p), p);\n        R[1] = addmod(R[1], p - mulmod(us[1], h123[2], p), p);\n        R[2] = mulmod(h123[0], mulmod(P[2], Q[2], p), p);\n        return (R[0], R[1], R[2]);\n    }\n\n\n  function OVN_addMixed(uint[3] memory P, uint[2] memory Q, uint aa, uint p) internal pure returns (uint, uint, uint) {\n        if(P[2] == 0)\n            return (Q[0], Q[1], 1);\n        if(Q[1] == 0)\n            return (P[0], P[1], P[2]);\n\n        uint[3] memory R;\n        uint[2] memory zs; // Pz^2, Pz^3, Qz^2, Qz^3\n        zs[0] = mulmod(P[2], P[2], p);\n        zs[1] = mulmod(P[2], zs[0], p);\n        uint[4] memory us = [\n            P[0],\n            P[1],\n            mulmod(Q[0], zs[0], p),\n            mulmod(Q[1], zs[1], p)\n        ]; // Pu, Ps, Qu, Qs\n        if (us[0] == us[2]) {\n            if (us[1] != us[3]) {\n                R[0] = 0;\n                R[1] = 0;\n                R[2] = 0;\n                return (R[0], R[1], R[2]);\n            }\n            else {\n                 return jacDouble(P[0], P[1], P[2], aa, p);\n            }\n        }\n        uint h = addmod(us[2], p - us[0], p);\n        uint r = addmod(us[3], p - us[1], p);\n        uint h2 = mulmod(h, h, p);\n        uint h3 = mulmod(h2, h, p);\n        uint Rx = addmod(mulmod(r, r, p), p - h3, p);\n        Rx = addmod(Rx, p - mulmod(2, mulmod(us[0], h2, p), p), p);\n        R[0] = Rx;\n        R[1] = mulmod(r, addmod(mulmod(us[0], h2, p), p - Rx, p), p);\n        R[1] = addmod(R[1], p - mulmod(us[1], h3, p), p);\n        R[2] = mulmod(h, P[2], p);\n        return (R[0], R[1], R[2]);\n    }\n\n}\n\n\n",
  "sourcePath": "C:\\Users\\tsvon\\Documents\\Projects\\Bakalarka\\smartcontracts\\contracts\\lib\\EC.sol",
  "compiler": {
    "name": "solc",
    "version": "0.5.8+commit.23d335f2.Emscripten.clang"
  },
  "schemaVersion": "3.4.16",
  "updatedAt": "2025-02-08T17:26:49.526Z",
  "networkType": "ethereum",
  "devdoc": {
    "author": "Witnet Foundation SPDX-License-Identifier: MIT",
    "details": "Library providing arithmetic operations over elliptic curves.",
    "methods": {
      "deriveY(uint8,uint256,uint256,uint256,uint256)": {
        "details": "Derives the y coordinate from a compressed-format point x.",
        "params": {
          "_aa": "constant of curve",
          "_bb": "constant of curve",
          "_pp": "the modulus",
          "_prefix": "parity byte (0x02 even, 0x03 odd)",
          "_x": "coordinate x"
        },
        "return": "y coordinate y"
      },
      "ecAdd(uint256,uint256,uint256,uint256,uint256,uint256)": {
        "details": "Add two points (x1, y1) and (x2, y2) in affine coordinates.",
        "params": {
          "_aa": "constant of the curve",
          "_pp": "the modulus",
          "_x1": "coordinate x of P1",
          "_x2": "coordinate x of P2",
          "_y1": "coordinate y of P1",
          "_y2": "coordinate y of P2"
        },
        "return": "(qx, qy) = P1+P2 in affine coordinates"
      },
      "ecInv(uint256,uint256,uint256)": {
        "details": "Calculate inverse (x, -y) of point (x, y).",
        "params": {
          "_pp": "the modulus",
          "_x": "coordinate x of P1",
          "_y": "coordinate y of P1"
        },
        "return": "(x, -y)"
      },
      "ecMul(uint256,uint256,uint256,uint256,uint256)": {
        "details": "Multiply point (x1, y1, z1) times d in affine coordinates.",
        "params": {
          "_aa": "constant of the curve",
          "_k": "scalar to multiply",
          "_pp": "the modulus",
          "_x": "coordinate x of P1",
          "_y": "coordinate y of P1"
        },
        "return": "(qx, qy) = d*P in affine coordinates"
      },
      "ecSub(uint256,uint256,uint256,uint256,uint256,uint256)": {
        "details": "Substract two points (x1, y1) and (x2, y2) in affine coordinates.",
        "params": {
          "_aa": "constant of the curve",
          "_pp": "the modulus",
          "_x1": "coordinate x of P1",
          "_x2": "coordinate x of P2",
          "_y1": "coordinate y of P1",
          "_y2": "coordinate y of P2"
        },
        "return": "(qx, qy) = P1-P2 in affine coordinates"
      },
      "expMod(uint256,uint256,uint256)": {
        "details": "Modular exponentiation, b^e % _pp. Source: https://github.com/androlo/standard-contracts/blob/master/contracts/src/crypto/ECCMath.sol",
        "params": {
          "_base": "base",
          "_exp": "exponent",
          "_pp": "modulus"
        },
        "return": "r such that r = b**e (mod _pp)"
      },
      "invMod(uint256,uint256)": {
        "details": "Modular euclidean inverse of a number (mod p).",
        "params": {
          "_pp": "The modulus",
          "_x": "The number"
        },
        "return": "q such that x*q = 1 (mod _pp)"
      },
      "invMod_optim(uint256,uint256,uint256)": {
        "details": "invMod_optim: Takes base, modulus, and result, verifies (base*user_result) % modulus==1, and returns result.                  It's far cheaper to verify an inverse operation on-chain than calculate it, so we allow the user to pass their own result.      * The idea was find in BigNumber library for solidity (https://github.com/zcoinofficial/solidity-BigNumber)      * parameter: instance base parameter: instance modulus parameter: instance user_result returns: user_result."
      },
      "isOnCurve(uint256,uint256,uint256,uint256,uint256)": {
        "details": "Check whether point (x,y) is on curve defined by a, b, and _pp.",
        "params": {
          "_aa": "constant of curve",
          "_bb": "constant of curve",
          "_pp": "the modulus",
          "_x": "coordinate x of P1",
          "_y": "coordinate y of P1"
        },
        "return": "true if x,y in the curve, false else"
      },
      "toAffine(uint256,uint256,uint256,uint256)": {
        "details": "Converts a point (x, y, z) expressed in Jacobian coordinates to affine coordinates (x', y', 1).",
        "params": {
          "_pp": "the modulus",
          "_x": "coordinate x",
          "_y": "coordinate y",
          "_z": "coordinate z"
        },
        "return": "(x', y') affine coordinates"
      }
    },
    "title": "Elliptic Curve Library"
  },
  "userdoc": {
    "methods": {
      "ecAdd_J_Mixed(uint256,uint256,uint256,uint256,uint256,uint256,uint256)": {
        "notice": "some optimized functions working with Jacobi coordinates"
      }
    }
  }
}