{
  "contractName": "VotingBoothC",
  "abi": [
    {
      "constant": true,
      "inputs": [
        {
          "name": "",
          "type": "address"
        }
      ],
      "name": "votersPKidx",
      "outputs": [
        {
          "name": "",
          "type": "uint256"
        }
      ],
      "payable": false,
      "stateMutability": "view",
      "type": "function"
    },
    {
      "constant": true,
      "inputs": [
        {
          "name": "",
          "type": "uint256"
        },
        {
          "name": "",
          "type": "uint256"
        }
      ],
      "name": "MpcPKs",
      "outputs": [
        {
          "name": "",
          "type": "uint256"
        }
      ],
      "payable": false,
      "stateMutability": "view",
      "type": "function"
    },
    {
      "constant": true,
      "inputs": [
        {
          "name": "",
          "type": "uint256"
        }
      ],
      "name": "lastRepairedIdx",
      "outputs": [
        {
          "name": "",
          "type": "uint256"
        }
      ],
      "payable": false,
      "stateMutability": "view",
      "type": "function"
    },
    {
      "constant": true,
      "inputs": [],
      "name": "B",
      "outputs": [
        {
          "name": "",
          "type": "uint256"
        }
      ],
      "payable": false,
      "stateMutability": "view",
      "type": "function"
    },
    {
      "constant": true,
      "inputs": [
        {
          "name": "",
          "type": "uint256"
        }
      ],
      "name": "candidates",
      "outputs": [
        {
          "name": "",
          "type": "string"
        }
      ],
      "payable": false,
      "stateMutability": "view",
      "type": "function"
    },
    {
      "constant": true,
      "inputs": [],
      "name": "MPC_batch",
      "outputs": [
        {
          "name": "",
          "type": "uint256"
        }
      ],
      "payable": false,
      "stateMutability": "view",
      "type": "function"
    },
    {
      "constant": true,
      "inputs": [
        {
          "name": "",
          "type": "uint256"
        }
      ],
      "name": "submittedRepairKeys",
      "outputs": [
        {
          "name": "",
          "type": "bool"
        }
      ],
      "payable": false,
      "stateMutability": "view",
      "type": "function"
    },
    {
      "constant": true,
      "inputs": [],
      "name": "RM_start",
      "outputs": [
        {
          "name": "",
          "type": "uint256"
        }
      ],
      "payable": false,
      "stateMutability": "view",
      "type": "function"
    },
    {
      "constant": true,
      "inputs": [
        {
          "name": "",
          "type": "uint256"
        },
        {
          "name": "",
          "type": "uint256"
        }
      ],
      "name": "MPC_right_markers",
      "outputs": [
        {
          "name": "",
          "type": "uint256"
        }
      ],
      "payable": false,
      "stateMutability": "view",
      "type": "function"
    },
    {
      "constant": true,
      "inputs": [],
      "name": "MPC_start",
      "outputs": [
        {
          "name": "",
          "type": "uint256"
        }
      ],
      "payable": false,
      "stateMutability": "view",
      "type": "function"
    },
    {
      "constant": true,
      "inputs": [
        {
          "name": "",
          "type": "uint256"
        }
      ],
      "name": "G",
      "outputs": [
        {
          "name": "",
          "type": "uint256"
        }
      ],
      "payable": false,
      "stateMutability": "view",
      "type": "function"
    },
    {
      "constant": true,
      "inputs": [
        {
          "name": "",
          "type": "uint256"
        }
      ],
      "name": "MPC_act_left",
      "outputs": [
        {
          "name": "",
          "type": "uint256"
        }
      ],
      "payable": false,
      "stateMutability": "view",
      "type": "function"
    },
    {
      "constant": true,
      "inputs": [
        {
          "name": "",
          "type": "uint256"
        },
        {
          "name": "",
          "type": "uint256"
        }
      ],
      "name": "blindedVotes",
      "outputs": [
        {
          "name": "",
          "type": "uint256"
        }
      ],
      "payable": false,
      "stateMutability": "view",
      "type": "function"
    },
    {
      "constant": true,
      "inputs": [],
      "name": "NN",
      "outputs": [
        {
          "name": "",
          "type": "uint256"
        }
      ],
      "payable": false,
      "stateMutability": "view",
      "type": "function"
    },
    {
      "constant": true,
      "inputs": [],
      "name": "Beta",
      "outputs": [
        {
          "name": "",
          "type": "uint256"
        }
      ],
      "payable": false,
      "stateMutability": "view",
      "type": "function"
    },
    {
      "constant": true,
      "inputs": [
        {
          "name": "",
          "type": "address"
        }
      ],
      "name": "votersWithPK",
      "outputs": [
        {
          "name": "",
          "type": "bool"
        }
      ],
      "payable": false,
      "stateMutability": "view",
      "type": "function"
    },
    {
      "constant": true,
      "inputs": [
        {
          "name": "",
          "type": "uint256"
        }
      ],
      "name": "blindedVotesSum",
      "outputs": [
        {
          "name": "",
          "type": "uint256"
        }
      ],
      "payable": false,
      "stateMutability": "view",
      "type": "function"
    },
    {
      "constant": true,
      "inputs": [
        {
          "name": "",
          "type": "uint256"
        },
        {
          "name": "",
          "type": "uint256"
        }
      ],
      "name": "votersPKs",
      "outputs": [
        {
          "name": "",
          "type": "uint256"
        }
      ],
      "payable": false,
      "stateMutability": "view",
      "type": "function"
    },
    {
      "constant": true,
      "inputs": [],
      "name": "stage",
      "outputs": [
        {
          "name": "",
          "type": "uint8"
        }
      ],
      "payable": false,
      "stateMutability": "view",
      "type": "function"
    },
    {
      "constant": true,
      "inputs": [],
      "name": "Lambda",
      "outputs": [
        {
          "name": "",
          "type": "uint256"
        }
      ],
      "payable": false,
      "stateMutability": "view",
      "type": "function"
    },
    {
      "constant": true,
      "inputs": [
        {
          "name": "",
          "type": "uint256"
        }
      ],
      "name": "RM_act",
      "outputs": [
        {
          "name": "",
          "type": "uint256"
        }
      ],
      "payable": false,
      "stateMutability": "view",
      "type": "function"
    },
    {
      "constant": true,
      "inputs": [],
      "name": "sizeHash",
      "outputs": [
        {
          "name": "",
          "type": "uint256"
        }
      ],
      "payable": false,
      "stateMutability": "view",
      "type": "function"
    },
    {
      "constant": true,
      "inputs": [
        {
          "name": "",
          "type": "uint256"
        }
      ],
      "name": "notVotedIdxs",
      "outputs": [
        {
          "name": "",
          "type": "uint256"
        }
      ],
      "payable": false,
      "stateMutability": "view",
      "type": "function"
    },
    {
      "constant": true,
      "inputs": [],
      "name": "RM_batch",
      "outputs": [
        {
          "name": "",
          "type": "uint256"
        }
      ],
      "payable": false,
      "stateMutability": "view",
      "type": "function"
    },
    {
      "constant": true,
      "inputs": [
        {
          "name": "",
          "type": "uint256"
        },
        {
          "name": "",
          "type": "uint256"
        }
      ],
      "name": "candidateGens",
      "outputs": [
        {
          "name": "",
          "type": "uint256"
        }
      ],
      "payable": false,
      "stateMutability": "view",
      "type": "function"
    },
    {
      "constant": true,
      "inputs": [],
      "name": "PP",
      "outputs": [
        {
          "name": "",
          "type": "uint256"
        }
      ],
      "payable": false,
      "stateMutability": "view",
      "type": "function"
    },
    {
      "constant": true,
      "inputs": [],
      "name": "A",
      "outputs": [
        {
          "name": "",
          "type": "uint256"
        }
      ],
      "payable": false,
      "stateMutability": "view",
      "type": "function"
    },
    {
      "inputs": [
        {
          "name": "_votersCnt",
          "type": "uint256"
        },
        {
          "name": "_candidates",
          "type": "string[]"
        },
        {
          "name": "_candidateGens",
          "type": "uint256[]"
        },
        {
          "name": "_mpcBatchSize",
          "type": "uint256"
        },
        {
          "name": "_mpcRmBatchSize",
          "type": "uint256"
        },
        {
          "name": "_mainVotingC",
          "type": "address"
        },
        {
          "name": "_authority",
          "type": "address"
        },
        {
          "name": "_votingfunc",
          "type": "address"
        },
        {
          "name": "_votingcalls",
          "type": "address"
        }
      ],
      "payable": false,
      "stateMutability": "nonpayable",
      "type": "constructor"
    },
    {
      "anonymous": false,
      "inputs": [],
      "name": "SingUpFinished",
      "type": "event"
    },
    {
      "anonymous": false,
      "inputs": [],
      "name": "RightMarkersComputed",
      "type": "event"
    },
    {
      "anonymous": false,
      "inputs": [],
      "name": "MPCKeysComputedEvent",
      "type": "event"
    },
    {
      "anonymous": false,
      "inputs": [
        {
          "indexed": false,
          "name": "notVotedIdxs",
          "type": "uint256[]"
        }
      ],
      "name": "MissingVotesEvent",
      "type": "event"
    },
    {
      "anonymous": false,
      "inputs": [
        {
          "indexed": false,
          "name": "blindedVote",
          "type": "uint256[2]"
        }
      ],
      "name": "RepairedBVoteEvent",
      "type": "event"
    },
    {
      "anonymous": false,
      "inputs": [],
      "name": "BlindedVotesSumComputed",
      "type": "event"
    },
    {
      "anonymous": false,
      "inputs": [
        {
          "indexed": false,
          "name": "tally",
          "type": "int256[]"
        }
      ],
      "name": "TallyCompleted",
      "type": "event"
    },
    {
      "constant": false,
      "inputs": [
        {
          "name": "_voterPK",
          "type": "uint256[2]"
        }
      ],
      "name": "submitVotersPK",
      "outputs": [],
      "payable": false,
      "stateMutability": "nonpayable",
      "type": "function"
    },
    {
      "constant": false,
      "inputs": [],
      "name": "changeStageToPreVoting",
      "outputs": [],
      "payable": false,
      "stateMutability": "nonpayable",
      "type": "function"
    },
    {
      "constant": false,
      "inputs": [],
      "name": "buildRightMarkers4MPC",
      "outputs": [],
      "payable": false,
      "stateMutability": "nonpayable",
      "type": "function"
    },
    {
      "constant": false,
      "inputs": [
        {
          "name": "inv_mod_mpc2",
          "type": "uint256[]"
        },
        {
          "name": "inv_mod_mpc1",
          "type": "uint256[]"
        }
      ],
      "name": "computeMPCKeys",
      "outputs": [],
      "payable": false,
      "stateMutability": "nonpayable",
      "type": "function"
    },
    {
      "constant": false,
      "inputs": [
        {
          "name": "proof_A",
          "type": "uint256[]"
        },
        {
          "name": "proof_B",
          "type": "uint256[]"
        },
        {
          "name": "proof_r",
          "type": "int256[]"
        },
        {
          "name": "proof_d",
          "type": "int256[]"
        },
        {
          "name": "vote",
          "type": "uint256[2]"
        },
        {
          "name": "mod_invs",
          "type": "uint256[]"
        }
      ],
      "name": "submitVote",
      "outputs": [],
      "payable": false,
      "stateMutability": "nonpayable",
      "type": "function"
    },
    {
      "constant": false,
      "inputs": [],
      "name": "changeStageToFaultRepair",
      "outputs": [],
      "payable": false,
      "stateMutability": "nonpayable",
      "type": "function"
    },
    {
      "constant": false,
      "inputs": [
        {
          "name": "mod_invs",
          "type": "uint256[]"
        },
        {
          "name": "proof_r",
          "type": "int256[]"
        },
        {
          "name": "h_decomp",
          "type": "int256[]"
        },
        {
          "name": "proof_m1",
          "type": "uint256[]"
        },
        {
          "name": "proof_m2",
          "type": "uint256[]"
        },
        {
          "name": "blindedKeys",
          "type": "uint256[]"
        },
        {
          "name": "faultyIdx",
          "type": "uint256[]"
        },
        {
          "name": "myIdx",
          "type": "uint256"
        }
      ],
      "name": "repairBlindedVote",
      "outputs": [],
      "payable": false,
      "stateMutability": "nonpayable",
      "type": "function"
    },
    {
      "constant": false,
      "inputs": [],
      "name": "computeBlindedVotesSum",
      "outputs": [],
      "payable": false,
      "stateMutability": "nonpayable",
      "type": "function"
    },
    {
      "constant": false,
      "inputs": [
        {
          "name": "c_decom",
          "type": "int256[]"
        },
        {
          "name": "modinv",
          "type": "uint256[2]"
        }
      ],
      "name": "computeTally",
      "outputs": [],
      "payable": false,
      "stateMutability": "nonpayable",
      "type": "function"
    },
    {
      "constant": true,
      "inputs": [],
      "name": "getCntOfVoters",
      "outputs": [
        {
          "name": "",
          "type": "uint256"
        }
      ],
      "payable": false,
      "stateMutability": "view",
      "type": "function"
    },
    {
      "constant": true,
      "inputs": [],
      "name": "getCntOfMarkersMPC",
      "outputs": [
        {
          "name": "",
          "type": "uint256"
        }
      ],
      "payable": false,
      "stateMutability": "view",
      "type": "function"
    },
    {
      "constant": true,
      "inputs": [],
      "name": "getCntOfMpcPKs",
      "outputs": [
        {
          "name": "",
          "type": "uint256"
        }
      ],
      "payable": false,
      "stateMutability": "view",
      "type": "function"
    },
    {
      "constant": true,
      "inputs": [],
      "name": "getCntOfBlindedVotes",
      "outputs": [
        {
          "name": "",
          "type": "uint256"
        }
      ],
      "payable": false,
      "stateMutability": "view",
      "type": "function"
    },
    {
      "constant": true,
      "inputs": [
        {
          "name": "id",
          "type": "uint256"
        }
      ],
      "name": "getBlindedVote",
      "outputs": [
        {
          "name": "",
          "type": "uint256[2]"
        }
      ],
      "payable": false,
      "stateMutability": "view",
      "type": "function"
    },
    {
      "constant": true,
      "inputs": [],
      "name": "getBoothStage",
      "outputs": [
        {
          "name": "boothStage",
          "type": "uint256"
        }
      ],
      "payable": false,
      "stateMutability": "view",
      "type": "function"
    },
    {
      "constant": false,
      "inputs": [
        {
          "name": "start_idx",
          "type": "uint256"
        },
        {
          "name": "last_left",
          "type": "uint256[3]"
        }
      ],
      "name": "modInvCache4MPCBatched",
      "outputs": [
        {
          "name": "",
          "type": "uint256[]"
        },
        {
          "name": "",
          "type": "uint256[]"
        },
        {
          "name": "",
          "type": "uint256[3]"
        }
      ],
      "payable": false,
      "stateMutability": "nonpayable",
      "type": "function"
    },
    {
      "constant": false,
      "inputs": [
        {
          "name": "proof_B",
          "type": "uint256[]"
        },
        {
          "name": "proof_r",
          "type": "int256[]"
        },
        {
          "name": "proof_d",
          "type": "int256[]"
        },
        {
          "name": "vote",
          "type": "uint256[2]"
        }
      ],
      "name": "modInvCache4SubmitVote",
      "outputs": [
        {
          "name": "",
          "type": "uint256[]"
        }
      ],
      "payable": false,
      "stateMutability": "nonpayable",
      "type": "function"
    },
    {
      "constant": false,
      "inputs": [
        {
          "name": "c_decom",
          "type": "int256[]"
        }
      ],
      "name": "modInvCache4Tally",
      "outputs": [
        {
          "name": "",
          "type": "uint256[2]"
        }
      ],
      "payable": false,
      "stateMutability": "nonpayable",
      "type": "function"
    },
    {
      "constant": false,
      "inputs": [
        {
          "name": "faultyIdx",
          "type": "uint256[]"
        },
        {
          "name": "blindedKeys",
          "type": "uint256[]"
        },
        {
          "name": "myIdx",
          "type": "uint256"
        },
        {
          "name": "proof_r",
          "type": "int256[]"
        },
        {
          "name": "h_decomp",
          "type": "int256[]"
        }
      ],
      "name": "modInvCache4repairVote",
      "outputs": [
        {
          "name": "",
          "type": "uint256[]"
        }
      ],
      "payable": false,
      "stateMutability": "nonpayable",
      "type": "function"
    }
  ],
  "bytecode": "0x60806040526000600755600060085560006009556103e8600a5560405180604001604052807f79be667ef9dcbbac55a06295ce870b07029bfcdb2dce28d959f2815b16f8179881526020017f483ada7726a3c4655da4fbfc0e1108a8fd17b448a68554199c47d08ffb10d4b8815250600f9060026200008092919062000496565b507ffffffffffffffffffffffffffffffffebaaedce6af48a03bbfd25e8cd03641416011557ffffffffffffffffffffffffffffffffffffffffffffffffffffffffefffffc2f601255600060135560076014557f5363ad4cc05c30e0a5261c028812645a122e22ea20816678df02967c1b23bd726015557f7ae96a2b657c07106e64479eac3434e99cf0497512f58995c1396c28719501ee60165560006017556040518060600160405280600f6000600281106200013a57fe5b01548152602001600f6001600281106200015057fe5b01548152602001600181525060199060036200016e929190620004db565b506001601d556040518060600160405280600f6000600281106200018e57fe5b01548152602001600f600160028110620001a457fe5b015481526020016001815250601f906003620001c2929190620004db565b50348015620001d057600080fd5b506040516200542f3803806200542f8339810180604052620001f6919081019062000763565b83602960006101000a81548173ffffffffffffffffffffffffffffffffffffffff021916908373ffffffffffffffffffffffffffffffffffffffff16021790555082602a60006101000a81548173ffffffffffffffffffffffffffffffffffffffff021916908373ffffffffffffffffffffffffffffffffffffffff1602179055508560188190555084601e8190555081602760006101000a81548173ffffffffffffffffffffffffffffffffffffffff021916908373ffffffffffffffffffffffffffffffffffffffff16021790555080602860006101000a81548173ffffffffffffffffffffffffffffffffffffffff021916908373ffffffffffffffffffffffffffffffffffffffff1602179055508860028190555060008090505b8851811015620004615760008982815181106200032e57fe5b602002602001015190806001815401808255809150509060018203906000526020600020016000909192909190915090805190602001906200037292919062000520565b5050600160405180604001604052808a84600202815181106200039157fe5b602002602001015181526020018a6001856002020181518110620003b157fe5b602002602001015181525090806001815401808255809150509060018203906000526020600020906002020160009091929091909150906002620003f792919062000496565b5050600e60009080600181540180825580915050906001820390600052602060002001600090919290919091505550600e60009080600181540180825580915050906001820390600052602060002001600090919290919091505550808060010191505062000315565b506001602a60146101000a81548160ff021916908360058111156200048257fe5b0217905550505050505050505050620009c3565b8260028101928215620004c8579160200282015b82811115620004c7578251825591602001919060010190620004aa565b5b509050620004d79190620005a7565b5090565b82600381019282156200050d579160200282015b828111156200050c578251825591602001919060010190620004ef565b5b5090506200051c9190620005a7565b5090565b828054600181600116156101000203166002900490600052602060002090601f016020900481019282601f106200056357805160ff191683800117855562000594565b8280016001018555821562000594579182015b828111156200059357825182559160200191906001019062000576565b5b509050620005a39190620005a7565b5090565b620005cc91905b80821115620005c8576000816000905550600101620005ae565b5090565b90565b600081519050620005e0816200098f565b92915050565b600082601f830112620005f857600080fd5b81516200060f62000609826200089c565b6200086e565b9150818183526020840193506020810190508360005b838110156200065957815186016200063e8882620006f0565b84526020840193506020830192505060018101905062000625565b5050505092915050565b600082601f8301126200067557600080fd5b81516200068c6200068682620008c5565b6200086e565b91508181835260208401935060208101905083856020840282011115620006b257600080fd5b60005b83811015620006e65781620006cb88826200074c565b845260208401935060208301925050600181019050620006b5565b5050505092915050565b600082601f8301126200070257600080fd5b8151620007196200071382620008ee565b6200086e565b915080825260208301602083018583830111156200073657600080fd5b6200074383828462000959565b50505092915050565b6000815190506200075d81620009a9565b92915050565b60008060008060008060008060006101208a8c0312156200078357600080fd5b6000620007938c828d016200074c565b99505060208a015167ffffffffffffffff811115620007b157600080fd5b620007bf8c828d01620005e6565b98505060408a015167ffffffffffffffff811115620007dd57600080fd5b620007eb8c828d0162000663565b9750506060620007fe8c828d016200074c565b9650506080620008118c828d016200074c565b95505060a0620008248c828d01620005cf565b94505060c0620008378c828d01620005cf565b93505060e06200084a8c828d01620005cf565b9250506101006200085e8c828d01620005cf565b9150509295985092959850929598565b6000604051905081810181811067ffffffffffffffff821117156200089257600080fd5b8060405250919050565b600067ffffffffffffffff821115620008b457600080fd5b602082029050602081019050919050565b600067ffffffffffffffff821115620008dd57600080fd5b602082029050602081019050919050565b600067ffffffffffffffff8211156200090657600080fd5b601f19601f8301169050602081019050919050565b600062000928826200092f565b9050919050565b600073ffffffffffffffffffffffffffffffffffffffff82169050919050565b6000819050919050565b60005b83811015620009795780820151818401526020810190506200095c565b8381111562000989576000848401525b50505050565b6200099a816200091b565b8114620009a657600080fd5b50565b620009b4816200094f565b8114620009c057600080fd5b50565b614a5c80620009d36000396000f3fe608060405234801561001057600080fd5b506004361061028a5760003560e01c80638323aba61161015c578063c8141dbd116100ce578063e9de37a011610087578063e9de37a014610853578063ea28b56314610871578063eeeac01e146108a1578063f2c684ac146108bf578063f446c1d0146108c9578063f97c5f98146108e75761028a565b8063c8141dbd14610769578063ca7d235514610787578063cb7502a2146107b7578063ce60c90f146107e7578063e1e3088814610805578063e424a7e8146108235761028a565b80639ec48c8e116101205780639ec48c8e14610681578063aa3449131461069f578063b954cd64146106cf578063bb09c1b2146106ff578063bb6df9bb1461071b578063c040e6b81461074b5761028a565b80638323aba6146106015780638d72b33714610631578063940ef6d31461063b5780639870e2a4146106455780639bc428a4146106635761028a565b8063422950fa1161020057806360fb9548116101b957806360fb95481461052d5780636b42a65714610549578063770d13b7146105675780637916081b146105715780637cb63ec8146105a15780637ebb1759146105d15761028a565b8063422950fa1461044557806346505029146104755780634d0eb1bd146104915780634f9da421146104af578063556c0623146104df57806358cc4217146104fd5761028a565b80632a8b47d6116102525780632a8b47d61461035b5780632fbc3b851461037957806330b1b95f146103a957806332e7c5bf146103d95780633477ee2e146103f757806340a25e38146104275761028a565b80630e1b80b81461028f5780630e3949c8146102bf5780630f5e14eb146102dd5780631448d5541461030d57806327f0f59314610329575b600080fd5b6102a960048036036102a49190810190612f5d565b610903565b6040516102b691906145a4565b60405180910390f35b6102c761091b565b6040516102d491906145a4565b60405180910390f35b6102f760048036036102f29190810190613604565b610925565b60405161030491906145a4565b60405180910390f35b61032760048036036103229190810190613044565b610957565b005b610343600480360361033e91908101906135c8565b610cbf565b60405161035293929190614276565b60405180910390f35b610363610ecd565b60405161037091906145a4565b60405180910390f35b610393600480360361038e919081019061359f565b610eda565b6040516103a091906145a4565b60405180910390f35b6103c360048036036103be919081019061359f565b610ef2565b6040516103d0919061405a565b60405180910390f35b6103e1610f50565b6040516103ee91906145a4565b60405180910390f35b610411600480360361040c919081019061359f565b610f56565b60405161041e9190614382565b60405180910390f35b61042f61100f565b60405161043c91906145a4565b60405180910390f35b61045f600480360361045a919081019061359f565b611015565b60405161046c919061434c565b60405180910390f35b61048f600480360361048a9190810190613159565b611035565b005b610499611439565b6040516104a691906145a4565b60405180910390f35b6104c960048036036104c49190810190613604565b61143f565b6040516104d691906145a4565b60405180910390f35b6104e7611471565b6040516104f491906145a4565b60405180910390f35b610517600480360361051291908101906130ae565b61147e565b6040516105249190614090565b60405180910390f35b6105476004803603610542919081019061331f565b611609565b005b6105516119b4565b60405161055e91906145a4565b60405180910390f35b61056f6119ba565b005b61058b60048036036105869190810190613420565b611a76565b6040516105989190614090565b60405180910390f35b6105bb60048036036105b6919081019061359f565b611c04565b6040516105c891906145a4565b60405180910390f35b6105eb60048036036105e6919081019061359f565b611c1c565b6040516105f891906145a4565b60405180910390f35b61061b60048036036106169190810190613604565b611c34565b60405161062891906145a4565b60405180910390f35b610639611c59565b005b610643611ee5565b005b61064d612077565b60405161065a91906145a4565b60405180910390f35b61066b61207d565b60405161067891906145a4565b60405180910390f35b610689612083565b60405161069691906145a4565b60405180910390f35b6106b960048036036106b49190810190612f5d565b6120a5565b6040516106c6919061434c565b60405180910390f35b6106e960048036036106e4919081019061359f565b6120c5565b6040516106f691906145a4565b60405180910390f35b610719600480360361071491908101906132b3565b6120dd565b005b61073560048036036107309190810190613604565b61239c565b60405161074291906145a4565b60405180910390f35b6107536123ce565b6040516107609190614367565b60405180910390f35b6107716123e1565b60405161077e91906145a4565b60405180910390f35b6107a1600480360361079c919081019061359f565b6123e7565b6040516107ae91906145a4565b60405180910390f35b6107d160048036036107cc9190810190612f86565b6123ff565b6040516107de919061405a565b60405180910390f35b6107ef61258d565b6040516107fc91906145a4565b60405180910390f35b61080d612593565b60405161081a91906145a4565b60405180910390f35b61083d6004803603610838919081019061359f565b61259d565b60405161084a91906145a4565b60405180910390f35b61085b6125be565b60405161086891906145a4565b60405180910390f35b61088b60048036036108869190810190613604565b6125c4565b60405161089891906145a4565b60405180910390f35b6108a96125f6565b6040516108b691906145a4565b60405180910390f35b6108c76125fc565b005b6108d161273b565b6040516108de91906145a4565b60405180910390f35b61090160048036036108fc9190810190612fc7565b612741565b005b60236020528060005260406000206000915090505481565b6000600254905090565b6004828154811061093257fe5b9060005260206000209060020201816002811061094b57fe5b01600091509150505481565b3360006060602960009054906101000a900473ffffffffffffffffffffffffffffffffffffffff1673ffffffffffffffffffffffffffffffffffffffff16836040516024016109a69190613fcb565b6040516020818303038152906040527f34c1be3f000000000000000000000000000000000000000000000000000000007bffffffffffffffffffffffffffffffffffffffffffffffffffffffff19166020820180517bffffffffffffffffffffffffffffffffffffffffffffffffffffffff8381831617835250505050604051610a309190613fb4565b6000604051808303816000865af19150503d8060008114610a6d576040519150601f19603f3d011682016040523d82523d6000602084013e610a72565b606091505b509150915081610ab7576040517f08c379a0000000000000000000000000000000000000000000000000000000008152600401610aae906144e4565b60405180910390fd5b600081806020019051610acd9190810190613576565b905080610b0f576040517f08c379a0000000000000000000000000000000000000000000000000000000008152600401610b06906143a4565b60405180910390fd5b6001602a60149054906101000a900460ff166005811115610b2c57fe5b816005811115610b3857fe5b14610b78576040517f08c379a0000000000000000000000000000000000000000000000000000000008152600401610b6f906144c4565b60405180910390fd5b600380549050602360003373ffffffffffffffffffffffffffffffffffffffff1673ffffffffffffffffffffffffffffffffffffffff1681526020019081526020016000208190555060038690806001815401808255809150509060018203906000526020600020906002020160009091929091909150906002610bfd929190612af2565b50506001602260003373ffffffffffffffffffffffffffffffffffffffff1673ffffffffffffffffffffffffffffffffffffffff16815260200190815260200160002060006101000a81548160ff0219169083151502179055506002546003805490501415610cb7576002602a60146101000a81548160ff02191690836005811115610c8557fe5b02179055507f56a86e96776f41a0e407bf3178532efdb06cd42dce862f9ebe56b01e119016a360405160405180910390a15b505050505050565b606080610cca612b32565b6002602a60149054906101000a900460ff166005811115610ce757fe5b816005811115610cf357fe5b14610d33576040517f08c379a0000000000000000000000000000000000000000000000000000000008152600401610d2a906144c4565b60405180910390fd5b60006060602860009054906101000a900473ffffffffffffffffffffffffffffffffffffffff1673ffffffffffffffffffffffffffffffffffffffff168888604051602401610d839291906145bf565b6040516020818303038152906040527f27f0f593000000000000000000000000000000000000000000000000000000007bffffffffffffffffffffffffffffffffffffffffffffffffffffffff19166020820180517bffffffffffffffffffffffffffffffffffffffffffffffffffffffff8381831617835250505050604051610e0d9190613fb4565b600060405180830381855af49150503d8060008114610e48576040519150601f19603f3d011682016040523d82523d6000602084013e610e4d565b606091505b509150915081610e92576040517f08c379a0000000000000000000000000000000000000000000000000000000008152600401610e8990614544565b60405180910390fd5b606080610e9d612b32565b83806020019051610eb191908101906134f7565b9250925092508282829850985098505050505050509250925092565b6000600480549050905090565b60246020528060005260406000206000915090505481565b610efa612b54565b60266000838152602001908152602001600020600280602002604051908101604052809291908260028015610f44576020028201915b815481526020019060010190808311610f30575b50505050509050919050565b60145481565b60008181548110610f6357fe5b906000526020600020016000915090508054600181600116156101000203166002900480601f0160208091040260200160405190810160405280929190818152602001828054600181600116156101000203166002900480156110075780601f10610fdc57610100808354040283529160200191611007565b820191906000526020600020905b815481529060010190602001808311610fea57829003601f168201915b505050505081565b60185481565b60256020528060005260406000206000915054906101000a900460ff1681565b6004602a60149054906101000a900460ff16600581111561105257fe5b81600581111561105e57fe5b1461109e576040517f08c379a0000000000000000000000000000000000000000000000000000000008152600401611095906144c4565b60405180910390fd5b816025600082815260200190815260200160002060009054906101000a900460ff1615611100576040517f08c379a00000000000000000000000000000000000000000000000000000000081526004016110f7906143e4565b60405180910390fd5b60006060602760009054906101000a900473ffffffffffffffffffffffffffffffffffffffff1673ffffffffffffffffffffffffffffffffffffffff168c8c8c8c8c8c8c8c60405160240161115c98979695949392919061410c565b6040516020818303038152906040527f46505029000000000000000000000000000000000000000000000000000000007bffffffffffffffffffffffffffffffffffffffffffffffffffffffff19166020820180517bffffffffffffffffffffffffffffffffffffffffffffffffffffffff83818316178352505050506040516111e69190613fb4565b600060405180830381855af49150503d8060008114611221576040519150601f19603f3d011682016040523d82523d6000602084013e611226565b606091505b50915091508161126b576040517f08c379a000000000000000000000000000000000000000000000000000000000815260040161126290614504565b60405180910390fd5b600115156025600087815260200190815260200160002060009054906101000a900460ff16151514156112e2577f6cd6c478a5829a4653c16a4f709e74980adf4a63f2c3ff42f55f01cd8374fb98602660008781526020019081526020016000206040516112d99190614075565b60405180910390a15b60075460068054905060038054905003141561142b576005602a60146101000a81548160ff0219169083600581111561131757fe5b0217905550602960009054906101000a900473ffffffffffffffffffffffffffffffffffffffff1673ffffffffffffffffffffffffffffffffffffffff166040516024016040516020818303038152906040527fda41ecf8000000000000000000000000000000000000000000000000000000007bffffffffffffffffffffffffffffffffffffffffffffffffffffffff19166020820180517bffffffffffffffffffffffffffffffffffffffffffffffffffffffff83818316178352505050506040516113e59190613fb4565b6000604051808303816000865af19150503d8060008114611422576040519150601f19603f3d011682016040523d82523d6000602084013e611427565b606091505b5050505b505050505050505050505050565b601d5481565b601c828154811061144c57fe5b9060005260206000209060030201816003811061146557fe5b01600091509150505481565b6000601c80549050905090565b606060006060602860009054906101000a900473ffffffffffffffffffffffffffffffffffffffff1673ffffffffffffffffffffffffffffffffffffffff16878787876040516024016114d494939291906140b2565b6040516020818303038152906040527f58cc4217000000000000000000000000000000000000000000000000000000007bffffffffffffffffffffffffffffffffffffffffffffffffffffffff19166020820180517bffffffffffffffffffffffffffffffffffffffffffffffffffffffff838183161783525050505060405161155e9190613fb4565b600060405180830381855af49150503d8060008114611599576040519150601f19603f3d011682016040523d82523d6000602084013e61159e565b606091505b5091509150816115e3576040517f08c379a00000000000000000000000000000000000000000000000000000000081526004016115da90614584565b60405180910390fd5b6060818060200190516115f9919081019061306d565b9050809350505050949350505050565b33602260008273ffffffffffffffffffffffffffffffffffffffff1673ffffffffffffffffffffffffffffffffffffffff16815260200190815260200160002060009054906101000a900460ff16611696576040517f08c379a000000000000000000000000000000000000000000000000000000000815260040161168d90614464565b60405180910390fd5b6003602a60149054906101000a900460ff1660058111156116b357fe5b8160058111156116bf57fe5b146116ff576040517f08c379a00000000000000000000000000000000000000000000000000000000081526004016116f6906144c4565b60405180910390fd5b60006060602760009054906101000a900473ffffffffffffffffffffffffffffffffffffffff1673ffffffffffffffffffffffffffffffffffffffff168a8a8a8a8a8a604051602401611757969594939291906141f2565b6040516020818303038152906040527f60fb9548000000000000000000000000000000000000000000000000000000007bffffffffffffffffffffffffffffffffffffffffffffffffffffffff19166020820180517bffffffffffffffffffffffffffffffffffffffffffffffffffffffff83818316178352505050506040516117e19190613fb4565b600060405180830381855af49150503d806000811461181c576040519150601f19603f3d011682016040523d82523d6000602084013e611821565b606091505b509150915081611866576040517f08c379a000000000000000000000000000000000000000000000000000000000815260040161185d906143c4565b60405180910390fd5b60085460038054905014156119a8576005602a60146101000a81548160ff0219169083600581111561189457fe5b0217905550602960009054906101000a900473ffffffffffffffffffffffffffffffffffffffff1673ffffffffffffffffffffffffffffffffffffffff166040516024016040516020818303038152906040527fda41ecf8000000000000000000000000000000000000000000000000000000007bffffffffffffffffffffffffffffffffffffffffffffffffffffffff19166020820180517bffffffffffffffffffffffffffffffffffffffffffffffffffffffff83818316178352505050506040516119629190613fb4565b6000604051808303816000865af19150503d806000811461199f576040519150601f19603f3d011682016040523d82523d6000602084013e6119a4565b606091505b5050505b50505050505050505050565b60175481565b6001602a60149054906101000a900460ff1660058111156119d757fe5b8160058111156119e357fe5b14611a23576040517f08c379a0000000000000000000000000000000000000000000000000000000008152600401611a1a906144c4565b60405180910390fd5b6002602a60146101000a81548160ff02191690836005811115611a4257fe5b02179055507f56a86e96776f41a0e407bf3178532efdb06cd42dce862f9ebe56b01e119016a360405160405180910390a150565b606060006060602860009054906101000a900473ffffffffffffffffffffffffffffffffffffffff1673ffffffffffffffffffffffffffffffffffffffff168888888888604051602401611ace9594939291906142bb565b6040516020818303038152906040527f7916081b000000000000000000000000000000000000000000000000000000007bffffffffffffffffffffffffffffffffffffffffffffffffffffffff19166020820180517bffffffffffffffffffffffffffffffffffffffffffffffffffffffff8381831617835250505050604051611b589190613fb4565b600060405180830381855af49150503d8060008114611b93576040519150601f19603f3d011682016040523d82523d6000602084013e611b98565b606091505b509150915081611bdd576040517f08c379a0000000000000000000000000000000000000000000000000000000008152600401611bd490614484565b60405180910390fd5b606081806020019051611bf3919081019061306d565b905080935050505095945050505050565b600f8160028110611c1157fe5b016000915090505481565b60198160038110611c2957fe5b016000915090505481565b60266020528160005260406000208160028110611c4d57fe5b01600091509150505481565b602a60009054906101000a900473ffffffffffffffffffffffffffffffffffffffff1673ffffffffffffffffffffffffffffffffffffffff163373ffffffffffffffffffffffffffffffffffffffff1614611ce9576040517f08c379a0000000000000000000000000000000000000000000000000000000008152600401611ce090614524565b60405180910390fd5b6002602a60149054906101000a900460ff166005811115611d0657fe5b816005811115611d1257fe5b14611d52576040517f08c379a0000000000000000000000000000000000000000000000000000000008152600401611d49906144c4565b60405180910390fd5b60006060602760009054906101000a900473ffffffffffffffffffffffffffffffffffffffff1673ffffffffffffffffffffffffffffffffffffffff166040516024016040516020818303038152906040527f8d72b337000000000000000000000000000000000000000000000000000000007bffffffffffffffffffffffffffffffffffffffffffffffffffffffff19166020820180517bffffffffffffffffffffffffffffffffffffffffffffffffffffffff8381831617835250505050604051611e1f9190613fb4565b600060405180830381855af49150503d8060008114611e5a576040519150601f19603f3d011682016040523d82523d6000602084013e611e5f565b606091505b509150915081611ea4576040517f08c379a0000000000000000000000000000000000000000000000000000000008152600401611e9b906144a4565b60405180910390fd5b600380549050601d541415611ee0577fd1b19eb6bc66c9300e4b8f26f8f5decdf6cf24789a54bae8547bce64258f8c0660405160405180910390a15b505050565b60006060602760009054906101000a900473ffffffffffffffffffffffffffffffffffffffff1673ffffffffffffffffffffffffffffffffffffffff166040516024016040516020818303038152906040527f940ef6d3000000000000000000000000000000000000000000000000000000007bffffffffffffffffffffffffffffffffffffffffffffffffffffffff19166020820180517bffffffffffffffffffffffffffffffffffffffffffffffffffffffff8381831617835250505050604051611fb29190613fb4565b600060405180830381855af49150503d8060008114611fed576040519150601f19603f3d011682016040523d82523d6000602084013e611ff2565b606091505b509150915081612037576040517f08c379a000000000000000000000000000000000000000000000000000000000815260040161202e90614404565b60405180910390fd5b6003805490506009541415612073577f2be63a48c9ef46b7021aeffd91b9fcc3ece6398fefb5643ecdc9087f8c31762160405160405180910390a15b5050565b60115481565b60165481565b6000602a60149054906101000a900460ff1660058111156120a057fe5b905090565b60226020528060005260406000206000915054906101000a900460ff1681565b600b81600381106120d257fe5b016000915090505481565b602a60009054906101000a900473ffffffffffffffffffffffffffffffffffffffff1673ffffffffffffffffffffffffffffffffffffffff163373ffffffffffffffffffffffffffffffffffffffff161461216d576040517f08c379a000000000000000000000000000000000000000000000000000000000815260040161216490614524565b60405180910390fd5b6002602a60149054906101000a900460ff16600581111561218a57fe5b81600581111561219657fe5b146121d6576040517f08c379a00000000000000000000000000000000000000000000000000000000081526004016121cd906144c4565b60405180910390fd5b60006060602760009054906101000a900473ffffffffffffffffffffffffffffffffffffffff1673ffffffffffffffffffffffffffffffffffffffff1685856040516024016122269291906141bb565b6040516020818303038152906040527fbb09c1b2000000000000000000000000000000000000000000000000000000007bffffffffffffffffffffffffffffffffffffffffffffffffffffffff19166020820180517bffffffffffffffffffffffffffffffffffffffffffffffffffffffff83818316178352505050506040516122b09190613fb4565b600060405180830381855af49150503d80600081146122eb576040519150601f19603f3d011682016040523d82523d6000602084013e6122f0565b606091505b509150915081612335576040517f08c379a000000000000000000000000000000000000000000000000000000000815260040161232c90614564565b60405180910390fd5b6004805490506002541415612395576003602a60146101000a81548160ff0219169083600581111561236357fe5b02179055507f8b584667429d5c48654e025beac9b4c9d09ec635745461a9ce032a8013163c1560405160405180910390a15b5050505050565b600382815481106123a957fe5b906000526020600020906002020181600281106123c257fe5b01600091509150505481565b602a60149054906101000a900460ff1681565b60155481565b601f81600381106123f457fe5b016000915090505481565b612407612b54565b60006060602860009054906101000a900473ffffffffffffffffffffffffffffffffffffffff1673ffffffffffffffffffffffffffffffffffffffff16846040516024016124559190613fe6565b6040516020818303038152906040527fcb7502a2000000000000000000000000000000000000000000000000000000007bffffffffffffffffffffffffffffffffffffffffffffffffffffffff19166020820180517bffffffffffffffffffffffffffffffffffffffffffffffffffffffff83818316178352505050506040516124df9190613fb4565b600060405180830381855af49150503d806000811461251a576040519150601f19603f3d011682016040523d82523d6000602084013e61251f565b606091505b509150915081612564576040517f08c379a000000000000000000000000000000000000000000000000000000000815260040161255b90614444565b60405180910390fd5b61256c612b54565b81806020019051612580919081019061301b565b9050809350505050919050565b60055481565b6000600854905090565b600681815481106125aa57fe5b906000526020600020016000915090505481565b601e5481565b600182815481106125d157fe5b906000526020600020906002020181600281106125ea57fe5b01600091509150505481565b60125481565b6003602a60149054906101000a900460ff16600581111561261957fe5b81600581111561262557fe5b14612665576040517f08c379a000000000000000000000000000000000000000000000000000000000815260040161265c906144c4565b60405180910390fd5b6004602a60146101000a81548160ff0219169083600581111561268457fe5b021790555060008090505b6003805490508110156126ff576000602660008381526020019081526020016000206000600281106126bd57fe5b015414156126f25760068190806001815401808255809150509060018203906000526020600020016000909192909190915055505b808060010191505061268f565b507fafd4ac3ba1bddcf248ff11b1eb406e71149fe98f0750f19f109041d3a0a6b84d6006604051612730919061432a565b60405180910390a150565b60135481565b602a60009054906101000a900473ffffffffffffffffffffffffffffffffffffffff1673ffffffffffffffffffffffffffffffffffffffff163373ffffffffffffffffffffffffffffffffffffffff16146127d1576040517f08c379a00000000000000000000000000000000000000000000000000000000081526004016127c890614524565b60405180910390fd5b6005602a60149054906101000a900460ff1660058111156127ee57fe5b8160058111156127fa57fe5b1461283a576040517f08c379a0000000000000000000000000000000000000000000000000000000008152600401612831906144c4565b60405180910390fd5b60006060602760009054906101000a900473ffffffffffffffffffffffffffffffffffffffff1673ffffffffffffffffffffffffffffffffffffffff16858560405160240161288a929190614008565b6040516020818303038152906040527ff97c5f98000000000000000000000000000000000000000000000000000000007bffffffffffffffffffffffffffffffffffffffffffffffffffffffff19166020820180517bffffffffffffffffffffffffffffffffffffffffffffffffffffffff83818316178352505050506040516129149190613fb4565b600060405180830381855af49150503d806000811461294f576040519150601f19603f3d011682016040523d82523d6000602084013e612954565b606091505b509150915081612999576040517f08c379a000000000000000000000000000000000000000000000000000000000815260040161299090614424565b60405180910390fd5b7ff7288dd483c6d2c81f41603bbf6ce67b533dea93ddc3a69994451ced1b70ee7d600e6040516129c99190614038565b60405180910390a1602960009054906101000a900473ffffffffffffffffffffffffffffffffffffffff1673ffffffffffffffffffffffffffffffffffffffff16600e604051602401612a1c9190614038565b6040516020818303038152906040527f509301c2000000000000000000000000000000000000000000000000000000007bffffffffffffffffffffffffffffffffffffffffffffffffffffffff19166020820180517bffffffffffffffffffffffffffffffffffffffffffffffffffffffff8381831617835250505050604051612aa69190613fb4565b6000604051808303816000865af19150503d8060008114612ae3576040519150601f19603f3d011682016040523d82523d6000602084013e612ae8565b606091505b5050505050505050565b8260028101928215612b21579160200282015b82811115612b20578251825591602001919060010190612b05565b5b509050612b2e9190612b76565b5090565b6040518060600160405280600390602082028038833980820191505090505090565b6040518060400160405280600290602082028038833980820191505090505090565b612b9891905b80821115612b94576000816000905550600101612b7c565b5090565b90565b600081359050612baa816149c6565b92915050565b600082601f830112612bc157600080fd5b8135612bd4612bcf82614615565b6145e8565b91508181835260208401935060208101905083856020840282011115612bf957600080fd5b60005b83811015612c295781612c0f8882612f1e565b845260208401935060208301925050600181019050612bfc565b5050505092915050565b600082601f830112612c4457600080fd5b6002612c57612c528261463d565b6145e8565b91508183856020840282011115612c6d57600080fd5b60005b83811015612c9d5781612c838882612f48565b845260208401935060208301925050600181019050612c70565b5050505092915050565b600082601f830112612cb857600080fd5b6002612ccb612cc68261465f565b6145e8565b91508183856020840282011115612ce157600080fd5b60005b83811015612d115781612cf78882612f33565b845260208401935060208301925050600181019050612ce4565b5050505092915050565b600082601f830112612d2c57600080fd5b6003612d3f612d3a82614681565b6145e8565b91508183856020840282011115612d5557600080fd5b60005b83811015612d855781612d6b8882612f48565b845260208401935060208301925050600181019050612d58565b5050505092915050565b600082601f830112612da057600080fd5b6003612db3612dae826146a3565b6145e8565b91508183856020840282011115612dc957600080fd5b60005b83811015612df95781612ddf8882612f33565b845260208401935060208301925050600181019050612dcc565b5050505092915050565b600082601f830112612e1457600080fd5b8151612e27612e22826146c5565b6145e8565b91508181835260208401935060208101905083856020840282011115612e4c57600080fd5b60005b83811015612e7c5781612e628882612f48565b845260208401935060208301925050600181019050612e4f565b5050505092915050565b600082601f830112612e9757600080fd5b8135612eaa612ea5826146ed565b6145e8565b91508181835260208401935060208101905083856020840282011115612ecf57600080fd5b60005b83811015612eff5781612ee58882612f33565b845260208401935060208301925050600181019050612ed2565b5050505092915050565b600081519050612f18816149dd565b92915050565b600081359050612f2d816149f4565b92915050565b600081359050612f4281614a0b565b92915050565b600081519050612f5781614a0b565b92915050565b600060208284031215612f6f57600080fd5b6000612f7d84828501612b9b565b91505092915050565b600060208284031215612f9857600080fd5b600082013567ffffffffffffffff811115612fb257600080fd5b612fbe84828501612bb0565b91505092915050565b60008060608385031215612fda57600080fd5b600083013567ffffffffffffffff811115612ff457600080fd5b61300085828601612bb0565b925050602061301185828601612ca7565b9150509250929050565b60006040828403121561302d57600080fd5b600061303b84828501612c33565b91505092915050565b60006040828403121561305657600080fd5b600061306484828501612ca7565b91505092915050565b60006020828403121561307f57600080fd5b600082015167ffffffffffffffff81111561309957600080fd5b6130a584828501612e03565b91505092915050565b60008060008060a085870312156130c457600080fd5b600085013567ffffffffffffffff8111156130de57600080fd5b6130ea87828801612e86565b945050602085013567ffffffffffffffff81111561310757600080fd5b61311387828801612bb0565b935050604085013567ffffffffffffffff81111561313057600080fd5b61313c87828801612bb0565b925050606061314d87828801612ca7565b91505092959194509250565b600080600080600080600080610100898b03121561317657600080fd5b600089013567ffffffffffffffff81111561319057600080fd5b61319c8b828c01612e86565b985050602089013567ffffffffffffffff8111156131b957600080fd5b6131c58b828c01612bb0565b975050604089013567ffffffffffffffff8111156131e257600080fd5b6131ee8b828c01612bb0565b965050606089013567ffffffffffffffff81111561320b57600080fd5b6132178b828c01612e86565b955050608089013567ffffffffffffffff81111561323457600080fd5b6132408b828c01612e86565b94505060a089013567ffffffffffffffff81111561325d57600080fd5b6132698b828c01612e86565b93505060c089013567ffffffffffffffff81111561328657600080fd5b6132928b828c01612e86565b92505060e06132a38b828c01612f33565b9150509295985092959890939650565b600080604083850312156132c657600080fd5b600083013567ffffffffffffffff8111156132e057600080fd5b6132ec85828601612e86565b925050602083013567ffffffffffffffff81111561330957600080fd5b61331585828601612e86565b9150509250929050565b60008060008060008060e0878903121561333857600080fd5b600087013567ffffffffffffffff81111561335257600080fd5b61335e89828a01612e86565b965050602087013567ffffffffffffffff81111561337b57600080fd5b61338789828a01612e86565b955050604087013567ffffffffffffffff8111156133a457600080fd5b6133b089828a01612bb0565b945050606087013567ffffffffffffffff8111156133cd57600080fd5b6133d989828a01612bb0565b93505060806133ea89828a01612ca7565b92505060c087013567ffffffffffffffff81111561340757600080fd5b61341389828a01612e86565b9150509295509295509295565b600080600080600060a0868803121561343857600080fd5b600086013567ffffffffffffffff81111561345257600080fd5b61345e88828901612e86565b955050602086013567ffffffffffffffff81111561347b57600080fd5b61348788828901612e86565b945050604061349888828901612f33565b935050606086013567ffffffffffffffff8111156134b557600080fd5b6134c188828901612bb0565b925050608086013567ffffffffffffffff8111156134de57600080fd5b6134ea88828901612bb0565b9150509295509295909350565b600080600060a0848603121561350c57600080fd5b600084015167ffffffffffffffff81111561352657600080fd5b61353286828701612e03565b935050602084015167ffffffffffffffff81111561354f57600080fd5b61355b86828701612e03565b925050604061356c86828701612d1b565b9150509250925092565b60006020828403121561358857600080fd5b600061359684828501612f09565b91505092915050565b6000602082840312156135b157600080fd5b60006135bf84828501612f33565b91505092915050565b600080608083850312156135db57600080fd5b60006135e985828601612f33565b92505060206135fa85828601612d8f565b9150509250929050565b6000806040838503121561361757600080fd5b600061362585828601612f33565b925050602061363685828601612f33565b9150509250929050565b600061364c8383613960565b60208301905092915050565b60006136648383613f96565b60208301905092915050565b61367981614897565b82525050565b600061368a82614771565b613694818561482f565b935061369f83614715565b8060005b838110156136d05781516136b78882613640565b97506136c2836147d4565b9250506001810190506136a3565b5085935050505092915050565b60006136e88261477c565b6136f2818561482f565b93506136fd83614722565b8060005b838110156137355761371282614975565b61371c8882613640565b9750613727836147e1565b925050600181019050613701565b5085935050505092915050565b61374b81614787565b6137558184614840565b925061376082614734565b8060005b838110156137915781516137788782613658565b9650613783836147ee565b925050600181019050613764565b505050505050565b6137a281614792565b6137ac8184614840565b92506137b78261473e565b8060005b838110156137ef576137cc82614988565b6137d68782613658565b96506137e1836147fb565b9250506001810190506137bb565b505050505050565b6138008161479d565b61380a818461484b565b925061381582614748565b8060005b8381101561384657815161382d8782613658565b965061383883614808565b925050600181019050613819565b505050505050565b6000613859826147a8565b6138638185614856565b935061386e83614752565b8060005b8381101561389f5781516138868882613658565b975061389183614815565b925050600181019050613872565b5085935050505092915050565b60006138b7826147b3565b6138c18185614856565b93506138cc8361475f565b8060005b83811015613904576138e182614988565b6138eb8882613658565b97506138f683614822565b9250506001810190506138d0565b5085935050505092915050565b61391a816148a9565b82525050565b600061392b826147be565b6139358185614867565b935061394581856020860161490e565b80840191505092915050565b61395a816148fc565b82525050565b613969816148c8565b82525050565b600061397a826147c9565b6139848185614872565b935061399481856020860161490e565b61399d8161499b565b840191505092915050565b60006139b5601383614872565b91507f4e6f7420656c696769626c6520766f7465722e000000000000000000000000006000830152602082019050919050565b60006139f5602183614872565b91507f7375626d6974566f746528292064656c656761746563616c6c206661696c656460008301527f2e000000000000000000000000000000000000000000000000000000000000006020830152604082019050919050565b6000613a5b602383614872565b91507f566f74657220616c7265616479207375626d697474656420726570616972206b60008301527f65792e00000000000000000000000000000000000000000000000000000000006020830152604082019050919050565b6000613ac1602d83614872565b91507f636f6d70757465426c696e646564566f74657353756d28292064656c6567617460008301527f6563616c6c206661696c65642e000000000000000000000000000000000000006020830152604082019050919050565b6000613b27602383614872565b91507f636f6d7075746554616c6c7928292064656c656761746563616c6c206661696c60008301527f65642e00000000000000000000000000000000000000000000000000000000006020830152604082019050919050565b6000613b8d602883614872565b91507f6d6f64496e7643616368653454616c6c7928292064656c656761746563616c6c60008301527f206661696c65642e0000000000000000000000000000000000000000000000006020830152604082019050919050565b6000613bf3602283614872565b91507f566f74657220646f6573206e6f74207375626d6974746564206570682e206b6560008301527f792e0000000000000000000000000000000000000000000000000000000000006020830152604082019050919050565b6000613c59602d83614872565b91507f6d6f64496e76436163686534726570616972566f746528292064656c6567617460008301527f6563616c6c206661696c65642e000000000000000000000000000000000000006020830152604082019050919050565b6000613cbf602c83614872565b91507f6275696c6452696768744d61726b657273344d504328292064656c656761746560008301527f63616c6c206661696c65642e00000000000000000000000000000000000000006020830152604082019050919050565b6000613d25601583614872565b91507f57726f6e672073746167652064657465637465642e00000000000000000000006000830152602082019050919050565b6000613d65602083614872565b91507f6973566f746572456c696769626c65496e426f6f74682829206661696c65642e6000830152602082019050919050565b6000613da5602883614872565b91507f726570616972426c696e646564566f746528292064656c656761746563616c6c60008301527f206661696c65642e0000000000000000000000000000000000000000000000006020830152604082019050919050565b6000613e0b602683614872565b91507f4f6e6c7920617574686f726974792063616e2063616c6c20746869732066756e60008301527f6374696f6e2e00000000000000000000000000000000000000000000000000006020830152604082019050919050565b6000613e71602d83614872565b91507f6d6f64496e764361636865344d50434261746368656428292064656c6567617460008301527f6563616c6c206661696c65642e000000000000000000000000000000000000006020830152604082019050919050565b6000613ed7602583614872565b91507f636f6d707574654d50434b65797328292064656c656761746563616c6c20666160008301527f696c65642e0000000000000000000000000000000000000000000000000000006020830152604082019050919050565b6000613f3d602d83614872565b91507f6d6f64496e764361636865345375626d6974566f746528292064656c6567617460008301527f6563616c6c206661696c65642e000000000000000000000000000000000000006020830152604082019050919050565b613f9f816148f2565b82525050565b613fae816148f2565b82525050565b6000613fc08284613920565b915081905092915050565b6000602082019050613fe06000830184613670565b92915050565b60006020820190508181036000830152614000818461367f565b905092915050565b60006060820190508181036000830152614022818561367f565b90506140316020830184613742565b9392505050565b6000602082019050818103600083015261405281846136dd565b905092915050565b600060408201905061406f6000830184613742565b92915050565b600060408201905061408a6000830184613799565b92915050565b600060208201905081810360008301526140aa818461384e565b905092915050565b600060a08201905081810360008301526140cc818761384e565b905081810360208301526140e0818661367f565b905081810360408301526140f4818561367f565b90506141036060830184613742565b95945050505050565b6000610100820190508181036000830152614127818b61384e565b9050818103602083015261413b818a61367f565b9050818103604083015261414f818961367f565b90508181036060830152614163818861384e565b90508181036080830152614177818761384e565b905081810360a083015261418b818661384e565b905081810360c083015261419f818561384e565b90506141ae60e0830184613fa5565b9998505050505050505050565b600060408201905081810360008301526141d5818561384e565b905081810360208301526141e9818461384e565b90509392505050565b600060e082019050818103600083015261420c818961384e565b90508181036020830152614220818861384e565b90508181036040830152614234818761367f565b90508181036060830152614248818661367f565b90506142576080830185613742565b81810360c0830152614269818461384e565b9050979650505050505050565b600060a0820190508181036000830152614290818661384e565b905081810360208301526142a4818561384e565b90506142b360408301846137f7565b949350505050565b600060a08201905081810360008301526142d5818861384e565b905081810360208301526142e9818761384e565b90506142f86040830186613fa5565b818103606083015261430a818561367f565b9050818103608083015261431e818461367f565b90509695505050505050565b6000602082019050818103600083015261434481846138ac565b905092915050565b60006020820190506143616000830184613911565b92915050565b600060208201905061437c6000830184613951565b92915050565b6000602082019050818103600083015261439c818461396f565b905092915050565b600060208201905081810360008301526143bd816139a8565b9050919050565b600060208201905081810360008301526143dd816139e8565b9050919050565b600060208201905081810360008301526143fd81613a4e565b9050919050565b6000602082019050818103600083015261441d81613ab4565b9050919050565b6000602082019050818103600083015261443d81613b1a565b9050919050565b6000602082019050818103600083015261445d81613b80565b9050919050565b6000602082019050818103600083015261447d81613be6565b9050919050565b6000602082019050818103600083015261449d81613c4c565b9050919050565b600060208201905081810360008301526144bd81613cb2565b9050919050565b600060208201905081810360008301526144dd81613d18565b9050919050565b600060208201905081810360008301526144fd81613d58565b9050919050565b6000602082019050818103600083015261451d81613d98565b9050919050565b6000602082019050818103600083015261453d81613dfe565b9050919050565b6000602082019050818103600083015261455d81613e64565b9050919050565b6000602082019050818103600083015261457d81613eca565b9050919050565b6000602082019050818103600083015261459d81613f30565b9050919050565b60006020820190506145b96000830184613fa5565b92915050565b60006080820190506145d46000830185613fa5565b6145e160208301846137f7565b9392505050565b6000604051905081810181811067ffffffffffffffff8211171561460b57600080fd5b8060405250919050565b600067ffffffffffffffff82111561462c57600080fd5b602082029050602081019050919050565b600067ffffffffffffffff82111561465457600080fd5b602082029050919050565b600067ffffffffffffffff82111561467657600080fd5b602082029050919050565b600067ffffffffffffffff82111561469857600080fd5b602082029050919050565b600067ffffffffffffffff8211156146ba57600080fd5b602082029050919050565b600067ffffffffffffffff8211156146dc57600080fd5b602082029050602081019050919050565b600067ffffffffffffffff82111561470457600080fd5b602082029050602081019050919050565b6000602082019050919050565b60008160005260206000209050919050565b6000819050919050565b6000819050919050565b6000819050919050565b6000602082019050919050565b60008160005260206000209050919050565b600081519050919050565b600081549050919050565b600060029050919050565b600060029050919050565b600060039050919050565b600081519050919050565b600081549050919050565b600081519050919050565b600081519050919050565b6000602082019050919050565b6000600182019050919050565b6000602082019050919050565b6000600182019050919050565b6000602082019050919050565b6000602082019050919050565b6000600182019050919050565b600082825260208201905092915050565b600081905092915050565b600081905092915050565b600082825260208201905092915050565b600081905092915050565b600082825260208201905092915050565b6000819050919050565b6000819050919050565b60006148a2826148d2565b9050919050565b60008115159050919050565b60008190506148c3826149b9565b919050565b6000819050919050565b600073ffffffffffffffffffffffffffffffffffffffff82169050919050565b6000819050919050565b6000614907826148b5565b9050919050565b60005b8381101561492c578082015181840152602081019050614911565b8381111561493b576000848401525b50505050565b600061495461494f836149ac565b614883565b9050919050565b600061496e614969836149ac565b61488d565b9050919050565b60006149818254614941565b9050919050565b6000614994825461495b565b9050919050565b6000601f19601f8301169050919050565b60008160001c9050919050565b600681106149c357fe5b50565b6149cf81614897565b81146149da57600080fd5b50565b6149e6816148a9565b81146149f157600080fd5b50565b6149fd816148c8565b8114614a0857600080fd5b50565b614a14816148f2565b8114614a1f57600080fd5b5056fea265627a7a7230582037b4edc75929a88fdd29e51bbe7c4533a5b7da3d7bbfa4b7c48d04784dfec2846c6578706572696d656e74616cf50037",
  "source": "// SPDX-License-Identifier: MIT\npragma solidity >=0.4.22 <0.9.0;\n//pragma solidity ^0.8.17;\npragma experimental ABIEncoderV2;\n\n// Authors: authors of BBB-voting (https://arxiv.org/pdf/2010.09112.pdf), Ivana Stankov\n// Contract for voting booth\n// deployed for each group of voters\ncontract VotingBoothC {\n\n    string[] public candidates;\n    uint[2][] public candidateGens;\n\n    uint votersCnt;\n    uint[2][] public votersPKs;\n    uint[2][] public MpcPKs;\n\n    uint public sizeHash;\n\n    uint[] public notVotedIdxs;\n    uint submittedVotersRepair = 0;\n\n    // compute blinded votes sum batching\n    uint blindedVotesCnt = 0;\n    uint VS_start = 0;\n    uint VS_batch = 1000;\n    uint[3] public blindedVotesSum;\n\n    int[] tally; // stored as pairs of decomposed scalars\n\n    // Secp256k1 curve parameters\n    uint[2] public G = [0x79BE667EF9DCBBAC55A06295CE870B07029BFCDB2DCE28D959F2815B16F81798, 0x483ADA7726A3C4655DA4FBFC0E1108A8FD17B448A68554199C47D08FFB10D4B8]; // common generator for voters - base points\n    uint public NN = 0xFFFFFFFFFFFFFFFFFFFFFFFFFFFFFFFEBAAEDCE6AF48A03BBFD25E8CD0364141; // modulus for private keys (i.e., order of G)\n    uint public PP = 0xFFFFFFFFFFFFFFFFFFFFFFFFFFFFFFFFFFFFFFFFFFFFFFFFFFFFFFFEFFFFFC2F; // modulus for public keys (i.e., field size)\n    uint public A = 0;\n    uint public B = 7;\n    uint public Lambda = 0x5363ad4cc05c30e0a5261c028812645a122e22ea20816678df02967c1b23bd72; // a root of the characteristic polynomial of the endomorphism of the curve\n    uint public Beta = 0x7ae96a2b657c07106e64479eac3434e99cf0497512f58995c1396c28719501ee; // constant on the curve (endomorphism)\n\n    // State preservation for batching of MPC key computation\n    uint public MPC_start = 0; // idx of the voter that is at the begining of batching sliding window\n    uint public MPC_batch; // the size of the batch\n    uint[3] public MPC_act_left = [G[0], G[1], 1];\n    uint[3][] public MPC_right_markers;\n\n    // Batching right side for MPC computation\n    uint public RM_start = 1;\n    uint public RM_batch;\n    uint[3] public RM_act = [G[0], G[1], 1];\n\n    // Mappings\n    mapping(address => bool) public votersWithPK; // mapping of voters that submitted eph. keys\n    mapping(address => uint) public votersPKidx; // mapping of addresses of voters to index in votersPKs array\n    mapping(uint => uint) public lastRepairedIdx; // last faulty index repaired by voter\n    mapping(uint => bool) public submittedRepairKeys;\n    mapping(uint => uint[2]) public blindedVotes;\n\n    // Events\n    event SingUpFinished();\n    event RightMarkersComputed();\n    event MPCKeysComputedEvent();\n    event MissingVotesEvent(uint[] notVotedIdxs);\n    event RepairedBVoteEvent(uint[2] blindedVote);\n    event BlindedVotesSumComputed();\n    event TallyCompleted(int[] tally);\n\n    // Addrs of contracts and authority\n    address votingFuncAddr;\n    address votingCallsAddr;\n    address mainVotingC;\n    address authority;\n\n    // Stages\n    enum StageEnum { SETUP, SIGNUP, PRE_VOTING, VOTING, FAULT_REPAIR, TALLY }\n    StageEnum public stage;\n\n    // Modifiers\n    modifier eligibleVoter(address voter) {\n        (bool success, bytes memory data) = mainVotingC.call(\n            abi.encodeWithSignature(\"isVoterEligibleInBooth(address)\", voter)\n        );\n        require(success, \"isVoterEligibleInBooth() failed.\");\n\n        bool ret = abi.decode(data, (bool));\n        require(ret, \"Not eligible voter.\");\n        _;\n    }\n\n    modifier voterSubmittedPK(address voter) {\n        require(votersWithPK[voter], \"Voter does not submitted eph. key.\");\n        _;\n    }\n\n    modifier callerIsMainC() {\n        require(msg.sender == mainVotingC, \"Only main contract can collect tally.\");\n        _;\n    }\n\n    modifier fromAuthority() {\n        require(msg.sender == authority, \"Only authority can call this function.\");\n        _;\n    }\n\n    modifier notSubmittedRepairKeyYet(uint idx) {\n        require(!submittedRepairKeys[idx], \"Voter already submitted repair key.\");\n        _;\n    }\n\n    modifier inStage(StageEnum _stage) {\n        require(_stage == stage, \"Wrong stage detected.\");\n        _;\n    }\n\n    constructor(\n        uint _votersCnt,\n        string[] memory _candidates,\n        uint[] memory _candidateGens,\n        uint _mpcBatchSize,\n        uint _mpcRmBatchSize,\n        address _mainVotingC,\n        address _authority,\n        address _votingfunc,\n        address _votingcalls\n    )\n        public\n    {\n        mainVotingC = _mainVotingC;\n        authority = _authority;\n        MPC_batch = _mpcBatchSize;\n        RM_batch = _mpcRmBatchSize;\n\n        votingFuncAddr = _votingfunc;\n        votingCallsAddr = _votingcalls;\n\n        votersCnt = _votersCnt;\n\n        for (uint i = 0; i < _candidates.length; i++) {\n        candidates.push(_candidates[i]);\n        candidateGens.push([_candidateGens[2*i], _candidateGens[2*i + 1]]);\n        tally.push(0);\n        tally.push(0);\n        }\n\n        stage = StageEnum.SIGNUP;\n    }\n\n    // Called by each voter to submit her public key\n    function submitVotersPK(uint[2] memory _voterPK)\n        public \n        eligibleVoter(msg.sender)\n        inStage(StageEnum.SIGNUP)\n    {\n        votersPKidx[msg.sender] = votersPKs.length;\n        votersPKs.push(_voterPK);\n        votersWithPK[msg.sender] = true;\n\n        if(votersPKs.length == votersCnt ) {\n            stage = StageEnum.PRE_VOTING;\n            emit SingUpFinished();\n        }\n    }\n\n    // Change of stage if not all voters submitted PKs\n    function changeStageToPreVoting()\n        public\n        inStage(StageEnum.SIGNUP)\n    {\n        stage = StageEnum.PRE_VOTING;\n        emit SingUpFinished();\n    }\n  \n    // Called by authority repeatedly,\n    // precomputes right-side values for MPC keys computation\n    function buildRightMarkers4MPC()\n        public\n        fromAuthority()\n        inStage(StageEnum.PRE_VOTING)\n    {\n        (bool success, bytes memory data) = votingFuncAddr.delegatecall(\n            abi.encodeWithSignature(\"buildRightMarkers4MPC()\")\n        );\n        \n        require(success, \"buildRightMarkers4MPC() delegatecall failed.\");\n\n        if (RM_start == votersPKs.length) {\n            emit RightMarkersComputed();\n        }\n    }\n\n    // Called by authority (in batches),\n    // computes MPC keys for all voters,\n    // requires precomputed modular inverses\n    // inv_mod_mpc1 - inv mod for right side of substraction\n    // inv_mod_mpc2 - inv mod for result (mpc key)\n    function computeMPCKeys(uint[] memory inv_mod_mpc2, uint[] memory inv_mod_mpc1)\n        public\n        fromAuthority()\n        inStage(StageEnum.PRE_VOTING)\n    {\n\n        (bool success, bytes memory data) = votingFuncAddr.delegatecall(\n            abi.encodeWithSignature(\"computeMPCKeys(uint256[],uint256[])\", inv_mod_mpc2, inv_mod_mpc1)\n        );\n\n        require(success, \"computeMPCKeys() delegatecall failed.\");\n   \n        if (votersCnt == MpcPKs.length) {\n            stage = StageEnum.VOTING;\n            emit MPCKeysComputedEvent();\n        }\n    }\n  \n    // Called by voter to submit her vote,\n    // requires elements of 1-of-k zero-knowledge proof\n    // requires modular inverses for values comapred in proof validation\n    function submitVote(\n        uint[] memory proof_A,\n        uint[] memory proof_B,\n        int[] memory proof_r,\n        int[] memory proof_d,\n        uint[2] memory vote,\n        uint[] memory mod_invs\n    ) \n        public \n        voterSubmittedPK(msg.sender)\n        inStage(StageEnum.VOTING)\n    {\n        (bool success, bytes memory data) = votingFuncAddr.delegatecall(\n            abi.encodeWithSignature(\"submitVote(uint256[],uint256[],int256[],int256[],uint256[2],uint256[])\", \n            proof_A, proof_B, proof_r, proof_d, vote, mod_invs)\n        );\n        require(success, \"submitVote() delegatecall failed.\");\n\n        if (votersPKs.length == blindedVotesCnt) {\n            stage = StageEnum.TALLY;\n            mainVotingC.call(abi.encodeWithSignature(\"changeStageToTally()\"));\n        }\n    }\n\n    // If not all voters sumbited votes,\n    // changes stage to allow vote repairs\n    function changeStageToFaultRepair()\n        public\n        inStage(StageEnum.VOTING)\n    {\n        stage = StageEnum.FAULT_REPAIR;\n\n        for (uint i = 0; i < votersPKs.length; i++) {\n            if(blindedVotes[i][0] == 0){\n                notVotedIdxs.push(i);\n            }\n        }\n        emit MissingVotesEvent(notVotedIdxs);\n    }\n\n    // Called by voter to repair her vote,\n    // requires modular inverses for values comapred in proof validation,\n    // requires elements of zero-knowledge proof for each key\n    function repairBlindedVote(\n        uint[] memory mod_invs,\n        int[] memory proof_r,\n        int[] memory h_decomp,\n        uint[] memory proof_m1,\n        uint[] memory proof_m2, \n        uint[] memory blindedKeys,\n        uint[] memory faultyIdx,\n        uint myIdx\n    )\n        public\n        inStage(StageEnum.FAULT_REPAIR)\n        notSubmittedRepairKeyYet(myIdx) \n    {\n        (bool success, bytes memory data) = votingFuncAddr.delegatecall(\n            abi.encodeWithSignature(\n                \"repairBlindedVote(uint256[],int256[],int256[],uint256[],uint256[],uint256[],uint256[],uint256)\", \n                mod_invs, proof_r, h_decomp, proof_m1, proof_m2, blindedKeys, faultyIdx, myIdx)\n        );\n        require(success, \"repairBlindedVote() delegatecall failed.\");\n\n        if(submittedRepairKeys[myIdx] == true) {\n            emit RepairedBVoteEvent(blindedVotes[myIdx]);\n        }\n\n        // all active voters repaired their blinded votes\n        if(votersPKs.length - notVotedIdxs.length == submittedVotersRepair) {\n            stage = StageEnum.TALLY;\n            mainVotingC.call(abi.encodeWithSignature(\"changeStageToTally()\"));\n        }\n    }\n\n    // Called repeatedly to compute sum of all blinded votes\n    function computeBlindedVotesSum() public {\n        (bool success, bytes memory data) = votingFuncAddr.delegatecall(\n            abi.encodeWithSignature(\"computeBlindedVotesSum()\")\n        );\n\n        require(success, \"computeBlindedVotesSum() delegatecall failed.\");\n\n        if (VS_start == votersPKs.length) {\n            emit BlindedVotesSumComputed();\n        }\n    }\n\n    // Verifies tally provided by authority,\n    // requires tally (as decomposed scalars) and modular inverses\n    function computeTally(int[] memory c_decom, uint[2] memory modinv)\n        public\n        fromAuthority()\n        inStage(StageEnum.TALLY)\n    {\n        (bool success, bytes memory data) = votingFuncAddr.delegatecall(\n            abi.encodeWithSignature(\"computeTally(int256[],uint256[2])\", c_decom, modinv)\n        );\n        require(success, \"computeTally() delegatecall failed.\");\n\n        // inform voters\n        emit TallyCompleted(tally);\n\n        // pass result to main contract\n        mainVotingC.call(abi.encodeWithSignature(\"provideBoothTally(int256[])\", tally));\n    }\n\n\n    // // // Calls // // //\n    function getCntOfVoters() public view returns (uint) {\n        return votersCnt;\n    }\n\n    function getCntOfMarkersMPC() public view returns (uint) {\n        return MPC_right_markers.length;\n    }\n\n    function getCntOfMpcPKs() public view returns (uint) {\n        return MpcPKs.length;\n    }\n\n    function getCntOfBlindedVotes() public view returns (uint) {\n        return blindedVotesCnt;\n    }\n\n    function getBlindedVote(uint id) public view returns (uint[2] memory) {\n        return blindedVotes[id];\n    }\n\n    function getBoothStage() public view returns (uint boothStage) {\n        return uint(stage);\n    }\n\n    // Precomp of modular inverses for MPC key computation\n    // use .call()\n    function modInvCache4MPCBatched(uint start_idx, uint[3] memory last_left)\n        public\n        inStage(StageEnum.PRE_VOTING)\n        returns(uint[] memory, uint[] memory, uint[3] memory)\n    {\n        (bool success, bytes memory data) = votingCallsAddr.delegatecall(\n            abi.encodeWithSignature(\"modInvCache4MPCBatched(uint256,uint256[3])\", start_idx, last_left)\n        );\n\n        require(success, \"modInvCache4MPCBatched() delegatecall failed.\");\n\n        (uint[] memory a, uint[] memory b, uint[3] memory c) = abi.decode(data, (uint[], uint[], uint[3]));\n\n        return (a, b, c);\n    }\n\n    // Precomp of modular inverses for vote submit\n    // use .call()\n    function modInvCache4SubmitVote(\n        uint[] memory proof_B,\n        int[] memory proof_r,\n        int[] memory proof_d,\n        uint[2] memory vote\n    )\n        public\n        returns (uint[] memory)\n    {\n        (bool success, bytes memory data) = votingCallsAddr.delegatecall(\n            abi.encodeWithSignature(\n                \"modInvCache4SubmitVote(uint256[],int256[],int256[],uint256[2])\", \n                proof_B, proof_r, proof_d, vote)\n            );\n\n        require(success, \"modInvCache4SubmitVote() delegatecall failed.\");\n\n        uint[] memory ret = abi.decode(data, (uint[]));\n\n        return ret;\n    }\n\n    // Precomp of modular inverses for tally computation\n    // use .call()\n    function modInvCache4Tally(int[] memory c_decom) public returns (uint[2] memory) {\n\n        (bool success, bytes memory data) = votingCallsAddr.delegatecall(\n            abi.encodeWithSignature(\"modInvCache4Tally(int256[])\", c_decom)\n        );\n\n        require(success, \"modInvCache4Tally() delegatecall failed.\");\n\n        uint[2] memory ret = abi.decode(data, (uint[2]));\n\n        return ret;\n    }\n\n    // Precomp of modular inverses for vote repeair\n    // use .call()\n    function modInvCache4repairVote(\n        uint[] memory faultyIdx,\n        uint[] memory blindedKeys,\n        uint myIdx,\n        int[] memory proof_r,\n        int[] memory h_decomp\n    )\n        public\n        returns (uint[] memory)\n    {\n\n        (bool success, bytes memory data) = votingCallsAddr.delegatecall(\n            abi.encodeWithSignature(\"modInvCache4repairVote(uint256[],uint256[],uint256,int256[],int256[])\", \n            faultyIdx, blindedKeys, myIdx, proof_r, h_decomp)\n        );\n\n        require(success, \"modInvCache4repairVote() delegatecall failed.\");\n\n        uint[] memory ret = abi.decode(data, (uint[]));\n\n        return ret;\n    }\n}\n",
  "sourcePath": "C:\\Users\\tsvon\\Documents\\Projects\\Bakalarka\\smartcontracts\\contracts\\VotingBoothC.sol",
  "compiler": {
    "name": "solc",
    "version": "0.5.8+commit.23d335f2.Emscripten.clang"
  },
  "schemaVersion": "3.4.16",
  "updatedAt": "2025-02-08T17:26:45.555Z",
  "devdoc": {
    "methods": {}
  },
  "userdoc": {
    "methods": {}
  }
}