{
  "contractName": "FastEcMul",
  "abi": [
    {
      "constant": true,
      "inputs": [
        {
          "name": "_k",
          "type": "uint256"
        },
        {
          "name": "_nn",
          "type": "uint256"
        },
        {
          "name": "_lambda",
          "type": "uint256"
        }
      ],
      "name": "decomposeScalar",
      "outputs": [
        {
          "name": "",
          "type": "int256"
        },
        {
          "name": "",
          "type": "int256"
        }
      ],
      "payable": false,
      "stateMutability": "pure",
      "type": "function"
    },
    {
      "constant": true,
      "inputs": [
        {
          "name": "_scalars",
          "type": "int256[4]"
        },
        {
          "name": "_points",
          "type": "uint256[6]"
        },
        {
          "name": "_aa",
          "type": "uint256"
        },
        {
          "name": "_beta",
          "type": "uint256"
        },
        {
          "name": "_pp",
          "type": "uint256"
        }
      ],
      "name": "ecSimMul",
      "outputs": [
        {
          "name": "",
          "type": "uint256"
        },
        {
          "name": "",
          "type": "uint256"
        },
        {
          "name": "",
          "type": "uint256"
        }
      ],
      "payable": false,
      "stateMutability": "pure",
      "type": "function"
    }
  ],
  "bytecode": "0x612e73610026600b82828239805160001a60731461001957fe5b30600052607381538281f3fe73000000000000000000000000000000000000000030146080604052600436106100405760003560e01c8063bb25afb714610045578063fcc8f072146100a2575b600080fd5b6100856004803603606081101561005b57600080fd5b81019080803590602001909291908035906020019092919080359060200190929190505050610189565b604051808381526020018281526020019250505060405180910390f35b61016560048036036101a08110156100b957600080fd5b8101908080608001906004806020026040519081016040528092919082600460200280828437600081840152601f19601f82011690508083019250505050505091929192908060c001906006806020026040519081016040528092919082600660200280828437600081840152601f19601f820116905080830192505050505050919291929080359060200190929190803590602001909291908035906020019092919050505061070f565b60405180848152602001838152602001828152602001935050505060405180910390f35b600080600084868161019757fe5b0690506101a2612cf1565b6001816000600281106101b157fe5b6020020181815250506000816001600281106101c957fe5b6020020181815250506101da612d13565b85816000600281106101e857fe5b60200201818152505086816001600281106101ff57fe5b6020020181815250505b610212876107b4565b8160006002811061021f57fe5b6020020151106103295760008160006002811061023857fe5b60200201518260016002811061024a57fe5b60200201518161025657fe5b0490508160006002811061026657fe5b60200201518260006002811061027857fe5b602002015182028360016002811061028c57fe5b6020020151038360016002811061029f57fe5b60200201846000600281106102b057fe5b6020020182815250828152505050826000600281106102cb57fe5b6020020151836000600281106102dd57fe5b60200201518202846001600281106102f157fe5b6020020151038460016002811061030457fe5b602002018560006002811061031557fe5b602002018281525082815250505050610209565b610331612d35565b8160006002811061033e57fe5b60200201518160006004811061035057fe5b6020020181815250508260006002811061036657fe5b60200201516000038160016004811061037b57fe5b6020020181815250508160016002811061039157fe5b6020020151816002600481106103a357fe5b602002018181525050826001600281106103b957fe5b6020020151600003816003600481106103ce57fe5b6020020181815250506103df612d57565b6103fa826003600481106103ef57fe5b6020020151866107ff565b8360006003811061040757fe5b602002018460016003811061041857fe5b602002018560026003811061042957fe5b60200201838152508381525083815250505050610444612d57565b6104628360016004811061045457fe5b6020020151600003876107ff565b8360006003811061046f57fe5b602002018460016003811061048057fe5b602002018560026003811061049157fe5b602002018381525083815250838152505050506104ac612d13565b610520836001600381106104bc57fe5b60200201516fffffffffffffffffffffffffffffffff166080856000600381106104e257fe5b60200201516fffffffffffffffffffffffffffffffff16901b1760028d8161050657fe5b048560026003811061051457fe5b6020020151018d6108dd565b8260006002811061052d57fe5b602002018360016002811061053e57fe5b6020020182815250828152505050610554612d13565b6105c88360016003811061056457fe5b60200201516fffffffffffffffffffffffffffffffff1660808560006003811061058a57fe5b60200201516fffffffffffffffffffffffffffffffff16901b1760028e816105ae57fe5b04856002600381106105bc57fe5b6020020151018e6108dd565b826000600281106105d557fe5b60200201836001600281106105e657fe5b602002018281525082815250505060008c8660026004811061060457fe5b60200201518360006002811061061657fe5b6020020151028760006004811061062957fe5b60200201518560006002811061063b57fe5b6020020151028b03038161064b57fe5b07905060008d8760036004811061065e57fe5b60200201518460006002811061067057fe5b6020020151028860016004811061068357fe5b60200201518660006002811061069557fe5b60200201516000030203816106a657fe5b07905060028e816106b357fe5b046106bd83610af5565b116106ca578191506106d0565b8d820391505b60028e816106da57fe5b046106e482610af5565b116106f1578090506106f7565b8d810390505b81819b509b5050505050505050505050935093915050565b600080600061071c612d79565b6000809050600080905060008090505b60048110156107805761074e8c826004811061074457fe5b6020020151610b12565b85836004811061075a57fe5b6020020181945082815250505082821115610773578192505b808060010191505061072c565b50600080600061079486868f8f8f8f610bbd565b925092509250828282985098509850505050505050955095509592505050565b600080600260018401816107c457fe5b04905060008390505b808210156107f5578190506002828386816107e457fe5b0401816107ed57fe5b0491506107cd565b8092505050919050565b600080600080608086901c905060006fffffffffffffffffffffffffffffffff871690506000608087901c905060006fffffffffffffffffffffffffffffffff881690506000818402905060006fffffffffffffffffffffffffffffffff848602166fffffffffffffffffffffffffffffffff84880216608084901c0101905060006080858702901c6080858902901c868902608085901c01010190506fffffffffffffffffffffffffffffffff821691506fffffffffffffffffffffffffffffffff83169250808284995099509950505050505050509250925092565b600080600060808487816108ed57fe5b04901b905060008487816108fd57fe5b06905060008090505b60008187901c111561091f578080600101915050610906565b806101000390506080811161093a578060800387901c610942565b6080810387901b5b8189901b01915060006fffffffffffffffffffffffffffffffff8289901b16905061096b612d13565b60808389901b901c6fffffffffffffffffffffffffffffffff848a901b168260016002811061099657fe5b60200201836000600281106109a757fe5b6020020182815250828152505050600080826001600281106109c557fe5b602002015186816109d257fe5b049050826001600281106109e257fe5b602002015186816109ef57fe5b069150600083600060028110610a0157fe5b60200201516fffffffffffffffffffffffffffffffff83160290506000608082901c85600060028110610a3057fe5b6020020151608085901c020190506fffffffffffffffffffffffffffffffff821691505b83811180610a6c57508381148015610a6b57508582115b5b15610ac65782806001900393505084600060028110610a8757fe5b602002015186019550608086901c85600160028110610aa257fe5b602002015101840193506fffffffffffffffffffffffffffffffff86169550610a54565b8883019250600087838f6080858903901b0103901c905083819b509b5050505050505050505050935093915050565b6000808212610b0657819050610b0d565b8160000390505b919050565b6000806000808412610b25576001610b47565b7fffffffffffffffffffffffffffffffffffffffffffffffffffffffffffffffff5b905060008482029050600080600090506000604051925061012c83016040525b6000841115610bad576001841615610b9c57601084069050601060088211028185030193506008850260080385820201828401535b600182019150600284049350610b67565b5081819550955050505050915091565b6000806000610bca612d57565b610bd2612d9b565b610bdf818a8a8a8a6117da565b60008a90506000805b600083111561178d57828060019003935050610c3a85600060038110610c0a57fe5b602002015186600160038110610c1c57fe5b602002015187600260038110610c2e57fe5b60200201518e8d6125d9565b87600060038110610c4757fe5b6020020188600160038110610c5857fe5b6020020189600260038110610c6957fe5b60200201838152508381525083815250505050828e600060048110610c8a57fe5b6020020151019050805160001a91506008821115610df357610dac85600060038110610cb257fe5b602002015186600160038110610cc457fe5b602002015187600260038110610cd657fe5b602002015187600060048110610ce857fe5b6020020151600287600f0381610cfa57fe5b0460048110610d0557fe5b6020020151600060038110610d1657fe5b60200201518d89600060048110610d2957fe5b6020020151600289600f0381610d3b57fe5b0460048110610d4657fe5b6020020151600160038110610d5757fe5b60200201518f0381610d6557fe5b0689600060048110610d7357fe5b6020020151600289600f0381610d8557fe5b0460048110610d9057fe5b6020020151600260038110610da157fe5b60200201518f6127a3565b87600060038110610db957fe5b6020020188600160038110610dca57fe5b6020020189600260038110610ddb57fe5b60200201838152508381525083815250505050610f3f565b6000821115610f3e57610efb85600060038110610e0c57fe5b602002015186600160038110610e1e57fe5b602002015187600260038110610e3057fe5b602002015187600060048110610e4257fe5b602002015160026001880381610e5457fe5b0460048110610e5f57fe5b6020020151600060038110610e7057fe5b602002015188600060048110610e8257fe5b602002015160026001890381610e9457fe5b0460048110610e9f57fe5b6020020151600160038110610eb057fe5b602002015189600060048110610ec257fe5b6020020151600260018a0381610ed457fe5b0460048110610edf57fe5b6020020151600260038110610ef057fe5b60200201518f6127a3565b87600060038110610f0857fe5b6020020188600160038110610f1957fe5b6020020189600260038110610f2a57fe5b602002018381525083815250838152505050505b5b828e600160048110610f4d57fe5b6020020151019050805160001a915060088211156110b65761106f85600060038110610f7557fe5b602002015186600160038110610f8757fe5b602002015187600260038110610f9957fe5b602002015187600160048110610fab57fe5b6020020151600287600f0381610fbd57fe5b0460048110610fc857fe5b6020020151600060038110610fd957fe5b60200201518d89600160048110610fec57fe5b6020020151600289600f0381610ffe57fe5b046004811061100957fe5b602002015160016003811061101a57fe5b60200201518f038161102857fe5b068960016004811061103657fe5b6020020151600289600f038161104857fe5b046004811061105357fe5b602002015160026003811061106457fe5b60200201518f6127a3565b8760006003811061107c57fe5b602002018860016003811061108d57fe5b602002018960026003811061109e57fe5b60200201838152508381525083815250505050611202565b6000821115611201576111be856000600381106110cf57fe5b6020020151866001600381106110e157fe5b6020020151876002600381106110f357fe5b60200201518760016004811061110557fe5b60200201516002600188038161111757fe5b046004811061112257fe5b602002015160006003811061113357fe5b60200201518860016004811061114557fe5b60200201516002600189038161115757fe5b046004811061116257fe5b602002015160016003811061117357fe5b60200201518960016004811061118557fe5b6020020151600260018a038161119757fe5b04600481106111a257fe5b60200201516002600381106111b357fe5b60200201518f6127a3565b876000600381106111cb57fe5b60200201886001600381106111dc57fe5b60200201896002600381106111ed57fe5b602002018381525083815250838152505050505b5b828e60026004811061121057fe5b6020020151019050805160001a91506008821115611379576113328560006003811061123857fe5b60200201518660016003811061124a57fe5b60200201518760026003811061125c57fe5b60200201518760026004811061126e57fe5b6020020151600287600f038161128057fe5b046004811061128b57fe5b602002015160006003811061129c57fe5b60200201518d896002600481106112af57fe5b6020020151600289600f03816112c157fe5b04600481106112cc57fe5b60200201516001600381106112dd57fe5b60200201518f03816112eb57fe5b06896002600481106112f957fe5b6020020151600289600f038161130b57fe5b046004811061131657fe5b602002015160026003811061132757fe5b60200201518f6127a3565b8760006003811061133f57fe5b602002018860016003811061135057fe5b602002018960026003811061136157fe5b602002018381525083815250838152505050506114c5565b60008211156114c4576114818560006003811061139257fe5b6020020151866001600381106113a457fe5b6020020151876002600381106113b657fe5b6020020151876002600481106113c857fe5b6020020151600260018803816113da57fe5b04600481106113e557fe5b60200201516000600381106113f657fe5b60200201518860026004811061140857fe5b60200201516002600189038161141a57fe5b046004811061142557fe5b602002015160016003811061143657fe5b60200201518960026004811061144857fe5b6020020151600260018a038161145a57fe5b046004811061146557fe5b602002015160026003811061147657fe5b60200201518f6127a3565b8760006003811061148e57fe5b602002018860016003811061149f57fe5b60200201896002600381106114b057fe5b602002018381525083815250838152505050505b5b828e6003600481106114d357fe5b6020020151019050805160001a9150600882111561163c576115f5856000600381106114fb57fe5b60200201518660016003811061150d57fe5b60200201518760026003811061151f57fe5b60200201518760036004811061153157fe5b6020020151600287600f038161154357fe5b046004811061154e57fe5b602002015160006003811061155f57fe5b60200201518d8960036004811061157257fe5b6020020151600289600f038161158457fe5b046004811061158f57fe5b60200201516001600381106115a057fe5b60200201518f03816115ae57fe5b06896003600481106115bc57fe5b6020020151600289600f03816115ce57fe5b04600481106115d957fe5b60200201516002600381106115ea57fe5b60200201518f6127a3565b8760006003811061160257fe5b602002018860016003811061161357fe5b602002018960026003811061162457fe5b60200201838152508381525083815250505050611788565b6000821115611787576117448560006003811061165557fe5b60200201518660016003811061166757fe5b60200201518760026003811061167957fe5b60200201518760036004811061168b57fe5b60200201516002600188038161169d57fe5b04600481106116a857fe5b60200201516000600381106116b957fe5b6020020151886003600481106116cb57fe5b6020020151600260018903816116dd57fe5b04600481106116e857fe5b60200201516001600381106116f957fe5b60200201518960036004811061170b57fe5b6020020151600260018a038161171d57fe5b046004811061172857fe5b602002015160026003811061173957fe5b60200201518f6127a3565b8760006003811061175157fe5b602002018860016003811061176257fe5b602002018960026003811061177357fe5b602002018381525083815250838152505050505b5b610be8565b8460006003811061179a57fe5b6020020151856001600381106117ac57fe5b6020020151866002600381106117be57fe5b6020020151975097509750505050505096509650969350505050565b6117e2612dc9565b6117ea612d57565b866000600481106117f757fe5b6020020151915060405180606001604052808760006006811061181657fe5b602002015181526020018760016006811061182d57fe5b602002015181526020018760026006811061184457fe5b60200201518152508260006004811061185957fe5b60200201819052506118b38260006004811061187157fe5b602002015160006003811061188257fe5b60200201518360006004811061189457fe5b60200201516001600381106118a557fe5b6020020151600188876125d9565b836000600381106118c057fe5b60200201846001600381106118d157fe5b60200201856002600381106118e257fe5b6020020183815250838152508381525050505061199d8160006003811061190557fe5b60200201518260016003811061191757fe5b60200201518360026003811061192957fe5b60200201518560006004811061193b57fe5b602002015160006003811061194c57fe5b60200201518660006004811061195e57fe5b602002015160016003811061196f57fe5b60200201518760006004811061198157fe5b602002015160026003811061199257fe5b6020020151896127a3565b846001600481106119aa57fe5b60200201516000600381106119bb57fe5b60200201856001600481106119cc57fe5b60200201516001600381106119dd57fe5b60200201866001600481106119ee57fe5b60200201516002600381106119ff57fe5b60200201838152508381525083815250505050611aba81600060038110611a2257fe5b602002015182600160038110611a3457fe5b602002015183600260038110611a4657fe5b602002015185600160048110611a5857fe5b6020020151600060038110611a6957fe5b602002015186600160048110611a7b57fe5b6020020151600160038110611a8c57fe5b602002015187600160048110611a9e57fe5b6020020151600260038110611aaf57fe5b6020020151896127a3565b84600260048110611ac757fe5b6020020151600060038110611ad857fe5b6020020185600260048110611ae957fe5b6020020151600160038110611afa57fe5b6020020186600260048110611b0b57fe5b6020020151600260038110611b1c57fe5b60200201838152508381525083815250505050611bd781600060038110611b3f57fe5b602002015182600160038110611b5157fe5b602002015183600260038110611b6357fe5b602002015185600260048110611b7557fe5b6020020151600060038110611b8657fe5b602002015186600260048110611b9857fe5b6020020151600160038110611ba957fe5b602002015187600260048110611bbb57fe5b6020020151600260038110611bcc57fe5b6020020151896127a3565b84600360048110611be457fe5b6020020151600060038110611bf557fe5b6020020185600360048110611c0657fe5b6020020151600160038110611c1757fe5b6020020186600360048110611c2857fe5b6020020151600260038110611c3957fe5b6020020183815250838152508381525050505060405180606001604052808480611c5f57fe5b88600060068110611c6c57fe5b60200201518709815260200187600160068110611c8557fe5b6020020151815260200187600260068110611c9c57fe5b602002015181525087600160048110611cb157fe5b6020020151600060048110611cc257fe5b602002018190525060405180606001604052808480611cdd57fe5b84600160048110611cea57fe5b6020020151600060038110611cfb57fe5b60200201518709815260200183600160048110611d1457fe5b6020020151600160038110611d2557fe5b6020020151815260200183600160048110611d3c57fe5b6020020151600260038110611d4d57fe5b602002015181525087600160048110611d6257fe5b6020020151600160048110611d7357fe5b602002018190525060405180606001604052808480611d8e57fe5b84600260048110611d9b57fe5b6020020151600060038110611dac57fe5b60200201518709815260200183600260048110611dc557fe5b6020020151600160038110611dd657fe5b6020020151815260200183600260048110611ded57fe5b6020020151600260038110611dfe57fe5b602002015181525087600160048110611e1357fe5b6020020151600260048110611e2457fe5b602002018190525060405180606001604052808480611e3f57fe5b84600360048110611e4c57fe5b6020020151600060038110611e5d57fe5b60200201518709815260200183600360048110611e7657fe5b6020020151600160038110611e8757fe5b6020020151815260200183600360048110611e9e57fe5b6020020151600260038110611eaf57fe5b602002015181525087600160048110611ec457fe5b6020020151600360048110611ed557fe5b602002018190525086600260048110611eea57fe5b60200201519150604051806060016040528087600360068110611f0957fe5b6020020151815260200187600460068110611f2057fe5b6020020151815260200187600560068110611f3757fe5b602002015181525082600060048110611f4c57fe5b6020020181905250611fa682600060048110611f6457fe5b6020020151600060038110611f7557fe5b602002015183600060048110611f8757fe5b6020020151600160038110611f9857fe5b6020020151600188876125d9565b83600060038110611fb357fe5b6020020184600160038110611fc457fe5b6020020185600260038110611fd557fe5b6020020183815250838152508381525050505061209081600060038110611ff857fe5b60200201518260016003811061200a57fe5b60200201518360026003811061201c57fe5b60200201518560006004811061202e57fe5b602002015160006003811061203f57fe5b60200201518660006004811061205157fe5b602002015160016003811061206257fe5b60200201518760006004811061207457fe5b602002015160026003811061208557fe5b6020020151896127a3565b8460016004811061209d57fe5b60200201516000600381106120ae57fe5b60200201856001600481106120bf57fe5b60200201516001600381106120d057fe5b60200201866001600481106120e157fe5b60200201516002600381106120f257fe5b602002018381525083815250838152505050506121ad8160006003811061211557fe5b60200201518260016003811061212757fe5b60200201518360026003811061213957fe5b60200201518560016004811061214b57fe5b602002015160006003811061215c57fe5b60200201518660016004811061216e57fe5b602002015160016003811061217f57fe5b60200201518760016004811061219157fe5b60200201516002600381106121a257fe5b6020020151896127a3565b846002600481106121ba57fe5b60200201516000600381106121cb57fe5b60200201856002600481106121dc57fe5b60200201516001600381106121ed57fe5b60200201866002600481106121fe57fe5b602002015160026003811061220f57fe5b602002018381525083815250838152505050506122ca8160006003811061223257fe5b60200201518260016003811061224457fe5b60200201518360026003811061225657fe5b60200201518560026004811061226857fe5b602002015160006003811061227957fe5b60200201518660026004811061228b57fe5b602002015160016003811061229c57fe5b6020020151876002600481106122ae57fe5b60200201516002600381106122bf57fe5b6020020151896127a3565b846003600481106122d757fe5b60200201516000600381106122e857fe5b60200201856003600481106122f957fe5b602002015160016003811061230a57fe5b602002018660036004811061231b57fe5b602002015160026003811061232c57fe5b602002018381525083815250838152505050506040518060600160405280848061235257fe5b8860036006811061235f57fe5b6020020151870981526020018760046006811061237857fe5b602002015181526020018760056006811061238f57fe5b6020020151815250876003600481106123a457fe5b60200201516000600481106123b557fe5b6020020181905250604051806060016040528084806123d057fe5b846001600481106123dd57fe5b60200201516000600381106123ee57fe5b6020020151870981526020018360016004811061240757fe5b602002015160016003811061241857fe5b602002015181526020018360016004811061242f57fe5b602002015160026003811061244057fe5b60200201518152508760036004811061245557fe5b602002015160016004811061246657fe5b60200201819052506040518060600160405280848061248157fe5b8460026004811061248e57fe5b602002015160006003811061249f57fe5b602002015187098152602001836002600481106124b857fe5b60200201516001600381106124c957fe5b60200201518152602001836002600481106124e057fe5b60200201516002600381106124f157fe5b60200201518152508760036004811061250657fe5b602002015160026004811061251757fe5b60200201819052506040518060600160405280848061253257fe5b8460036004811061253f57fe5b602002015160006003811061255057fe5b6020020151870981526020018360036004811061256957fe5b602002015160016003811061257a57fe5b602002015181526020018360036004811061259157fe5b60200201516002600381106125a257fe5b6020020151815250876003600481106125b757fe5b60200201516003600481106125c857fe5b602002018190525050505050505050565b6000806000808614156125f457878787925092509250612798565b6125fc612d57565b848061260457fe5b898a098160006003811061261457fe5b602002018181525050848061262557fe5b8889098160016003811061263557fe5b602002018181525050848061264657fe5b8788098160026003811061265657fe5b6020020181815250506000858061266957fe5b868061267157fe5b8360016003811061267e57fe5b60200201518c0960040990506000868061269457fe5b878061269c57fe5b88806126a457fe5b856002600381106126b157fe5b6020020151866002600381106126c357fe5b6020020151098a0988806126d357fe5b856000600381106126e057fe5b6020020151600309089050600087806126f557fe5b88806126fd57fe5b8485088903898061270a57fe5b8485090890506000888061271a57fe5b898061272257fe5b8a8061272a57fe5b8760016003811061273757fe5b60200201518860016003811061274957fe5b6020020151096008098a038a8061275c57fe5b8b8061276457fe5b858d03880886090890506000898061277857fe5b8a8061278057fe5b8d8f0960020990508282829850985098505050505050505b955095509592505050565b6000806000808a1480156127b75750600089145b156127ca57868686925092509250612ce4565b6000871480156127da5750600086145b156127ed57898989925092509250612ce4565b6127f5612d79565b84806127fd57fe5b898a098160006004811061280d57fe5b602002018181525050848061281e57fe5b8160006004811061282b57fe5b60200201518a098160016004811061283f57fe5b602002018181525050848061285057fe5b8687098160026004811061286057fe5b602002018181525050848061287157fe5b8160026004811061287e57fe5b602002015187098160036004811061289257fe5b602002018181525050604051806080016040528086806128ae57fe5b836002600481106128bb57fe5b60200201518e09815260200186806128cf57fe5b836003600481106128dc57fe5b60200201518d09815260200186806128f057fe5b836000600481106128fd57fe5b60200201518b098152602001868061291157fe5b8360016004811061291e57fe5b60200201518a0981525090508060026004811061293757fe5b60200201518160006004811061294957fe5b60200201511415612a6c578060036004811061296157fe5b60200201518160016004811061297357fe5b6020020151146129f65760006129f1576040517f08c379a000000000000000000000000000000000000000000000000000000000815260040180806020018281038252600a8152602001807f57726f6e6720646174610000000000000000000000000000000000000000000081525060200191505060405180910390fd5b612a6b565b6000612a6a576040517f08c379a00000000000000000000000000000000000000000000000000000000081526004018080602001828103825260128152602001807f55736520646f75626c6520696e7374656164000000000000000000000000000081525060200191505060405180910390fd5b5b5b612a74612d79565b8580612a7c57fe5b82600060048110612a8957fe5b6020020151870383600260048110612a9d57fe5b60200201510881600060048110612ab057fe5b6020020181815250508580612ac157fe5b82600160048110612ace57fe5b6020020151870383600360048110612ae257fe5b60200201510881600160048110612af557fe5b6020020181815250508580612b0657fe5b81600060048110612b1357fe5b602002015182600060048110612b2557fe5b60200201510981600260048110612b3857fe5b6020020181815250508580612b4957fe5b81600060048110612b5657fe5b602002015182600260048110612b6857fe5b60200201510981600360048110612b7b57fe5b60200201818152505060008680612b8e57fe5b82600360048110612b9b57fe5b602002015188038880612baa57fe5b84600160048110612bb757fe5b602002015185600160048110612bc957fe5b6020020151090890508680612bda57fe5b8780612be257fe5b8880612bea57fe5b84600260048110612bf757fe5b602002015186600060048110612c0957fe5b60200201510960020988038208905060008780612c2257fe5b8880612c2a57fe5b838a038a80612c3557fe5b86600260048110612c4257fe5b602002015188600060048110612c5457fe5b6020020151090884600160048110612c6857fe5b60200201510990508780612c7857fe5b8880612c8057fe5b84600360048110612c8d57fe5b602002015186600160048110612c9f57fe5b60200201510989038208905060008880612cb557fe5b8980612cbd57fe5b8b8f0985600060048110612ccd57fe5b602002015109905082828297509750975050505050505b9750975097945050505050565b6040518060400160405280600290602082028038833980820191505090505090565b6040518060400160405280600290602082028038833980820191505090505090565b6040518060800160405280600490602082028038833980820191505090505090565b6040518060600160405280600390602082028038833980820191505090505090565b6040518060800160405280600490602082028038833980820191505090505090565b6040518061060001604052806004905b612db3612df7565b815260200190600190039081612dab5790505090565b6040518061018001604052806004905b612de1612e25565b815260200190600190039081612dd95790505090565b6040518061018001604052806004905b612e0f612e25565b815260200190600190039081612e075790505090565b604051806060016040528060039060208202803883398082019150509050509056fea165627a7a72305820de45d1e288cb871f74a401f9c0f49a2108222485de5ff405379891d2a680a0800029",
  "source": "\npragma solidity >=0.4.22 <0.9.0;\n//pragma solidity ^0.8.17;\n\nimport \"./EC.sol\";\n\n\n/**\n * @title Fast Elliptic Curve Multiplication Library\n * @dev Library providing the following speed ups to an elliptic curve multiplication operation.\n * - wNAF scalar representation\n * - scalar decomposition through endomorphism\n * @author Witnet Foundation\n * SPDX-License-Identifier: MIT\n */\nlibrary FastEcMul {\n\n  /// @dev Decomposition of the scalar k in two scalars k1 and k2 with half bit-length, such that k=k1+k2*LAMBDA (mod n)\n  /// @param _k the scalar to be decompose\n  /// @param _nn the modulus\n  /// @param _lambda is a root of the characteristic polynomial of an endomorphism of the curve\n  /// @return k1 and k2  such that k=k1+k2*LAMBDA (mod n)\n  function decomposeScalar (uint256 _k, uint256 _nn, uint256 _lambda) public pure returns (int256, int256) {\n    uint256 k = _k % _nn;\n    // Extended Euclidean Algorithm for n and LAMBDA\n    int256[2] memory t;\n    t[0] = 1;\n    t[1] = 0;\n    uint256[2] memory r;\n    r[0] = uint256(_lambda);\n    r[1] = uint256(_nn);\n\n    while (uint256(r[0]) >= _sqrt(_nn)) {\n      uint256 quotient = r[1] / r[0];\n      (r[1], r[0]) = (r[0], r[1] - quotient*r[0]);\n      (t[1], t[0]) = (t[0], t[1] - int256(quotient)*t[0]);\n    }\n    int256[4] memory ab;\n\n    // the vectors v1=(a1, b1) and v2=(a2,b2)\n    ab[0] = int256(r[0]);\n    ab[1] = int256(0 - t[0]);\n    ab[2] = int256(r[1]);\n    ab[3] = 0 - t[1];\n\n    //b2*K\n    uint[3] memory test;\n    (test[0],test[1], test[2]) = _multiply256(uint(ab[3]), uint(k));\n\n    //-b1*k\n    uint[3] memory test2;\n    (test2[0], test2[1], test2[2]) = _multiply256(uint(-ab[1]), uint(k));\n\n    //c1 and c2\n    uint[2] memory c1;\n    (c1[0],c1[1]) = _bigDivision(uint256 (uint128 (test[0])) << 128 | uint128 (test[1]), uint256(test[2]) + (_nn / 2), _nn);\n    uint[2] memory c2;\n    (c2[0],c2[1]) = _bigDivision(uint256 (uint128 (test2[0])) << 128 | uint128 (test2[1]), uint256(test2[2]) + (_nn / 2), _nn);\n\n    // the decomposition of k in k1 and k2\n    int256 k1 = int256((int256(k) - int256(c1[0]) * int256(ab[0]) - int256(c2[0]) * int256(ab[2])) % int256(_nn));\n    int256 k2 = int256((-int256(c1[0]) * int256(ab[1]) - int256(c2[0]) * int256(ab[3])) % int256(_nn));\n    if (uint256(_abs(k1)) <= (_nn / 2)) {\n      k1 = k1;\n    } else {\n      k1 = int256(uint256(k1) - _nn);\n    }\n    if (uint256(_abs(k2)) <= (_nn / 2)) {\n      k2 = k2;\n    } else {\n      k2 = int256(uint256(k2) - _nn);\n    }\n\n    return (k1, k2);\n  }\n\n  /// @notice Simultaneous multiplication of the form kP + lQ.\n  /// @dev Scalars k and l are expected to be decomposed such that k = k1 + k2 , and l = l1 + l2 ,\n  /// where  is specific to the endomorphism of the curve.\n  /// @param _scalars An array with the decomposition of k and l values, i.e., [k1, k2, l1, l2]\n  /// @param _points An array with the affine coordinates of both P and Q, i.e., [P1, P2, Q1, Q2]\n  function ecSimMul(\n    int256[4] memory _scalars,\n    uint256[6] memory _points,\n    uint256 _aa,\n    uint256 _beta,\n    uint256 _pp)\n  public pure returns (uint256, uint256, uint256)\n  {\n    uint256[4] memory wnaf;\n    uint256 maxCount = 0;\n    uint256 count = 0;\n\n    for (uint j = 0; j<4; j++) {\n      (wnaf[j], count) = _wnaf(_scalars[j]);\n      if (count > maxCount) {\n        maxCount = count;\n      }\n    }\n\n    (uint256 x, uint256 y, uint256 z) = _simMulWnaf(\n      wnaf,\n      maxCount,\n      _points,\n      _aa,\n      _beta,\n      _pp);\n\n    return (x, y, z);\n  }\n\n  /// @dev Compute the look up table for the simultaneous multiplication (P, 3P,..,Q,3Q,..).\n  /// @param _iP the look up table were values will be stored\n  /// @param _points the points P and Q to be multiplied\n  /// @param _aa constant of the curve\n  /// @param _beta constant of the curve (endomorphism)\n  /// @param _pp the modulus\n  /// return (qx, qy, qz) d*P1 in Jacobian\n  function _lookupSimMul(\n    uint256[3][4][4] memory _iP,\n    uint256[6] memory _points,\n    uint256 _aa,\n    uint256 _beta,\n    uint256 _pp\n  ) private pure\n  {\n    uint256[3][4] memory iPj;\n    uint256[3] memory double;\n\n    // P1 Lookup Table\n    iPj = _iP[0];\n    iPj[0] = [_points[0], _points[1], _points[2]]; // P1\n\n    (double[0], double[1], double[2]) = EC.jacDouble(\n      iPj[0][0],\n      iPj[0][1],\n      1,\n      _aa,\n      _pp);\n    (iPj[1][0], iPj[1][1], iPj[1][2]) = EC.jacAdd(\n      double[0],\n      double[1],\n      double[2],\n      iPj[0][0],\n      iPj[0][1],\n      iPj[0][2],\n      _pp);\n    (iPj[2][0], iPj[2][1], iPj[2][2]) = EC.jacAdd(\n      double[0],\n      double[1],\n      double[2],\n      iPj[1][0],\n      iPj[1][1],\n      iPj[1][2],\n      _pp);\n    (iPj[3][0], iPj[3][1], iPj[3][2]) = EC.jacAdd(\n      double[0],\n      double[1],\n      double[2],\n      iPj[2][0],\n      iPj[2][1],\n      iPj[2][2],\n      _pp);\n\n    // P2 Lookup Table\n    _iP[1][0] = [mulmod(_beta, _points[0], _pp), _points[1], _points[2]];\t// P2\n\n    _iP[1][1] = [mulmod(_beta, iPj[1][0], _pp), iPj[1][1], iPj[1][2]];\n    _iP[1][2] = [mulmod(_beta, iPj[2][0], _pp), iPj[2][1], iPj[2][2]];\n    _iP[1][3] = [mulmod(_beta, iPj[3][0], _pp), iPj[3][1], iPj[3][2]];\n\n    // Q1 Lookup Table\n    iPj = _iP[2];\n    iPj[0] = [_points[3], _points[4], _points[5]];\t// Q1\n    (double[0], double[1], double[2]) = EC.jacDouble(\n      iPj[0][0],\n      iPj[0][1],\n      1,\n      _aa,\n      _pp);\n    (iPj[1][0], iPj[1][1], iPj[1][2]) = EC.jacAdd(\n      double[0],\n      double[1],\n      double[2],\n      iPj[0][0],\n      iPj[0][1],\n      iPj[0][2],\n      _pp);\n    (iPj[2][0], iPj[2][1], iPj[2][2]) = EC.jacAdd(\n      double[0],\n      double[1],\n      double[2],\n      iPj[1][0],\n      iPj[1][1],\n      iPj[1][2],\n      _pp);\n    (iPj[3][0], iPj[3][1], iPj[3][2]) = EC.jacAdd(\n      double[0],\n      double[1],\n      double[2],\n      iPj[2][0],\n      iPj[2][1],\n      iPj[2][2],\n      _pp);\n\n    // Q2 Lookup Table\n    _iP[3][0] = [mulmod(_beta, _points[3], _pp), _points[4], _points[5]];\t// P2\n\n    _iP[3][1] = [mulmod(_beta, iPj[1][0], _pp), iPj[1][1], iPj[1][2]];\n    _iP[3][2] = [mulmod(_beta, iPj[2][0], _pp), iPj[2][1], iPj[2][2]];\n    _iP[3][3] = [mulmod(_beta, iPj[3][0], _pp), iPj[3][1], iPj[3][2]];\n  }\n\n  /// @dev WNAF integer representation. Computes the WNAF representation of an integer, and puts the resulting array of coefficients in memory.\n  /// @param _k A 256-bit integer\n  /// @return (ptr, length) The pointer to the first coefficient, and the total length of the array\n  function _wnaf(int256 _k) private pure returns (uint256, uint256) {\n    int sign = _k < 0 ? -1 : int(1);\n    uint256 k = uint256(sign * _k);\n\n    uint256 ptr;\n    uint256 length = 0;\n    assembly\n    {\n      let ki := 0\n      ptr := mload(0x40) // Get free memory pointer\n      mstore(0x40, add(ptr, 300)) // Updates free memory pointer to +300 bytes offset\n      for { } gt(k, 0) { } { // while k > 0\n        if and(k, 1) {  // if k is odd:\n          ki := mod(k, 16)\n          k := add(sub(k, ki), mul(gt(ki, 8), 16))\n          // if sign = 1, store ki; if sign = -1, store 16 - ki\n          mstore8(add(ptr, length), add(mul(ki, sign), sub(8, mul(sign, 8))))\n        }\n        length := add(length, 1)\n        k := div(k, 2)\n      }\n    }\n\n    return (ptr, length);\n  }\n\n  /// @dev Compute the simultaneous multiplication with wnaf decomposed scalar.\n  /// @param _wnafPointer the decomposed scalars to be multiplied in wnaf form (k1, k2, l1, l2)\n  /// @param _points the points P and Q to be multiplied\n  /// @param _aa constant of the curve\n  /// @param _beta constant of the curve (endomorphism)\n  /// @param _pp the modulus\n  /// @return (qx, qy, qz) d*P1 in Jacobian\n  function _simMulWnaf(\n    uint256[4] memory _wnafPointer,\n    uint256 _length,\n    uint256[6] memory _points,\n    uint256 _aa,\n    uint256 _beta,\n    uint256 _pp)\n  private pure  returns (uint256, uint256, uint256)\n  {\n    uint[3] memory mulPoint;\n    uint256[3][4][4] memory iP;\n    _lookupSimMul(\n      iP,\n      _points,\n      _aa,\n      _beta,\n      _pp);\n\n    uint256 i = _length;\n    uint256 ki;\n    uint256 ptr;\n    while (i > 0) {\n      i--;\n\n      (mulPoint[0], mulPoint[1], mulPoint[2]) = EC.jacDouble(\n        mulPoint[0],\n        mulPoint[1],\n        mulPoint[2],\n        _aa,\n        _pp);\n\n      ptr = _wnafPointer[0] + i;\n      assembly {\n        ki := byte(0, mload(ptr))\n      }\n\n      if (ki > 8) {\n        (mulPoint[0], mulPoint[1], mulPoint[2]) = EC.jacAdd(\n          mulPoint[0],\n          mulPoint[1],\n          mulPoint[2],\n          iP[0][(15 - ki) / 2][0],\n          (_pp - iP[0][(15 - ki) / 2][1]) % _pp, iP[0][(15 - ki) / 2][2],\n          _pp);\n      } else if (ki > 0) {\n        (mulPoint[0], mulPoint[1], mulPoint[2]) = EC.jacAdd(\n          mulPoint[0],\n          mulPoint[1],\n          mulPoint[2],\n          iP[0][(ki - 1) / 2][0], iP[0][(ki - 1) / 2][1],\n          iP[0][(ki - 1) / 2][2],\n          _pp);\n      }\n\n      ptr = _wnafPointer[1] + i;\n      assembly {\n        ki := byte(0, mload(ptr))\n      }\n\n      if (ki > 8) {\n        (mulPoint[0], mulPoint[1], mulPoint[2]) = EC.jacAdd(\n          mulPoint[0],\n          mulPoint[1],\n          mulPoint[2],\n          iP[1][(15 - ki) / 2][0],\n          (_pp - iP[1][(15 - ki) / 2][1]) % _pp, iP[1][(15 - ki) / 2][2],\n          _pp);\n\n      } else if (ki > 0) {\n        (mulPoint[0], mulPoint[1], mulPoint[2]) = EC.jacAdd(\n          mulPoint[0],\n          mulPoint[1],\n          mulPoint[2],\n          iP[1][(ki - 1) / 2][0],\n          iP[1][(ki - 1) / 2][1], iP[1][(ki - 1) / 2][2],\n          _pp);\n      }\n\n      ptr = _wnafPointer[2] + i;\n      assembly {\n        ki := byte(0, mload(ptr))\n      }\n\n      if (ki > 8) {\n        (mulPoint[0], mulPoint[1], mulPoint[2]) = EC.jacAdd(\n          mulPoint[0],\n          mulPoint[1],\n          mulPoint[2],\n          iP[2][(15 - ki) / 2][0],\n          (_pp - iP[2][(15 - ki) / 2][1]) % _pp, iP[2][(15 - ki) / 2][2],\n          _pp);\n      } else if (ki > 0) {\n        (mulPoint[0], mulPoint[1], mulPoint[2]) = EC.jacAdd(\n          mulPoint[0],\n          mulPoint[1],\n          mulPoint[2],\n          iP[2][(ki - 1) / 2][0],\n          iP[2][(ki - 1) / 2][1],\n          iP[2][(ki - 1) / 2][2],\n          _pp);\n      }\n\n      ptr = _wnafPointer[3] + i;\n      assembly {\n        ki := byte(0, mload(ptr))\n      }\n\n      if (ki > 8) {\n        (mulPoint[0], mulPoint[1], mulPoint[2]) = EC.jacAdd(\n          mulPoint[0],\n          mulPoint[1],\n          mulPoint[2],\n          iP[3][(15 - ki) / 2][0],\n          (_pp - iP[3][(15 - ki) / 2][1]) % _pp,\n          iP[3][(15 - ki) / 2][2],\n          _pp);\n      } else if (ki > 0) {\n        (mulPoint[0], mulPoint[1], mulPoint[2]) = EC.jacAdd(\n          mulPoint[0],\n          mulPoint[1],\n          mulPoint[2],\n          iP[3][(ki - 1) / 2][0],\n          iP[3][(ki - 1) / 2][1], iP[3][(ki - 1) / 2][2],\n          _pp);\n      }\n    }\n\n    return (mulPoint[0], mulPoint[1], mulPoint[2]);\n  }\n\n  /// @dev Multiplication of a uint256 a and uint256 b. Because in Solidity each variable can not be greater than 256 bits,\n  /// this function separates the result of the multiplication in three parts, so the result would be the concatenation of those three.\n  /// @param _a uint256\n  /// @param _b uint256\n  /// @return (ab2, ab1, ab0)\n  function _multiply256(uint256 _a, uint256 _b) private pure returns (uint256, uint256, uint256) {\n    uint256 aM = _a >> 128;\n    uint256 am = _a & 2**128-1;\n    uint256 bM = _b >> 128;\n    uint256 bm = _b & 2**128-1;\n    uint256 ab0 = am * bm;\n    uint256 ab1 = (ab0 >> 128) + (aM * bm & 2**128-1) + (am * bM & 2**128 - 1);\n    uint256 ab2 = (ab1 >> 128) + aM * bM + (aM * bm >> 128) + (am * bM >> 128);\n    ab1 &= 2**128 - 1;\n    ab0 &= 2**128 - 1;\n\n    return (ab2, ab1, ab0);\n  }\n\n  /// @dev Division of an integer of 312 bits by a 256-bit integer.\n  /// @param _aM the higher 256 bits of the numarator\n  /// @param _am the lower 128 bits of the numarator\n  /// @param _b the 256-bit denominator\n  /// @return q the result of the division and the rest r\n  function _bigDivision(uint256 _aM, uint256 _am, uint256 _b) private pure returns (uint256, uint256) {\n    uint256 qM = (_aM / _b) << 128;\n    uint256 aM = _aM % _b;\n\n    uint256 shift = 0;\n    while (_b >> shift > 0) {\n      shift++;\n    }\n    shift = 256 - shift;\n    aM = (_aM << shift) + (shift > 128 ? _am << (shift - 128) : _am >> (128 - shift));\n    uint256 a0 = (_am << shift) & 2**128-1;\n    uint256[2] memory b;\n\n    (b[1], b[0]) = ((_b << shift) >> 128, (_b << shift) & 2**128-1);\n\n    uint256 rM;\n    uint256 q = aM / b[1];\n    rM = aM % b[1];\n\n    uint256 rsub0 = (q & 2**128-1) * b[0];\n    uint256 rsub21 = (q >> 128) * b[0] + (rsub0 >> 128);\n    rsub0 &= 2**128-1;\n\n    while (rsub21 > rM || rsub21 == rM && rsub0 > a0) {\n      q--;\n      a0 += b[0];\n      rM += b[1] + (a0 >> 128);\n      a0 &= 2**128-1;\n    }\n\n    q += qM;\n    uint256 r = (((rM - rsub21) << 128) + _am - rsub0) >> shift;\n\n    return (q, r);\n  }\n\n  /// @dev Square root of an 256-bit integer.\n  /// @param _x the integer\n  /// @return y the square root of _x\n  function _sqrt(uint256 _x) private pure returns (uint256) {\n    uint256 z = (_x + 1) / 2;\n    uint256 y = _x;\n    while (z < y) {\n      y = z;\n      z = (_x / z + z) / 2;\n    }\n    return (y);\n  }\n\n  /// @dev Absolute value of a 25-bit integer.\n  /// @param _x the integer\n  /// @return _x if _x>=0 or -_x if not\n  function _abs(int256 _x) private pure returns (int256) {\n    if (_x >= 0)\n    return _x;\n    return -_x;\n  }\n}",
  "sourcePath": "C:\\Users\\tsvon\\Documents\\Projects\\Bakalarka\\smartcontracts\\contracts\\lib\\FastEcMul.sol",
  "compiler": {
    "name": "solc",
    "version": "0.5.8+commit.23d335f2.Emscripten.clang"
  },
  "schemaVersion": "3.4.16",
  "updatedAt": "2025-03-07T07:17:26.437Z",
  "networkType": "ethereum",
  "devdoc": {
    "author": "Witnet Foundation SPDX-License-Identifier: MIT",
    "details": "Library providing the following speed ups to an elliptic curve multiplication operation. - wNAF scalar representation - scalar decomposition through endomorphism",
    "methods": {
      "decomposeScalar(uint256,uint256,uint256)": {
        "details": "Decomposition of the scalar k in two scalars k1 and k2 with half bit-length, such that k=k1+k2*LAMBDA (mod n)",
        "params": {
          "_k": "the scalar to be decompose",
          "_lambda": "is a root of the characteristic polynomial of an endomorphism of the curve",
          "_nn": "the modulus"
        },
        "return": "k1 and k2  such that k=k1+k2*LAMBDA (mod n)"
      },
      "ecSimMul(int256[4],uint256[6],uint256,uint256,uint256)": {
        "details": "Scalars k and l are expected to be decomposed such that k = k1 + k2 , and l = l1 + l2 , where  is specific to the endomorphism of the curve.",
        "params": {
          "_points": "An array with the affine coordinates of both P and Q, i.e., [P1, P2, Q1, Q2]",
          "_scalars": "An array with the decomposition of k and l values, i.e., [k1, k2, l1, l2]"
        }
      }
    },
    "title": "Fast Elliptic Curve Multiplication Library"
  },
  "userdoc": {
    "methods": {
      "ecSimMul(int256[4],uint256[6],uint256,uint256,uint256)": {
        "notice": "Simultaneous multiplication of the form kP + lQ."
      }
    }
  }
}