{
  "contractName": "VotingCalls",
  "abi": [
    {
      "constant": true,
      "inputs": [
        {
          "name": "",
          "type": "address"
        }
      ],
      "name": "votersPKidx",
      "outputs": [
        {
          "name": "",
          "type": "uint256"
        }
      ],
      "payable": false,
      "stateMutability": "view",
      "type": "function"
    },
    {
      "constant": true,
      "inputs": [
        {
          "name": "",
          "type": "uint256"
        },
        {
          "name": "",
          "type": "uint256"
        }
      ],
      "name": "MpcPKs",
      "outputs": [
        {
          "name": "",
          "type": "uint256"
        }
      ],
      "payable": false,
      "stateMutability": "view",
      "type": "function"
    },
    {
      "constant": true,
      "inputs": [
        {
          "name": "",
          "type": "uint256"
        }
      ],
      "name": "lastRepairedIdx",
      "outputs": [
        {
          "name": "",
          "type": "uint256"
        }
      ],
      "payable": false,
      "stateMutability": "view",
      "type": "function"
    },
    {
      "constant": true,
      "inputs": [],
      "name": "B",
      "outputs": [
        {
          "name": "",
          "type": "uint256"
        }
      ],
      "payable": false,
      "stateMutability": "view",
      "type": "function"
    },
    {
      "constant": true,
      "inputs": [
        {
          "name": "",
          "type": "uint256"
        }
      ],
      "name": "candidates",
      "outputs": [
        {
          "name": "",
          "type": "string"
        }
      ],
      "payable": false,
      "stateMutability": "view",
      "type": "function"
    },
    {
      "constant": true,
      "inputs": [],
      "name": "MPC_batch",
      "outputs": [
        {
          "name": "",
          "type": "uint256"
        }
      ],
      "payable": false,
      "stateMutability": "view",
      "type": "function"
    },
    {
      "constant": true,
      "inputs": [
        {
          "name": "",
          "type": "uint256"
        }
      ],
      "name": "submittedRepairKeys",
      "outputs": [
        {
          "name": "",
          "type": "bool"
        }
      ],
      "payable": false,
      "stateMutability": "view",
      "type": "function"
    },
    {
      "constant": true,
      "inputs": [],
      "name": "RM_start",
      "outputs": [
        {
          "name": "",
          "type": "uint256"
        }
      ],
      "payable": false,
      "stateMutability": "view",
      "type": "function"
    },
    {
      "constant": true,
      "inputs": [
        {
          "name": "",
          "type": "uint256"
        },
        {
          "name": "",
          "type": "uint256"
        }
      ],
      "name": "MPC_right_markers",
      "outputs": [
        {
          "name": "",
          "type": "uint256"
        }
      ],
      "payable": false,
      "stateMutability": "view",
      "type": "function"
    },
    {
      "constant": true,
      "inputs": [],
      "name": "MPC_start",
      "outputs": [
        {
          "name": "",
          "type": "uint256"
        }
      ],
      "payable": false,
      "stateMutability": "view",
      "type": "function"
    },
    {
      "constant": true,
      "inputs": [
        {
          "name": "",
          "type": "uint256"
        }
      ],
      "name": "G",
      "outputs": [
        {
          "name": "",
          "type": "uint256"
        }
      ],
      "payable": false,
      "stateMutability": "view",
      "type": "function"
    },
    {
      "constant": true,
      "inputs": [
        {
          "name": "",
          "type": "uint256"
        }
      ],
      "name": "MPC_act_left",
      "outputs": [
        {
          "name": "",
          "type": "uint256"
        }
      ],
      "payable": false,
      "stateMutability": "view",
      "type": "function"
    },
    {
      "constant": true,
      "inputs": [
        {
          "name": "",
          "type": "uint256"
        },
        {
          "name": "",
          "type": "uint256"
        }
      ],
      "name": "blindedVotes",
      "outputs": [
        {
          "name": "",
          "type": "uint256"
        }
      ],
      "payable": false,
      "stateMutability": "view",
      "type": "function"
    },
    {
      "constant": true,
      "inputs": [],
      "name": "NN",
      "outputs": [
        {
          "name": "",
          "type": "uint256"
        }
      ],
      "payable": false,
      "stateMutability": "view",
      "type": "function"
    },
    {
      "constant": true,
      "inputs": [],
      "name": "Beta",
      "outputs": [
        {
          "name": "",
          "type": "uint256"
        }
      ],
      "payable": false,
      "stateMutability": "view",
      "type": "function"
    },
    {
      "constant": true,
      "inputs": [
        {
          "name": "",
          "type": "address"
        }
      ],
      "name": "votersWithPK",
      "outputs": [
        {
          "name": "",
          "type": "bool"
        }
      ],
      "payable": false,
      "stateMutability": "view",
      "type": "function"
    },
    {
      "constant": true,
      "inputs": [
        {
          "name": "",
          "type": "uint256"
        }
      ],
      "name": "blindedVotesSum",
      "outputs": [
        {
          "name": "",
          "type": "uint256"
        }
      ],
      "payable": false,
      "stateMutability": "view",
      "type": "function"
    },
    {
      "constant": true,
      "inputs": [
        {
          "name": "",
          "type": "uint256"
        },
        {
          "name": "",
          "type": "uint256"
        }
      ],
      "name": "votersPKs",
      "outputs": [
        {
          "name": "",
          "type": "uint256"
        }
      ],
      "payable": false,
      "stateMutability": "view",
      "type": "function"
    },
    {
      "constant": true,
      "inputs": [],
      "name": "Lambda",
      "outputs": [
        {
          "name": "",
          "type": "uint256"
        }
      ],
      "payable": false,
      "stateMutability": "view",
      "type": "function"
    },
    {
      "constant": true,
      "inputs": [
        {
          "name": "",
          "type": "uint256"
        }
      ],
      "name": "RM_act",
      "outputs": [
        {
          "name": "",
          "type": "uint256"
        }
      ],
      "payable": false,
      "stateMutability": "view",
      "type": "function"
    },
    {
      "constant": true,
      "inputs": [],
      "name": "sizeHash",
      "outputs": [
        {
          "name": "",
          "type": "uint256"
        }
      ],
      "payable": false,
      "stateMutability": "view",
      "type": "function"
    },
    {
      "constant": true,
      "inputs": [
        {
          "name": "",
          "type": "uint256"
        }
      ],
      "name": "notVotedIdxs",
      "outputs": [
        {
          "name": "",
          "type": "uint256"
        }
      ],
      "payable": false,
      "stateMutability": "view",
      "type": "function"
    },
    {
      "constant": true,
      "inputs": [],
      "name": "RM_batch",
      "outputs": [
        {
          "name": "",
          "type": "uint256"
        }
      ],
      "payable": false,
      "stateMutability": "view",
      "type": "function"
    },
    {
      "constant": true,
      "inputs": [
        {
          "name": "",
          "type": "uint256"
        },
        {
          "name": "",
          "type": "uint256"
        }
      ],
      "name": "candidateGens",
      "outputs": [
        {
          "name": "",
          "type": "uint256"
        }
      ],
      "payable": false,
      "stateMutability": "view",
      "type": "function"
    },
    {
      "constant": true,
      "inputs": [],
      "name": "PP",
      "outputs": [
        {
          "name": "",
          "type": "uint256"
        }
      ],
      "payable": false,
      "stateMutability": "view",
      "type": "function"
    },
    {
      "constant": true,
      "inputs": [],
      "name": "A",
      "outputs": [
        {
          "name": "",
          "type": "uint256"
        }
      ],
      "payable": false,
      "stateMutability": "view",
      "type": "function"
    },
    {
      "constant": true,
      "inputs": [
        {
          "name": "start_idx",
          "type": "uint256"
        },
        {
          "name": "last_left",
          "type": "uint256[3]"
        }
      ],
      "name": "modInvCache4MPCBatched",
      "outputs": [
        {
          "name": "",
          "type": "uint256[]"
        },
        {
          "name": "",
          "type": "uint256[]"
        },
        {
          "name": "",
          "type": "uint256[3]"
        }
      ],
      "payable": false,
      "stateMutability": "view",
      "type": "function"
    },
    {
      "constant": true,
      "inputs": [
        {
          "name": "proof_B",
          "type": "uint256[]"
        },
        {
          "name": "proof_r",
          "type": "int256[]"
        },
        {
          "name": "proof_d",
          "type": "int256[]"
        },
        {
          "name": "vote",
          "type": "uint256[2]"
        }
      ],
      "name": "modInvCache4SubmitVote",
      "outputs": [
        {
          "name": "",
          "type": "uint256[]"
        }
      ],
      "payable": false,
      "stateMutability": "view",
      "type": "function"
    },
    {
      "constant": true,
      "inputs": [
        {
          "name": "c_decom",
          "type": "int256[]"
        }
      ],
      "name": "modInvCache4Tally",
      "outputs": [
        {
          "name": "",
          "type": "uint256[2]"
        }
      ],
      "payable": false,
      "stateMutability": "view",
      "type": "function"
    },
    {
      "constant": true,
      "inputs": [
        {
          "name": "faultyIdx",
          "type": "uint256[]"
        },
        {
          "name": "blindedKeys",
          "type": "uint256[]"
        },
        {
          "name": "myIdx",
          "type": "uint256"
        },
        {
          "name": "proof_r",
          "type": "int256[]"
        },
        {
          "name": "h_decomp",
          "type": "int256[]"
        }
      ],
      "name": "modInvCache4repairVote",
      "outputs": [
        {
          "name": "",
          "type": "uint256[]"
        }
      ],
      "payable": false,
      "stateMutability": "view",
      "type": "function"
    }
  ],
  "bytecode": "0x60806040526000600755600060085560006009556103e8600a5560405180604001604052807f79be667ef9dcbbac55a06295ce870b07029bfcdb2dce28d959f2815b16f8179881526020017f483ada7726a3c4655da4fbfc0e1108a8fd17b448a68554199c47d08ffb10d4b8815250600f90600262000080929190620001d7565b507ffffffffffffffffffffffffffffffffebaaedce6af48a03bbfd25e8cd03641416011557ffffffffffffffffffffffffffffffffffffffffffffffffffffffffefffffc2f601255600060135560076014557f5363ad4cc05c30e0a5261c028812645a122e22ea20816678df02967c1b23bd726015557f7ae96a2b657c07106e64479eac3434e99cf0497512f58995c1396c28719501ee60165560006017556040518060600160405280600f6000600281106200013a57fe5b01548152602001600f6001600281106200015057fe5b01548152602001600181525060199060036200016e9291906200021c565b506001601d556040518060600160405280600f6000600281106200018e57fe5b01548152602001600f600160028110620001a457fe5b015481526020016001815250601f906003620001c29291906200021c565b50348015620001d057600080fd5b5062000289565b826002810192821562000209579160200282015b8281111562000208578251825591602001919060010190620001eb565b5b50905062000218919062000261565b5090565b82600381019282156200024e579160200282015b828111156200024d57825182559160200191906001019062000230565b5b5090506200025d919062000261565b5090565b6200028691905b808211156200028257600081600090555060010162000268565b5090565b90565b6145be80620002996000396000f3fe608060405234801561001057600080fd5b50600436106101da5760003560e01c80638323aba611610104578063ca7d2355116100a2578063e9de37a011610071578063e9de37a014610ea4578063ea28b56314610ec2578063eeeac01e14610f0e578063f446c1d014610f2c576101da565b8063ca7d235514610d0e578063cb7502a214610d50578063ce60c90f14610e44578063e424a7e814610e62576101da565b8063aa344913116100de578063aa34491314610c06578063b954cd6414610c62578063bb6df9bb14610ca4578063c8141dbd14610cf0576101da565b80638323aba614610b7e5780639870e2a414610bca5780639bc428a414610be8576101da565b8063422950fa1161017c5780636b42a6571161014b5780636b42a657146108095780637916081b146108275780637cb63ec814610afa5780637ebb175914610b3c576101da565b8063422950fa146104e35780634d0eb1bd146105295780634f9da4211461054757806358cc421714610593576101da565b80632fbc3b85116101b85780632fbc3b85146103be57806332e7c5bf146104005780633477ee2e1461041e57806340a25e38146104c5576101da565b80630e1b80b8146101df5780630f5e14eb1461023757806327f0f59314610283575b600080fd5b610221600480360360208110156101f557600080fd5b81019080803573ffffffffffffffffffffffffffffffffffffffff169060200190929190505050610f4a565b6040518082815260200191505060405180910390f35b61026d6004803603604081101561024d57600080fd5b810190808035906020019092919080359060200190929190505050610f62565b6040518082815260200191505060405180910390f35b6102f06004803603608081101561029957600080fd5b810190808035906020019092919080606001906003806020026040519081016040528092919082600360200280828437600081840152601f19601f8201169050808301925050505050509192919290505050610f94565b60405180806020018060200184600360200280838360005b83811015610323578082015181840152602081019050610308565b50505050905001838103835286818151815260200191508051906020019060200280838360005b8381101561036557808201518184015260208101905061034a565b50505050905001838103825285818151815260200191508051906020019060200280838360005b838110156103a757808201518184015260208101905061038c565b505050509050019550505050505060405180910390f35b6103ea600480360360208110156103d457600080fd5b81019080803590602001909291905050506117a3565b6040518082815260200191505060405180910390f35b6104086117bb565b6040518082815260200191505060405180910390f35b61044a6004803603602081101561043457600080fd5b81019080803590602001909291905050506117c1565b6040518080602001828103825283818151815260200191508051906020019080838360005b8381101561048a57808201518184015260208101905061046f565b50505050905090810190601f1680156104b75780820380516001836020036101000a031916815260200191505b509250505060405180910390f35b6104cd61187a565b6040518082815260200191505060405180910390f35b61050f600480360360208110156104f957600080fd5b8101908080359060200190929190505050611880565b604051808215151515815260200191505060405180910390f35b6105316118a0565b6040518082815260200191505060405180910390f35b61057d6004803603604081101561055d57600080fd5b8101908080359060200190929190803590602001909291905050506118a6565b6040518082815260200191505060405180910390f35b6107b2600480360360a08110156105a957600080fd5b81019080803590602001906401000000008111156105c657600080fd5b8201836020820111156105d857600080fd5b803590602001918460208302840111640100000000831117156105fa57600080fd5b919080806020026020016040519081016040528093929190818152602001838360200280828437600081840152601f19601f8201169050808301925050505050505091929192908035906020019064010000000081111561065a57600080fd5b82018360208201111561066c57600080fd5b8035906020019184602083028401116401000000008311171561068e57600080fd5b919080806020026020016040519081016040528093929190818152602001838360200280828437600081840152601f19601f820116905080830192505050505050509192919290803590602001906401000000008111156106ee57600080fd5b82018360208201111561070057600080fd5b8035906020019184602083028401116401000000008311171561072257600080fd5b919080806020026020016040519081016040528093929190818152602001838360200280828437600081840152601f19601f82011690508083019250505050505050919291929080604001906002806020026040519081016040528092919082600260200280828437600081840152601f19601f82011690508083019250505050505091929192905050506118d8565b6040518080602001828103825283818151815260200191508051906020019060200280838360005b838110156107f55780820151818401526020810190506107da565b505050509050019250505060405180910390f35b61081161253e565b6040518082815260200191505060405180910390f35b610aa3600480360360a081101561083d57600080fd5b810190808035906020019064010000000081111561085a57600080fd5b82018360208201111561086c57600080fd5b8035906020019184602083028401116401000000008311171561088e57600080fd5b919080806020026020016040519081016040528093929190818152602001838360200280828437600081840152601f19601f820116905080830192505050505050509192919290803590602001906401000000008111156108ee57600080fd5b82018360208201111561090057600080fd5b8035906020019184602083028401116401000000008311171561092257600080fd5b919080806020026020016040519081016040528093929190818152602001838360200280828437600081840152601f19601f820116905080830192505050505050509192919290803590602001909291908035906020019064010000000081111561098c57600080fd5b82018360208201111561099e57600080fd5b803590602001918460208302840111640100000000831117156109c057600080fd5b919080806020026020016040519081016040528093929190818152602001838360200280828437600081840152601f19601f82011690508083019250505050505050919291929080359060200190640100000000811115610a2057600080fd5b820183602082011115610a3257600080fd5b80359060200191846020830284011164010000000083111715610a5457600080fd5b919080806020026020016040519081016040528093929190818152602001838360200280828437600081840152601f19601f820116905080830192505050505050509192919290505050612544565b6040518080602001828103825283818151815260200191508051906020019060200280838360005b83811015610ae6578082015181840152602081019050610acb565b505050509050019250505060405180910390f35b610b2660048036036020811015610b1057600080fd5b81019080803590602001909291905050506127bc565b6040518082815260200191505060405180910390f35b610b6860048036036020811015610b5257600080fd5b81019080803590602001909291905050506127d4565b6040518082815260200191505060405180910390f35b610bb460048036036040811015610b9457600080fd5b8101908080359060200190929190803590602001909291905050506127ec565b6040518082815260200191505060405180910390f35b610bd2612811565b6040518082815260200191505060405180910390f35b610bf0612817565b6040518082815260200191505060405180910390f35b610c4860048036036020811015610c1c57600080fd5b81019080803573ffffffffffffffffffffffffffffffffffffffff16906020019092919050505061281d565b604051808215151515815260200191505060405180910390f35b610c8e60048036036020811015610c7857600080fd5b810190808035906020019092919050505061283d565b6040518082815260200191505060405180910390f35b610cda60048036036040811015610cba57600080fd5b810190808035906020019092919080359060200190929190505050612855565b6040518082815260200191505060405180910390f35b610cf8612887565b6040518082815260200191505060405180910390f35b610d3a60048036036020811015610d2457600080fd5b810190808035906020019092919050505061288d565b6040518082815260200191505060405180910390f35b610e0660048036036020811015610d6657600080fd5b8101908080359060200190640100000000811115610d8357600080fd5b820183602082011115610d9557600080fd5b80359060200191846020830284011164010000000083111715610db757600080fd5b919080806020026020016040519081016040528093929190818152602001838360200280828437600081840152601f19601f8201169050808301925050505050505091929192905050506128a5565b6040518082600260200280838360005b83811015610e31578082015181840152602081019050610e16565b5050505090500191505060405180910390f35b610e4c6131e3565b6040518082815260200191505060405180910390f35b610e8e60048036036020811015610e7857600080fd5b81019080803590602001909291905050506131e9565b6040518082815260200191505060405180910390f35b610eac61320a565b6040518082815260200191505060405180910390f35b610ef860048036036040811015610ed857600080fd5b810190808035906020019092919080359060200190929190505050613210565b6040518082815260200191505060405180910390f35b610f16613242565b6040518082815260200191505060405180910390f35b610f34613248565b6040518082815260200191505060405180910390f35b60236020528060005260406000206000915090505481565b60048281548110610f6f57fe5b90600052602060002090600202018160028110610f8857fe5b01600091509150505481565b606080610f9f61446e565b601c8054905060001415610ffe576040517f08c379a000000000000000000000000000000000000000000000000000000000815260040180806020018281038252602481526020018061453b6024913960400191505060405180910390fd5b600380549050851061105b576040517f08c379a000000000000000000000000000000000000000000000000000000000815260040180806020018281038252603481526020018061455f6034913960400191505060405180910390fd5b600060185490506018548660038054905003101561107e57856003805490500390505b60606018546040519080825280602002602001820160405280156110bc57816020015b6110a9614490565b8152602001906001900390816110a15790505b5090506000809050600380549050601854890111156110ed57601854600380549050816110e557fe5b066018540390505b601c60016018548a816110fc57fe5b04601c8054905003038154811061110f57fe5b9060005260206000209060030201600380602002604051908101604052809291908260038015611154576020028201915b815481526020019060010190808311611140575b50505050508260018360185403038151811061116c57fe5b602002602001018190525060008160010190505b6018548110156112a05760008160185403905061120e8482815181106111a257fe5b60200260200101516003838d01815481106111b957fe5b90600052602060002090600202016002806020026040519081016040528092919082600280156111fe576020028201915b8154815260200190600101908083116111ea575b505050505060135460125461324e565b86600185038151811061121d57fe5b602002602001015160006003811061123157fe5b6020020187600186038151811061124457fe5b602002602001015160016003811061125857fe5b6020020188600187038151811061126b57fe5b602002602001015160026003811061127f57fe5b60200201838152508381525083815250505050508080600101915050611180565b506060836040519080825280602002602001820160405280156112d25781602001602082028038833980820191505090505b5090506060846040519080825280602002602001820160405280156113065781602001602082028038833980820191505090505b50905061131161446e565b61131961446e565b8a905060006018548d01905060038054905081111561133b5760038054905090505b60008d90505b8181101561178a57806000146113fd576113ba836003600184038154811061136557fe5b90600052602060002090600202016002806020026040519081016040528092919082600280156113aa576020028201915b815481526020019060010190808311611396575b505050505060135460125461324e565b856000600381106113c757fe5b60200201866001600381106113d857fe5b60200201876002600381106113e957fe5b602002018381525083815250838152505050505b73__EC____________________________________631b54f82489601854848161142357fe5b068151811061142e57fe5b602002602001015160026003811061144257fe5b60200201516012546040518363ffffffff1660e01b8152600401808381526020018281526020019250505060206040518083038186803b15801561148557600080fd5b505af4158015611499573d6000803e3d6000fd5b505050506040513d60208110156114af57600080fd5b81019080805190602001909291905050508660185483816114cc57fe5b06815181106114d757fe5b60200260200101818152505073__EC____________________________________63ff55ab5b8460006003811061150a57fe5b60200201518560016003811061151c57fe5b60200201518660026003811061152e57fe5b60200201518c601854878161153f57fe5b068151811061154a57fe5b602002602001015160006003811061155e57fe5b60200201518d601854888161156f57fe5b068151811061157a57fe5b602002602001015160016003811061158e57fe5b60200201518e601854898161159f57fe5b06815181106115aa57fe5b60200260200101516002600381106115be57fe5b60200201516012546040518863ffffffff1660e01b81526004018088815260200187815260200186815260200185815260200184815260200183815260200182815260200197505050505050505060606040518083038186803b15801561162457600080fd5b505af4158015611638573d6000803e3d6000fd5b505050506040513d606081101561164e57600080fd5b810190808051906020019092919080519060200190929190805190602001909291905050508660006003811061168057fe5b602002018760016003811061169157fe5b60200201886002600381106116a257fe5b6020020183815250838152508381525050505073__EC____________________________________631b54f824856002600381106116dc57fe5b60200201516012546040518363ffffffff1660e01b8152600401808381526020018281526020019250505060206040518083038186803b15801561171f57600080fd5b505af4158015611733573d6000803e3d6000fd5b505050506040513d602081101561174957600080fd5b810190808051906020019092919050505085601854838161176657fe5b068151811061177157fe5b6020026020010181815250508080600101915050611341565b508484839a509a509a5050505050505050509250925092565b60246020528060005260406000206000915090505481565b60145481565b600081815481106117ce57fe5b906000526020600020016000915090508054600181600116156101000203166002900480601f0160208091040260200160405190810160405280929190818152602001828054600181600116156101000203166002900480156118725780601f1061184757610100808354040283529160200191611872565b820191906000526020600020905b81548152906001019060200180831161185557829003601f168201915b505050505081565b60185481565b60256020528060005260406000206000915054906101000a900460ff1681565b601d5481565b601c82815481106118b357fe5b906000526020600020906003020181600381106118cc57fe5b01600091509150505481565b60608060008054905060405190808252806020026020018201604052801561191a57816020015b611907614490565b8152602001906001900390816118ff5790505b5090506000602360003373ffffffffffffffffffffffffffffffffffffffff1673ffffffffffffffffffffffffffffffffffffffff16815260200190815260200160002054905061196961446e565b6119716144b2565b60008090505b60008054905081101561240a5773__FastEcMul_____________________________63fcc8f07260405180608001604052808c85600202815181106119b857fe5b602002602001015181526020018c60018660020201815181106119d757fe5b602002602001015181526020018b85600202815181106119f357fe5b602002602001015160000381526020018b6001866002020181518110611a1557fe5b60200260200101516000038152506040518060c00160405280600f600060028110611a3c57fe5b01548152602001600f600160028110611a5157fe5b015481526020016001815260200160038981548110611a6c57fe5b9060005260206000209060020201600060028110611a8657fe5b0154815260200160038981548110611a9a57fe5b9060005260206000209060020201600160028110611ab457fe5b0154815260200160018152506013546016546012546040518663ffffffff1660e01b81526004018086600460200280838360005b83811015611b03578082015181840152602081019050611ae8565b5050505090500185600660200280838360005b83811015611b31578082015181840152602081019050611b16565b505050509050018481526020018381526020018281526020019550505050505060606040518083038186803b158015611b6957600080fd5b505af4158015611b7d573d6000803e3d6000fd5b505050506040513d6060811015611b9357600080fd5b8101908080519060200190929190805190602001909291908051906020019092919050505085600060038110611bc557fe5b6020020186600160038110611bd657fe5b6020020187600260038110611be757fe5b6020020183815250838152508381525050505073__EC____________________________________631b54f82484600260038110611c2157fe5b60200201516012546040518363ffffffff1660e01b8152600401808381526020018281526020019250505060206040518083038186803b158015611c6457600080fd5b505af4158015611c78573d6000803e3d6000fd5b505050506040513d6020811015611c8e57600080fd5b8101908080519060200190929190505050858281518110611cab57fe5b6020026020010151600060038110611cbf57fe5b60200201818152505073__FastEcMul_____________________________63fcc8f07260405180608001604052808c8560020281518110611cfc57fe5b602002602001015181526020018c6001866002020181518110611d1b57fe5b602002602001015181526020018b8560020281518110611d3757fe5b602002602001015181526020018b6001866002020181518110611d5657fe5b60200260200101518152506040518060c0016040528060048981548110611d7957fe5b9060005260206000209060020201600060028110611d9357fe5b0154815260200160048981548110611da757fe5b9060005260206000209060020201600160028110611dc157fe5b015481526020016001815260200160018681548110611ddc57fe5b9060005260206000209060020201600060028110611df657fe5b0154815260200160018681548110611e0a57fe5b9060005260206000209060020201600160028110611e2457fe5b0154815260200160018152506013546016546012546040518663ffffffff1660e01b81526004018086600460200280838360005b83811015611e73578082015181840152602081019050611e58565b5050505090500185600660200280838360005b83811015611ea1578082015181840152602081019050611e86565b505050509050018481526020018381526020018281526020019550505050505060606040518083038186803b158015611ed957600080fd5b505af4158015611eed573d6000803e3d6000fd5b505050506040513d6060811015611f0357600080fd5b8101908080519060200190929190805190602001909291908051906020019092919050505085600060038110611f3557fe5b6020020186600160038110611f4657fe5b6020020187600260038110611f5757fe5b6020020183815250838152508381525050505073__FastEcMul_____________________________63fcc8f07260405180608001604052808b8560020281518110611f9e57fe5b602002602001015181526020018b6001866002020181518110611fbd57fe5b602002602001015181526020016000815260200160008152506040518060c001604052808b600060028110611fee57fe5b602002015181526020018b60016002811061200557fe5b6020020151815260200160018152602001600f60006002811061202457fe5b01548152602001600f60016002811061203957fe5b0154815260200160018152506013546016546012546040518663ffffffff1660e01b81526004018086600460200280838360005b8381101561208857808201518184015260208101905061206d565b5050505090500185600660200280838360005b838110156120b657808201518184015260208101905061209b565b505050509050018481526020018381526020018281526020019550505050505060606040518083038186803b1580156120ee57600080fd5b505af4158015612102573d6000803e3d6000fd5b505050506040513d606081101561211857600080fd5b810190808051906020019092919080519060200190929190805190602001909291905050508460006006811061214a57fe5b602002018560016006811061215b57fe5b602002018660026006811061216c57fe5b6020020183815250838152508381525050505061221f60405180606001604052808460006006811061219a57fe5b60200201518152602001846001600681106121b157fe5b60200201518152602001846002600681106121c857fe5b602002015181525060405180604001604052808d85600202815181106121ea57fe5b602002602001015181526020018d600186600202018151811061220957fe5b602002602001015181525060135460125461324e565b8460006006811061222c57fe5b602002018560016006811061223d57fe5b602002018660026006811061224e57fe5b6020020183815250838152508381525050505073__EC____________________________________631b54f8248460026003811061228857fe5b60200201516012546040518363ffffffff1660e01b8152600401808381526020018281526020019250505060206040518083038186803b1580156122cb57600080fd5b505af41580156122df573d6000803e3d6000fd5b505050506040513d60208110156122f557600080fd5b810190808051906020019092919050505085828151811061231257fe5b602002602001015160016003811061232657fe5b60200201818152505073__EC____________________________________631b54f8248360026006811061235657fe5b60200201516012546040518363ffffffff1660e01b8152600401808381526020018281526020019250505060206040518083038186803b15801561239957600080fd5b505af41580156123ad573d6000803e3d6000fd5b505050506040513d60208110156123c357600080fd5b81019080805190602001909291905050508582815181106123e057fe5b60200260200101516002600381106123f457fe5b6020020181815250508080600101915050611977565b5060606003600080549050026040519080825280602002602001820160405280156124445781602001602082028038833980820191505090505b50905060008090505b60008054905081101561252d5785818151811061246657fe5b602002602001015160006003811061247a57fe5b602002015182600383028151811061248e57fe5b6020026020010181815250508581815181106124a657fe5b60200260200101516001600381106124ba57fe5b60200201518260016003840201815181106124d157fe5b6020026020010181815250508581815181106124e957fe5b60200260200101516002600381106124fd57fe5b602002015182600260038402018151811061251457fe5b602002602001018181525050808060010191505061244d565b508095505050505050949350505050565b60175481565b606080865160405190808252806020026020018201604052801561258257816020015b61256f6144d4565b8152602001906001900390816125675790505b50905060008090505b87518110156126d5576126b1600387815481106125a457fe5b906000526020600020906002020160038a84815181106125c057fe5b6020026020010151815481106125d257fe5b906000526020600020906002020160405180604001604052808b86600202815181106125fa57fe5b602002602001015181526020018b600187600202018151811061261957fe5b602002602001015181525060405180604001604052808a876002028151811061263e57fe5b602002602001015181526020018a600188600202018151811061265d57fe5b602002602001015181525060405180604001604052808a886002028151811061268257fe5b602002602001015181526020018a60018960020201815181106126a157fe5b6020026020010151815250613766565b8282815181106126bd57fe5b6020026020010181905250808060010191505061258b565b506060600388510260405190808252806020026020018201604052801561270b5781602001602082028038833980820191505090505b50905060008090505b88518110156127ad5782818151811061272957fe5b602002602001015160006002811061273d57fe5b602002015182600283028151811061275157fe5b60200260200101818152505082818151811061276957fe5b602002602001015160016002811061277d57fe5b602002015182600160028402018151811061279457fe5b6020026020010181815250508080600101915050612714565b50809250505095945050505050565b600f81600281106127c957fe5b016000915090505481565b601981600381106127e157fe5b016000915090505481565b6026602052816000526040600020816002811061280557fe5b01600091509150505481565b60115481565b60165481565b60226020528060005260406000206000915054906101000a900460ff1681565b600b816003811061284a57fe5b016000915090505481565b6003828154811061286257fe5b9060005260206000209060020201816002811061287b57fe5b01600091509150505481565b60155481565b601f816003811061289a57fe5b016000915090505481565b6128ad6144f6565b6128b561446e565b6040518060600160405280600f6000600281106128ce57fe5b01548152602001600f6001600281106128e357fe5b015481526020016001815250905060008090505b600380549050811015612a335760006026600083815260200190815260200160002060006002811061292557fe5b0154141561293257612a26565b6129e360405180606001604052808460006003811061294d57fe5b602002015181526020018460016003811061296457fe5b602002015181526020018460026003811061297b57fe5b60200201518152506040518060400160405280602660008681526020019081526020016000206000600281106129ad57fe5b01548152602001602660008681526020019081526020016000206001600281106129d357fe5b015481525060135460125461324e565b846000600381106129f057fe5b6020020185600160038110612a0157fe5b6020020186600260038110612a1257fe5b602002018381525083815250838152505050505b80806001019150506128f7565b50612a3c61446e565b6040518060600160405280600f600060028110612a5557fe5b01548152602001600f600160028110612a6a57fe5b0154815260200160018152509050612a8061446e565b60008090505b600180549050811015613058576001808054905003811415612cea5773__FastEcMul_____________________________63fcc8f0726040518060800160405280898560020281518110612ad657fe5b60200260200101518152602001896001866002020181518110612af557fe5b602002602001015181526020016000815260200160008152506040518060c0016040528060018681548110612b2657fe5b9060005260206000209060020201600060028110612b4057fe5b0154815260200160018681548110612b5457fe5b9060005260206000209060020201600160028110612b6e57fe5b0154815260200160018152602001600f600060028110612b8a57fe5b01548152602001600f600160028110612b9f57fe5b0154815260200160018152506013546016546012546040518663ffffffff1660e01b81526004018086600460200280838360005b83811015612bee578082015181840152602081019050612bd3565b5050505090500185600660200280838360005b83811015612c1c578082015181840152602081019050612c01565b505050509050018481526020018381526020018281526020019550505050505060606040518083038186803b158015612c5457600080fd5b505af4158015612c68573d6000803e3d6000fd5b505050506040513d6060811015612c7e57600080fd5b8101908080519060200190929190805190602001909291908051906020019092919050505084600060038110612cb057fe5b6020020185600160038110612cc157fe5b6020020186600260038110612cd257fe5b60200201838152508381525083815250505050612f94565b73__FastEcMul_____________________________63fcc8f0726040518060800160405280898560020281518110612d1e57fe5b60200260200101518152602001896001866002020181518110612d3d57fe5b60200260200101518152602001896002866002020181518110612d5c57fe5b60200260200101518152602001896003866002020181518110612d7b57fe5b60200260200101518152506040518060c0016040528060018681548110612d9e57fe5b9060005260206000209060020201600060028110612db857fe5b0154815260200160018681548110612dcc57fe5b9060005260206000209060020201600160028110612de657fe5b0154815260200160018152602001600180870181548110612e0357fe5b9060005260206000209060020201600060028110612e1d57fe5b01548152602001600180870181548110612e3357fe5b9060005260206000209060020201600160028110612e4d57fe5b0154815260200160018152506013546016546012546040518663ffffffff1660e01b81526004018086600460200280838360005b83811015612e9c578082015181840152602081019050612e81565b5050505090500185600660200280838360005b83811015612eca578082015181840152602081019050612eaf565b505050509050018481526020018381526020018281526020019550505050505060606040518083038186803b158015612f0257600080fd5b505af4158015612f16573d6000803e3d6000fd5b505050506040513d6060811015612f2c57600080fd5b8101908080519060200190929190805190602001909291908051906020019092919050505084600060038110612f5e57fe5b6020020185600160038110612f6f57fe5b6020020186600260038110612f8057fe5b602002018381525083815250838152505050505b61300b83600060038110612fa457fe5b602002015184600160038110612fb657fe5b602002015185600260038110612fc857fe5b602002015185600060038110612fda57fe5b602002015186600160038110612fec57fe5b602002015187600260038110612ffe57fe5b6020020151601254613d56565b8560006003811061301857fe5b602002018660016003811061302957fe5b602002018760026003811061303a57fe5b60200201838152508381525083815250505050600281019050612a86565b506130616144f6565b73__EC____________________________________631b54f8248560026003811061308857fe5b60200201516012546040518363ffffffff1660e01b8152600401808381526020018281526020019250505060206040518083038186803b1580156130cb57600080fd5b505af41580156130df573d6000803e3d6000fd5b505050506040513d60208110156130f557600080fd5b81019080805190602001909291905050508160006002811061311357fe5b60200201818152505073__EC____________________________________631b54f8248460026003811061314357fe5b60200201516012546040518363ffffffff1660e01b8152600401808381526020018281526020019250505060206040518083038186803b15801561318657600080fd5b505af415801561319a573d6000803e3d6000fd5b505050506040513d60208110156131b057600080fd5b8101908080519060200190929190505050816001600281106131ce57fe5b60200201818152505080945050505050919050565b60055481565b600681815481106131f657fe5b906000526020600020016000915090505481565b601e5481565b6001828154811061321d57fe5b9060005260206000209060020201816002811061323657fe5b01600091509150505481565b60125481565b60135481565b6000806000808760026003811061326157fe5b602002015114156132a0578560006002811061327957fe5b60200201518660016002811061328b57fe5b6020020151600180905092509250925061375c565b6000866001600281106132af57fe5b602002015114156132fb57866000600381106132c757fe5b6020020151876001600381106132d957fe5b6020020151886002600381106132eb57fe5b602002015192509250925061375c565b61330361446e565b61330b6144f6565b858061331357fe5b8960026003811061332057fe5b60200201518a60026003811061333257fe5b6020020151098160006002811061334557fe5b602002018181525050858061335657fe5b8160006002811061336357fe5b60200201518a60026003811061337557fe5b6020020151098160016002811061338857fe5b602002018181525050613399614518565b60405180608001604052808b6000600381106133b157fe5b602002015181526020018b6001600381106133c857fe5b6020020151815260200188806133da57fe5b846000600281106133e757fe5b60200201518c6000600281106133f957fe5b6020020151098152602001888061340c57fe5b8460016002811061341957fe5b60200201518c60016002811061342b57fe5b60200201510981525090508060026004811061344357fe5b60200201518160006004811061345557fe5b60200201511415613563578060036004811061346d57fe5b60200201518160016004811061347f57fe5b6020020151146135155760008360006003811061349857fe5b6020020181815250506000836001600381106134b057fe5b6020020181815250506000836002600381106134c857fe5b602002018181525050826000600381106134de57fe5b6020020151836001600381106134f057fe5b60200201518460026003811061350257fe5b602002015195509550955050505061375c565b6135558a60006003811061352557fe5b60200201518b60016003811061353757fe5b60200201518c60026003811061354957fe5b60200201518b8b6142a4565b95509550955050505061375c565b6000878061356d57fe5b8260006004811061357a57fe5b602002015189038360026004811061358e57fe5b6020020151089050600088806135a057fe5b836001600481106135ad57fe5b60200201518a03846003600481106135c157fe5b6020020151089050600089806135d357fe5b838409905060008a806135e257fe5b848309905060008b806135f157fe5b828d038d806135fc57fe5b8687090890508b8061360a57fe5b8c8061361257fe5b8d8061361a57fe5b858960006004811061362857fe5b6020020151096002098d0382089050808860006003811061364557fe5b6020020181815250508b8061365657fe5b8c8061365e57fe5b828e038e8061366957fe5b868a60006004811061367757fe5b6020020151090885098860016003811061368d57fe5b6020020181815250508b8061369e57fe5b8c806136a657fe5b83886001600481106136b457fe5b6020020151098d03896001600381106136c957fe5b602002015108886001600381106136dc57fe5b6020020181815250508b806136ed57fe5b8f6002600381106136fa57fe5b602002015186098860026003811061370e57fe5b6020020181815250508760006003811061372457fe5b60200201518860016003811061373657fe5b60200201518960026003811061374857fe5b60200201519a509a509a5050505050505050505b9450945094915050565b61376e6144f6565b61377661446e565b61377e6144f6565b73__FastEcMul_____________________________63fcc8f0726040518060800160405280886000600281106137b057fe5b60200201518152602001886001600281106137c757fe5b60200201518152602001876000600281106137de57fe5b60200201516000038152602001876001600281106137f857fe5b60200201516000038152506040518060c00160405280600f60006002811061381c57fe5b01548152602001600f60016002811061383157fe5b01548152602001600181526020018c60006002811061384c57fe5b015481526020018c60016002811061386057fe5b0154815260200160018152506013546016546012546040518663ffffffff1660e01b81526004018086600460200280838360005b838110156138af578082015181840152602081019050613894565b5050505090500185600660200280838360005b838110156138dd5780820151818401526020810190506138c2565b505050509050018481526020018381526020018281526020019550505050505060606040518083038186803b15801561391557600080fd5b505af4158015613929573d6000803e3d6000fd5b505050506040513d606081101561393f57600080fd5b810190808051906020019092919080519060200190929190805190602001909291905050508460006003811061397157fe5b602002018560016003811061398257fe5b602002018660026003811061399357fe5b6020020183815250838152508381525050505073__EC____________________________________631b54f824836002600381106139cd57fe5b60200201516012546040518363ffffffff1660e01b8152600401808381526020018281526020019250505060206040518083038186803b158015613a1057600080fd5b505af4158015613a24573d6000803e3d6000fd5b505050506040513d6020811015613a3a57600080fd5b810190808051906020019092919050505081600060028110613a5857fe5b60200201818152505073__FastEcMul_____________________________63fcc8f072604051806080016040528088600060028110613a9357fe5b6020020151815260200188600160028110613aaa57fe5b6020020151815260200187600060028110613ac157fe5b6020020151600003815260200187600160028110613adb57fe5b60200201516000038152506040518060c001604052808b600060028110613afe57fe5b015481526020018b600160028110613b1257fe5b01548152602001600181526020018a600060028110613b2d57fe5b602002015181526020018a600160028110613b4457fe5b6020020151815260200160018152506013546016546012546040518663ffffffff1660e01b81526004018086600460200280838360005b83811015613b96578082015181840152602081019050613b7b565b5050505090500185600660200280838360005b83811015613bc4578082015181840152602081019050613ba9565b505050509050018481526020018381526020018281526020019550505050505060606040518083038186803b158015613bfc57600080fd5b505af4158015613c10573d6000803e3d6000fd5b505050506040513d6060811015613c2657600080fd5b8101908080519060200190929190805190602001909291908051906020019092919050505084600060038110613c5857fe5b6020020185600160038110613c6957fe5b6020020186600260038110613c7a57fe5b6020020183815250838152508381525050505073__EC____________________________________631b54f82483600260038110613cb457fe5b60200201516012546040518363ffffffff1660e01b8152600401808381526020018281526020019250505060206040518083038186803b158015613cf757600080fd5b505af4158015613d0b573d6000803e3d6000fd5b505050506040513d6020811015613d2157600080fd5b810190808051906020019092919050505081600160028110613d3f57fe5b602002018181525050809250505095945050505050565b6000806000808a148015613d6a5750600089145b15613d7d57868686925092509250614297565b600087148015613d8d5750600086145b15613da057898989925092509250614297565b613da8614518565b8480613db057fe5b898a0981600060048110613dc057fe5b6020020181815250508480613dd157fe5b81600060048110613dde57fe5b60200201518a0981600160048110613df257fe5b6020020181815250508480613e0357fe5b86870981600260048110613e1357fe5b6020020181815250508480613e2457fe5b81600260048110613e3157fe5b6020020151870981600360048110613e4557fe5b60200201818152505060405180608001604052808680613e6157fe5b83600260048110613e6e57fe5b60200201518e0981526020018680613e8257fe5b83600360048110613e8f57fe5b60200201518d0981526020018680613ea357fe5b83600060048110613eb057fe5b60200201518b0981526020018680613ec457fe5b83600160048110613ed157fe5b60200201518a09815250905080600260048110613eea57fe5b602002015181600060048110613efc57fe5b6020020151141561401f5780600360048110613f1457fe5b602002015181600160048110613f2657fe5b602002015114613fa9576000613fa4576040517f08c379a000000000000000000000000000000000000000000000000000000000815260040180806020018281038252600a8152602001807f57726f6e6720646174610000000000000000000000000000000000000000000081525060200191505060405180910390fd5b61401e565b600061401d576040517f08c379a00000000000000000000000000000000000000000000000000000000081526004018080602001828103825260128152602001807f55736520646f75626c6520696e7374656164000000000000000000000000000081525060200191505060405180910390fd5b5b5b614027614518565b858061402f57fe5b8260006004811061403c57fe5b602002015187038360026004811061405057fe5b6020020151088160006004811061406357fe5b602002018181525050858061407457fe5b8260016004811061408157fe5b602002015187038360036004811061409557fe5b602002015108816001600481106140a857fe5b60200201818152505085806140b957fe5b816000600481106140c657fe5b6020020151826000600481106140d857fe5b602002015109816002600481106140eb57fe5b60200201818152505085806140fc57fe5b8160006004811061410957fe5b60200201518260026004811061411b57fe5b6020020151098160036004811061412e57fe5b6020020181815250506000868061414157fe5b8260036004811061414e57fe5b60200201518803888061415d57fe5b8460016004811061416a57fe5b60200201518560016004811061417c57fe5b602002015109089050868061418d57fe5b878061419557fe5b888061419d57fe5b846002600481106141aa57fe5b6020020151866000600481106141bc57fe5b602002015109600209880382089050600087806141d557fe5b88806141dd57fe5b838a038a806141e857fe5b866002600481106141f557fe5b60200201518860006004811061420757fe5b602002015109088460016004811061421b57fe5b6020020151099050878061422b57fe5b888061423357fe5b8460036004811061424057fe5b60200201518660016004811061425257fe5b6020020151098903820890506000888061426857fe5b898061427057fe5b8b8f098560006004811061428057fe5b602002015109905082828297509750975050505050505b9750975097945050505050565b6000806000808614156142bf57878787925092509250614463565b6142c761446e565b84806142cf57fe5b898a09816000600381106142df57fe5b60200201818152505084806142f057fe5b8889098160016003811061430057fe5b602002018181525050848061431157fe5b8788098160026003811061432157fe5b6020020181815250506000858061433457fe5b868061433c57fe5b8360016003811061434957fe5b60200201518c0960040990506000868061435f57fe5b878061436757fe5b888061436f57fe5b8560026003811061437c57fe5b60200201518660026003811061438e57fe5b6020020151098a09888061439e57fe5b856000600381106143ab57fe5b6020020151600309089050600087806143c057fe5b88806143c857fe5b848508890389806143d557fe5b848509089050600088806143e557fe5b89806143ed57fe5b8a806143f557fe5b8760016003811061440257fe5b60200201518860016003811061441457fe5b6020020151096008098a038a8061442757fe5b8b8061442f57fe5b858d03880886090890506000898061444357fe5b8a8061444b57fe5b8d8f0960020990508282829850985098505050505050505b955095509592505050565b6040518060600160405280600390602082028038833980820191505090505090565b6040518060600160405280600390602082028038833980820191505090505090565b6040518060c00160405280600690602082028038833980820191505090505090565b6040518060400160405280600290602082028038833980820191505090505090565b6040518060400160405280600290602082028038833980820191505090505090565b604051806080016040528060049060208202803883398082019150509050509056fe52696768206d61726b65727320686173206e6f74206265656e206275696c74207965742e537461727420696478206d757374206265203c207468616e20746865206e756d626572206f66207061727469636970616e74732ea165627a7a7230582007f1ac75ff5bf72f7defbcd46def058d99cd102f43e437b1b21cd3ef22bfc07a0029",
  "source": "// SPDX-License-Identifier: MIT\npragma solidity >=0.4.22 <0.9.0;\n//pragma solidity ^0.8.17;\nimport { EC } from \"./lib/EC.sol\";\nimport { FastEcMul } from \"./lib/FastEcMul.sol\";\n\n// Authors: authors of BBB-voting (https://arxiv.org/pdf/2010.09112.pdf), Ivana Stankov\n// VotingCalls - booth functions called off-chain\n// definitions of functions delegatecalled from booths\ncontract VotingCalls {\n\n    string[] public candidates;\n    uint[2][] public candidateGens;\n\n    uint votersCnt;\n    uint[2][] public votersPKs;\n    uint[2][] public MpcPKs;\n\n    uint public sizeHash;\n\n    uint[] public notVotedIdxs;\n    uint submittedVotersRepair = 0;\n\n    // compute blinded votes sum batching\n    uint blindedVotesCnt = 0;\n    uint VS_start = 0;\n    uint VS_batch = 1000;\n    uint[3] public blindedVotesSum;\n\n    int[] tally; // stored as pairs of decomposed scalars\n\n    // Secp256k1 curve parameters\n    uint[2] public G = [0x79BE667EF9DCBBAC55A06295CE870B07029BFCDB2DCE28D959F2815B16F81798, 0x483ADA7726A3C4655DA4FBFC0E1108A8FD17B448A68554199C47D08FFB10D4B8]; // common generator for voters - base points\n    uint public NN = 0xFFFFFFFFFFFFFFFFFFFFFFFFFFFFFFFEBAAEDCE6AF48A03BBFD25E8CD0364141; // modulus for private keys (i.e., order of G)\n    uint public PP = 0xFFFFFFFFFFFFFFFFFFFFFFFFFFFFFFFFFFFFFFFFFFFFFFFFFFFFFFFEFFFFFC2F; // modulus for public keys (i.e., field size)\n    uint public A = 0;\n    uint public B = 7;\n    uint public Lambda = 0x5363ad4cc05c30e0a5261c028812645a122e22ea20816678df02967c1b23bd72; // a root of the characteristic polynomial of the endomorphism of the curve\n    uint public Beta = 0x7ae96a2b657c07106e64479eac3434e99cf0497512f58995c1396c28719501ee; // constant on the curve (endomorphism)\n\n    // State preservation for batching of MPC key computation\n    uint public MPC_start = 0; // idx of the voter that is at the begining of batching sliding window\n    uint public MPC_batch; // the size of the batch\n    uint[3] public MPC_act_left = [G[0], G[1], 1];\n    uint[3][] public MPC_right_markers;\n\n    // Batching right side for MPC computation\n    uint public RM_start = 1;\n    uint public RM_batch;\n    uint[3] public RM_act = [G[0], G[1], 1];\n\n    // Mappings\n    mapping(address => bool) public votersWithPK; // mapping of voters that submitted eph. keys\n    mapping(address => uint) public votersPKidx; // mapping of addresses of voters to index in votersPKs array\n    mapping(uint => uint) public lastRepairedIdx; // last faulty index repaired by voter\n    mapping(uint => bool) public submittedRepairKeys;\n    mapping(uint => uint[2]) public blindedVotes;\n\n\n    //// View Functions ////\n\n    function modInvCache4MPCBatched(uint start_idx, uint[3] memory last_left) \n        public\n        view\n        returns(uint[] memory, uint[] memory, uint[3] memory)\n    {\n        require(0 != MPC_right_markers.length, \"Righ markers has not been built yet.\");\n        require(start_idx < votersPKs.length, \"Start idx must be < than the number of participants.\");\n\n        uint arrSize = MPC_batch;\n        if(votersPKs.length - start_idx < MPC_batch){\n            arrSize = votersPKs.length - start_idx;\n        }\n\n        // right_table contains right-side sum for every voter in current batch\n        uint[3][] memory right_table = new uint[3][](MPC_batch);\n\n        // build the right table using markers created before\n        uint skipOffset = 0;\n        if(start_idx + MPC_batch > votersPKs.length) { // skipoffset only applies in the last batch of the case where MPC_batch does not divide ephemeralPKs.length\n            skipOffset = (MPC_batch - votersPKs.length % MPC_batch);\n        }\n        right_table[MPC_batch - skipOffset - 1] = MPC_right_markers[MPC_right_markers.length - start_idx / MPC_batch - 1];\n\n        for (uint j = 1 + skipOffset; j < MPC_batch; j++) {\n            uint idx = MPC_batch - j;\n\n            (right_table[idx - 1][0],\n            right_table[idx - 1][1],\n            right_table[idx - 1][2]\n            ) = EC.OVN_addMixed(\n                right_table[idx],\n                votersPKs[start_idx + idx], A, PP\n            );\n        }\n\n        uint[] memory modInv1 = new uint[](arrSize);\n        uint[] memory modInv2 = new uint[](arrSize);\n        uint[3] memory res;\n        uint[3] memory act_left = last_left;\n\n        // handle the end bound for the main cycle\n        uint end_bound = start_idx + MPC_batch;\n        if(end_bound > votersPKs.length) {\n            end_bound = votersPKs.length;\n        }\n\n        // build cache of modular inverses for the current batch\n        for (uint i = start_idx; i < end_bound; i++) {\n\n            if(0 != i){ // accumulate sum of x_j * G, starting by the first voter\n                (act_left[0], act_left[1], act_left[2]) = EC.OVN_addMixed(act_left, votersPKs[i - 1], A, PP);\n            }\n\n            modInv1[i % MPC_batch] = EC.invMod(right_table[i % MPC_batch][2], PP); // store modInv for substraction\n\n            // Finally, we do substraction (left - right)\n            (res[0], res[1], res[2]) = EC.ecSub_J(\n                act_left[0], act_left[1], act_left[2],\n                right_table[i % MPC_batch][0],\n                right_table[i % MPC_batch][1],\n                right_table[i % MPC_batch][2],\n                PP\n            );\n            modInv2[i % MPC_batch] = EC.invMod(res[2], PP); // store modInv for final affine transformation\n        }\n        return (modInv1, modInv2, act_left);\n    }\n\n    function modInvCache4SubmitVote(\n        uint[] memory proof_B,\n        int[] memory proof_r,\n        int[] memory proof_d,\n        uint[2] memory vote\n    ) \n        public\n        view\n        returns (uint[] memory)\n    {\n        uint[3][] memory modInv = new uint[3][](candidates.length);\n\n        uint idxVoter = votersPKidx[msg.sender];\n        uint[3] memory left;\n        uint[6] memory right; // right[3-5] is another tmp variable (since stack deep occurs; allowing only 16 local vars and func params)\n\n        for (uint l = 0; l < candidates.length; l++) {\n\n            ///////////////////////////////////\n            // 1) g * {r_l} - X * {d_l} == a_l\n            //    where X := g * x_i    (ephemeral PK)\n            (left[0], left[1], left[2]) = FastEcMul.ecSimMul(\n                [proof_r[2 * l], proof_r[2 * l + 1], -proof_d[2 * l], -proof_d[2 * l + 1]],\n                [G[0], G[1], 1, votersPKs[idxVoter][0], votersPKs[idxVoter][1], 1],\n                A, Beta, PP\n            );\n            modInv[l][0] = EC.invMod(left[2], PP); // store modInv for 1st affine transformation\n\n            ///////////////////////////////////\n            // 2) h * {r_l} + d_l * f_l == b_l + d_l * B_l\n            (left[0], left[1], left[2]) = FastEcMul.ecSimMul(\n                [proof_r[2 * l], proof_r[2 * l + 1], proof_d[2 * l], proof_d[2 * l + 1]],\n                [MpcPKs[idxVoter][0], MpcPKs[idxVoter][1], 1, candidateGens[l][0], candidateGens[l][1], 1],\n                A, Beta, PP\n            );\n            (right[0], right[1], right[2]) = FastEcMul.ecSimMul(\n                [proof_d[2 * l], proof_d[2 * l + 1], 0, 0],\n                [vote[0], vote[1], 1, G[0], G[1], 1],\n                A, Beta, PP\n            );\n            (right[0], right[1], right[2]) = EC.OVN_addMixed(\n                [right[0], right[1], right[2]],\n                [proof_B[2 * l], proof_B[2 * l + 1]],\n                A, PP\n            );\n            modInv[l][1] = EC.invMod(left[2], PP); // store modInv for 2nd affine transformation\n            modInv[l][2] = EC.invMod(right[2], PP); // store modInv for 3rd affine transformation\n        }  \n\n        // this ugly code is required due to stack deep error that does not allow defining local vars earlier (anyway it is just call-based method)\n        uint[] memory ret1 = new uint[](candidates.length * 3);\n        for (uint i = 0; i < candidates.length; i++) {\n            ret1[i * 3] = modInv[i][0];\n            ret1[i * 3 + 1] = modInv[i][1];\n            ret1[i * 3 + 2] = modInv[i][2];\n        }\n        return ret1;\n    }\n\n    function modInvCache4Tally(int[] memory c_decom) public view returns (uint[2] memory) {\n\n        // Verify that sum of B_i == f_1 * c_1 + f_2 * c_2 * ... * f_k * c_k\n\n        // Compute Sum of B_i (left side)\n        uint[3] memory left = [G[0], G[1], 1];\n        for (uint i = 0; i < votersPKs.length; i++) {\n            if(blindedVotes[i][0] == 0) {\n                continue;\n            }\n            (left[0], left[1], left[2]) = EC.OVN_addMixed(\n                [left[0], left[1], left[2]],\n                [blindedVotes[i][0], blindedVotes[i][1]],\n                A, PP\n            );\n        }\n\n        // Compute sum of counts * gens (right side)\n        uint[3] memory sum = [G[0], G[1], 1];\n        uint[3] memory right;\n\n        for (uint l = 0; l < candidateGens.length; l += 2) { // pairwise iteration\n            if(l == candidateGens.length - 1) { // in the case of the odd number of candidates, use neutral feature as the second item for multiplication when processing the last candidate\n                (right[0], right[1], right[2]) = FastEcMul.ecSimMul(\n                    [c_decom[2 * l], c_decom[2 * l + 1], 0, 0], // take two consecutive decomposed scalars (consisting of 4 items)\n                    [candidateGens[l][0], candidateGens[l][1], 1, G[0], G[1], 1], // take 2 consecutive candidate gens\n                    A, Beta, PP\n                );\n            } else { // all other iterations\n                (right[0], right[1], right[2]) = FastEcMul.ecSimMul(\n                    [c_decom[2 * l], c_decom[2 * l + 1], c_decom[2 * l + 2], c_decom[2 * l + 3]], // take two consecutive decomposed scalars (consisting of 4 items)\n                    [candidateGens[l][0], candidateGens[l][1], 1, candidateGens[l + 1][0], candidateGens[l + 1][1], 1], // take 2 consecutive candidate gens\n                    A, Beta, PP\n                );\n            }\n\n            (sum[0], sum[1], sum[2]) = EC.jacAdd(\n                sum[0], sum[1], sum[2],\n                right[0], right[1], right[2],\n                PP\n            );\n        }\n\n        uint[2] memory ret;\n        ret[0] = EC.invMod(left[2], PP); // store modInv for 1st affine transformation\n        ret[1] = EC.invMod(sum[2], PP); // store modInv for 2nd affine transformation\n        return ret;\n    }\n\n\n    function modInvCache4repairVote(\n        uint[] memory faultyIdx,\n        uint[] memory blindedKeys,\n        uint myIdx,\n        int[] memory proof_r,\n        int[] memory h_decomp\n    )\n        public\n        view\n        returns (uint[] memory)\n    {\n        uint[2][] memory modInv = new uint[2][](faultyIdx.length);\n\n        for (uint f = 0; f < faultyIdx.length; f++) {\n            modInv[f] = FT_modInv4Voter(\n                votersPKs[myIdx], \n                votersPKs[faultyIdx[f]],\n                [blindedKeys[2 * f], blindedKeys[2 * f + 1]],\n                [proof_r[2 * f], proof_r[2 * f + 1]],\n                [h_decomp[2 * f], h_decomp[2 * f + 1]]\n            );\n        }\n\n        // this ugly code is required due to stack deep error that does not allow defining local vars earlier (anyway it is just a call-based method)\n        uint[] memory ret1 = new uint[](faultyIdx.length * 3);\n        for (uint i = 0; i < faultyIdx.length; i++) {\n            ret1[i * 2] = modInv[i][0];\n            ret1[i * 2 + 1] = modInv[i][1];\n        }\n\n        return ret1;\n    }\n\n    function FT_modInv4Voter(\n        uint[2] storage I,\n        uint[2] storage J,\n        uint[2] memory blindedKey,\n        int[2] memory proof_r, \n        int[2] memory h_decomp // decomposed scalars\n    )\n        private \n        view\n        returns(uint[2] memory)\n    {\n        uint[3] memory left;\n        uint[2] memory ret;\n\n        ///////////////////////////////////\n        // 1)   G * r - I * h == m1      // original is G * r == m1 + I * h\n        (left[0], left[1], left[2]) = FastEcMul.ecSimMul(\n            [proof_r[0], proof_r[1], -h_decomp[0], -h_decomp[1]],\n            [G[0], G[1], 1, I[0], I[1], 1],\n            A, Beta, PP\n        );\n        ret[0] =  EC.invMod(left[2], PP); // store modInv for 1st affine transformation\n\n        ///////////////////////////////////\n        // 2)  J * r - C * h = m2        // original is J * r = m2 + C * h     (C = blinding key = G * x_i * x_j)\n        (left[0], left[1], left[2]) = FastEcMul.ecSimMul(\n            [proof_r[0], proof_r[1], -h_decomp[0], -h_decomp[1]],\n            [J[0], J[1], 1, blindedKey[0], blindedKey[1], 1],\n            A, Beta, PP\n        );\n        ret[1] =  EC.invMod(left[2], PP); // store modInv for 2nd affine transformation\n        return ret;\n    }\n}",
  "sourcePath": "C:\\Users\\tsvon\\Documents\\Projects\\Bakalarka\\smartcontracts\\contracts\\VotingCalls.sol",
  "compiler": {
    "name": "solc",
    "version": "0.5.8+commit.23d335f2.Emscripten.clang"
  },
  "schemaVersion": "3.4.16",
  "updatedAt": "2025-03-07T07:17:26.387Z",
  "networkType": "ethereum",
  "devdoc": {
    "methods": {}
  },
  "userdoc": {
    "methods": {
      "modInvCache4MPCBatched(uint256,uint256[3])": {
        "notice": "/ View Functions ////"
      }
    }
  }
}